{
  "abi": [
    {
      "inputs": [],
      "stateMutability": "nonpayable",
      "type": "constructor"
    },
    {
      "inputs": [],
      "name": "ERC1167FailedCreateClone",
      "type": "error"
    },
    {
      "inputs": [],
      "name": "InvalidInitialization",
      "type": "error"
    },
    {
      "inputs": [
        {
          "internalType": "uint256",
          "name": "maxPeriod",
          "type": "uint256"
        }
      ],
      "name": "MaxSalePeriodExceeded",
      "type": "error"
    },
    {
      "inputs": [],
      "name": "MaxSalePeriodIsTooLow",
      "type": "error"
    },
    {
      "inputs": [],
      "name": "NotInitializing",
      "type": "error"
    },
    {
      "inputs": [
        {
          "internalType": "address",
          "name": "owner",
          "type": "address"
        }
      ],
      "name": "OwnableInvalidOwner",
      "type": "error"
    },
    {
      "inputs": [
        {
          "internalType": "address",
          "name": "account",
          "type": "address"
        }
      ],
      "name": "OwnableUnauthorizedAccount",
      "type": "error"
    },
    {
      "inputs": [
        {
          "internalType": "uint256",
          "name": "maxProtocolFee",
          "type": "uint256"
        }
      ],
      "name": "ProtocolFeeIsTooHigh",
      "type": "error"
    },
    {
      "inputs": [],
      "name": "ZeroAddress",
      "type": "error"
    },
    {
      "anonymous": false,
      "inputs": [
        {
          "indexed": false,
          "internalType": "uint64",
          "name": "version",
          "type": "uint64"
        }
      ],
      "name": "Initialized",
      "type": "event"
    },
    {
      "anonymous": false,
      "inputs": [
        {
          "indexed": false,
          "internalType": "uint256",
          "name": "newMaxPeriod",
          "type": "uint256"
        }
      ],
      "name": "MaxSalePeriodSet",
      "type": "event"
    },
    {
      "anonymous": false,
      "inputs": [
        {
          "indexed": true,
          "internalType": "address",
          "name": "previousOwner",
          "type": "address"
        },
        {
          "indexed": true,
          "internalType": "address",
          "name": "newOwner",
          "type": "address"
        }
      ],
      "name": "OwnershipTransferred",
      "type": "event"
    },
    {
      "anonymous": false,
      "inputs": [
        {
          "indexed": false,
          "internalType": "address",
          "name": "newRecipient",
          "type": "address"
        }
      ],
      "name": "ProtocolFeeRecipientSet",
      "type": "event"
    },
    {
      "anonymous": false,
      "inputs": [
        {
          "indexed": false,
          "internalType": "uint256",
          "name": "newProtocolFee",
          "type": "uint256"
        }
      ],
      "name": "ProtocolFeeSet",
      "type": "event"
    },
    {
      "anonymous": false,
      "inputs": [
        {
          "indexed": false,
          "internalType": "address",
          "name": "newImplementation",
          "type": "address"
        }
      ],
      "name": "TicketImplementationSet",
      "type": "event"
    },
    {
      "anonymous": false,
      "inputs": [
        {
          "indexed": true,
          "internalType": "address",
          "name": "creator",
          "type": "address"
        },
        {
          "indexed": true,
          "internalType": "address",
          "name": "ticketSaleAddr",
          "type": "address"
        },
        {
          "indexed": true,
          "internalType": "address",
          "name": "ticketAddr",
          "type": "address"
        }
      ],
      "name": "TicketSaleCreated",
      "type": "event"
    },
    {
      "anonymous": false,
      "inputs": [
        {
          "indexed": false,
          "internalType": "address",
          "name": "newImplementation",
          "type": "address"
        }
      ],
      "name": "TicketSaleImplementationSet",
      "type": "event"
    },
    {
      "inputs": [],
      "name": "MAX_PROTOCOL_FEE",
      "outputs": [
        {
          "internalType": "uint256",
          "name": "",
          "type": "uint256"
        }
      ],
      "stateMutability": "view",
      "type": "function"
    },
    {
      "inputs": [
        {
          "components": [
            {
              "internalType": "uint256",
              "name": "startTime",
              "type": "uint256"
            },
            {
              "internalType": "uint256",
              "name": "endTime",
              "type": "uint256"
            },
            {
              "internalType": "uint256",
              "name": "price",
              "type": "uint256"
            },
            {
              "internalType": "address",
              "name": "paymentToken",
              "type": "address"
            }
          ],
          "internalType": "struct SaleParams",
          "name": "sale",
          "type": "tuple"
        },
        {
          "components": [
            {
              "internalType": "string",
              "name": "name",
              "type": "string"
            },
            {
              "internalType": "string",
              "name": "symbol",
              "type": "string"
            },
            {
              "internalType": "string",
              "name": "baseUri",
              "type": "string"
            },
            {
              "internalType": "string",
              "name": "contractUri",
              "type": "string"
            },
            {
              "internalType": "uint16",
              "name": "cap",
              "type": "uint16"
            }
          ],
          "internalType": "struct TicketParams",
          "name": "ticket",
          "type": "tuple"
        }
      ],
      "name": "createTicketSale",
      "outputs": [
        {
          "internalType": "address",
          "name": "ticketSaleAddr",
          "type": "address"
        },
        {
          "internalType": "address",
          "name": "ticketAddr",
          "type": "address"
        }
      ],
      "stateMutability": "nonpayable",
      "type": "function"
    },
    {
      "inputs": [],
      "name": "getMaxSalePeriod",
      "outputs": [
        {
          "internalType": "uint256",
          "name": "",
          "type": "uint256"
        }
      ],
      "stateMutability": "view",
      "type": "function"
    },
    {
      "inputs": [],
      "name": "getProtocolFee",
      "outputs": [
        {
          "internalType": "uint256",
          "name": "",
          "type": "uint256"
        }
      ],
      "stateMutability": "view",
      "type": "function"
    },
    {
      "inputs": [
        {
          "internalType": "address",
          "name": "ticketSaleImplementation",
          "type": "address"
        },
        {
          "internalType": "address",
          "name": "ticketImplementation",
          "type": "address"
        },
        {
          "internalType": "address",
          "name": "protocolFeeRecipient",
          "type": "address"
        },
        {
          "internalType": "uint256",
          "name": "protocolFee",
          "type": "uint256"
        },
        {
          "internalType": "uint256",
          "name": "maxSalePeriod",
          "type": "uint256"
        }
      ],
      "name": "initialize",
      "outputs": [],
      "stateMutability": "nonpayable",
      "type": "function"
    },
    {
      "inputs": [],
      "name": "owner",
      "outputs": [
        {
          "internalType": "address",
          "name": "",
          "type": "address"
        }
      ],
      "stateMutability": "view",
      "type": "function"
    },
    {
      "inputs": [],
      "name": "renounceOwnership",
      "outputs": [],
      "stateMutability": "nonpayable",
      "type": "function"
    },
    {
      "inputs": [
        {
          "internalType": "uint256",
          "name": "newMaxPeriod",
          "type": "uint256"
        }
      ],
      "name": "setMaxSalePeriod",
      "outputs": [],
      "stateMutability": "nonpayable",
      "type": "function"
    },
    {
      "inputs": [
        {
          "internalType": "uint256",
          "name": "newProtocolFee",
          "type": "uint256"
        }
      ],
      "name": "setProtocolFee",
      "outputs": [],
      "stateMutability": "nonpayable",
      "type": "function"
    },
    {
      "inputs": [
        {
          "internalType": "address",
          "name": "newRecipient",
          "type": "address"
        }
      ],
      "name": "setProtocolFeeRecipient",
      "outputs": [],
      "stateMutability": "nonpayable",
      "type": "function"
    },
    {
      "inputs": [
        {
          "internalType": "address",
          "name": "newImplementation",
          "type": "address"
        }
      ],
      "name": "setTicketImplementation",
      "outputs": [],
      "stateMutability": "nonpayable",
      "type": "function"
    },
    {
      "inputs": [
        {
          "internalType": "address",
          "name": "newImplementation",
          "type": "address"
        }
      ],
      "name": "setTicketSaleImplementation",
      "outputs": [],
      "stateMutability": "nonpayable",
      "type": "function"
    },
    {
      "inputs": [
        {
          "internalType": "address",
          "name": "newOwner",
          "type": "address"
        }
      ],
      "name": "transferOwnership",
      "outputs": [],
      "stateMutability": "nonpayable",
      "type": "function"
    }
  ],
  "bytecode": {
    "object": "0x608060405234801561001057600080fd5b5061001961001e565b6100d0565b7ff0c57e16840df040f15088dc2f81fe391c3923bec73e23a9662efc9c229c6a00805468010000000000000000900460ff161561006e5760405163f92ee8a960e01b815260040160405180910390fd5b80546001600160401b03908116146100cd5780546001600160401b0319166001600160401b0390811782556040519081527fc7f505b2f371ae2175ee4913f4499e1f2633a7b5936321eed1cdaeb6115181d29060200160405180910390a15b50565b610bdf806100df6000396000f3fe608060405234801561001057600080fd5b50600436106100cf5760003560e01c8063a6b63eb81161008c578063ba9a19e911610066578063ba9a19e9146101b7578063e521cb92146101ca578063f2fde38b146101dd578063fec1b5e0146101f057600080fd5b8063a6b63eb814610188578063b38c326f1461019b578063b8ca3b83146101ae57600080fd5b806312a7791d146100d4578063715018a6146100e9578063787dce3d146100f15780638ad01b05146101045780638da5cb5b1461013c578063a5a4103114610176575b600080fd5b6100e76100e23660046108b9565b6101f8565b005b6100e7610260565b6100e76100ff3660046108b9565b610274565b6101176101123660046108d2565b6102dd565b604080516001600160a01b039384168152929091166020830152015b60405180910390f35b7f9016d09d72d40fdae2fd8ceac6b6234c7706214fd39c1cd1e609a0528c199300546040516001600160a01b039091168152602001610133565b6003545b604051908152602001610133565b6100e7610196366004610944565b610418565b6100e76101a936600461099f565b610559565b61017a6103e881565b6100e76101c536600461099f565b6105df565b6100e76101d836600461099f565b61065d565b6100e76101eb36600461099f565b6106db565b60025461017a565b610200610719565b6201518081101561022457604051634d13327960e01b815260040160405180910390fd5b60028190556040518181527f256541dfa87139e28394039169ffb9af599b5569d1b6492c3bee36cd9718b2fb906020015b60405180910390a150565b610268610719565b6102726000610774565b565b61027c610719565b6103e88111156102a857604051632f746c6960e01b81526103e860048201526024015b60405180910390fd5b60038190556040518181527fdb5aafdb29539329e37d4e3ee869bc4031941fd55a5dfc92824fbe34b204e30d90602001610255565b600080833560208501351180156103035750600254610301853560208701356109c3565b115b1561032757600254604051630f4f710360e01b815260040161029f91815260200190565b60005461033c906001600160a01b03166107e5565b6001546003546004805460405163614d394960e01b81529496506001600160a01b038088169563614d394995610382959083169433949193909116918c918c9101610a60565b6020604051808303816000875af11580156103a1573d6000803e3d6000fd5b505050506040513d601f19601f820116820180604052508101906103c59190610b8c565b9050806001600160a01b0316826001600160a01b0316336001600160a01b03167fab6f6362a4c4773e481af1c0785512939f451906d627aad90f9798f7ec52dd2e60405160405180910390a49250929050565b7ff0c57e16840df040f15088dc2f81fe391c3923bec73e23a9662efc9c229c6a008054600160401b810460ff16159067ffffffffffffffff1660008115801561045e5750825b905060008267ffffffffffffffff16600114801561047b5750303b155b905081158015610489575080155b156104a75760405163f92ee8a960e01b815260040160405180910390fd5b845467ffffffffffffffff1916600117855583156104d157845460ff60401b1916600160401b1785555b6104da33610857565b6104e38a6105df565b6104ec89610559565b6104f58861065d565b6104fe866101f8565b61050787610274565b831561054d57845460ff60401b19168555604051600181527fc7f505b2f371ae2175ee4913f4499e1f2633a7b5936321eed1cdaeb6115181d29060200160405180910390a15b50505050505050505050565b610561610719565b806001600160a01b0381166105895760405163d92e233d60e01b815260040160405180910390fd5b600180546001600160a01b0319166001600160a01b0384169081179091556040519081527f8d05844cc8754780f93989376d1954b57d5e30ff2409ddb37a2d549cd2fb21e7906020015b60405180910390a15050565b6105e7610719565b806001600160a01b03811661060f5760405163d92e233d60e01b815260040160405180910390fd5b600080546001600160a01b0319166001600160a01b0384169081179091556040519081527f66271313d5a8a7e9d20673c718ff73a00cff8898118f9b69625a15ba46c4b181906020016105d3565b610665610719565b806001600160a01b03811661068d5760405163d92e233d60e01b815260040160405180910390fd5b600480546001600160a01b0319166001600160a01b0384169081179091556040519081527f5034c7ac62cd0031ddf2f1dcde2858132dd886d61032c9b2d4a99f0490e80ee4906020016105d3565b6106e3610719565b6001600160a01b03811661070d57604051631e4fbdf760e01b81526000600482015260240161029f565b61071681610774565b50565b3361074b7f9016d09d72d40fdae2fd8ceac6b6234c7706214fd39c1cd1e609a0528c199300546001600160a01b031690565b6001600160a01b0316146102725760405163118cdaa760e01b815233600482015260240161029f565b7f9016d09d72d40fdae2fd8ceac6b6234c7706214fd39c1cd1e609a0528c19930080546001600160a01b031981166001600160a01b03848116918217845560405192169182907f8be0079c531659141344cd1fd0a4f28419497f9722a3daafe3b4186f6b6457e090600090a3505050565b6000763d602d80600a3d3981f3363d3d373d3d3d363d730000008260601b60e81c176000526e5af43d82803e903d91602b57fd5bf38260781b17602052603760096000f090506001600160a01b038116610852576040516330be1a3d60e21b815260040160405180910390fd5b919050565b61085f610868565b610716816108b1565b7ff0c57e16840df040f15088dc2f81fe391c3923bec73e23a9662efc9c229c6a0054600160401b900460ff1661027257604051631afcd79f60e31b815260040160405180910390fd5b6106e3610868565b6000602082840312156108cb57600080fd5b5035919050565b60008082840360a08112156108e657600080fd5b60808112156108f457600080fd5b50829150608083013567ffffffffffffffff81111561091257600080fd5b830160a0818603121561092457600080fd5b809150509250929050565b6001600160a01b038116811461071657600080fd5b600080600080600060a0868803121561095c57600080fd5b85356109678161092f565b945060208601356109778161092f565b935060408601356109878161092f565b94979396509394606081013594506080013592915050565b6000602082840312156109b157600080fd5b81356109bc8161092f565b9392505050565b818103818111156109e457634e487b7160e01b600052601160045260246000fd5b92915050565b6000808335601e19843603018112610a0157600080fd5b830160208101925035905067ffffffffffffffff811115610a2157600080fd5b803603821315610a3057600080fd5b9250929050565b81835281816020850137506000828201602090810191909152601f909101601f19169091010190565b600061012060018060a01b03808a1684528089166020850152876040850152808716606085015285356080850152602086013560a0850152604086013560c08501526060860135610ab08161092f565b1660e08401526101008301819052610ac884806109ea565b60a083860152610add6101c086018284610a37565b92505050610aee60208501856109ea565b61011f198086850301610140870152610b08848385610a37565b9350610b1760408801886109ea565b935091508086850301610160870152610b31848484610a37565b9350610b4060608801886109ea565b93509150808685030161018087015250610b5b838383610a37565b92505050608084013561ffff8116808214610b7557600080fd5b6101a0949094019390935298975050505050505050565b600060208284031215610b9e57600080fd5b81516109bc8161092f56fea2646970667358221220e3776d61a75cf8280584daf8a5e5dd66ad5681e1e367325b03538af54862f16364736f6c63430008140033",
    "linkReferences": {}
  },
  "methodIdentifiers": {
    "MAX_PROTOCOL_FEE()": "b8ca3b83",
    "createTicketSale((uint256,uint256,uint256,address),(string,string,string,string,uint16))": "8ad01b05",
    "getMaxSalePeriod()": "fec1b5e0",
    "getProtocolFee()": "a5a41031",
    "initialize(address,address,address,uint256,uint256)": "a6b63eb8",
    "owner()": "8da5cb5b",
    "renounceOwnership()": "715018a6",
    "setMaxSalePeriod(uint256)": "12a7791d",
    "setProtocolFee(uint256)": "787dce3d",
    "setProtocolFeeRecipient(address)": "e521cb92",
    "setTicketImplementation(address)": "b38c326f",
    "setTicketSaleImplementation(address)": "ba9a19e9",
    "transferOwnership(address)": "f2fde38b"
  },
  "id": 58
}