{"abi":[{"type":"constructor","inputs":[],"stateMutability":"nonpayable"},{"type":"function","name":"MAX_PROTOCOL_FEE","inputs":[],"outputs":[{"name":"","type":"uint256","internalType":"uint256"}],"stateMutability":"view"},{"type":"function","name":"createTicketSale","inputs":[{"name":"sale","type":"tuple","internalType":"struct SaleParams","components":[{"name":"startTime","type":"uint256","internalType":"uint256"},{"name":"endTime","type":"uint256","internalType":"uint256"},{"name":"price","type":"uint256","internalType":"uint256"},{"name":"paymentToken","type":"address","internalType":"address"}]},{"name":"ticket","type":"tuple","internalType":"struct TicketParams","components":[{"name":"name","type":"string","internalType":"string"},{"name":"symbol","type":"string","internalType":"string"},{"name":"baseUri","type":"string","internalType":"string"},{"name":"cap","type":"uint16","internalType":"uint16"}]}],"outputs":[{"name":"ticketSaleAddr","type":"address","internalType":"address"},{"name":"ticketAddr","type":"address","internalType":"address"}],"stateMutability":"nonpayable"},{"type":"function","name":"getImplementations","inputs":[],"outputs":[{"name":"sale","type":"address","internalType":"address"},{"name":"ticket","type":"address","internalType":"address"}],"stateMutability":"view"},{"type":"function","name":"getMaxSalePeriod","inputs":[],"outputs":[{"name":"","type":"uint256","internalType":"uint256"}],"stateMutability":"view"},{"type":"function","name":"getProtocolFee","inputs":[],"outputs":[{"name":"","type":"uint256","internalType":"uint256"}],"stateMutability":"view"},{"type":"function","name":"initialize","inputs":[{"name":"ticketSaleImplementation","type":"address","internalType":"address"},{"name":"ticketImplementation","type":"address","internalType":"address"},{"name":"protocolFeeRecipient","type":"address","internalType":"address"},{"name":"protocolFee","type":"uint256","internalType":"uint256"},{"name":"maxSalePeriod","type":"uint256","internalType":"uint256"}],"outputs":[],"stateMutability":"nonpayable"},{"type":"function","name":"owner","inputs":[],"outputs":[{"name":"","type":"address","internalType":"address"}],"stateMutability":"view"},{"type":"function","name":"renounceOwnership","inputs":[],"outputs":[],"stateMutability":"nonpayable"},{"type":"function","name":"setMaxSalePeriod","inputs":[{"name":"newMaxPeriod","type":"uint256","internalType":"uint256"}],"outputs":[],"stateMutability":"nonpayable"},{"type":"function","name":"setProtocolFee","inputs":[{"name":"newProtocolFee","type":"uint256","internalType":"uint256"}],"outputs":[],"stateMutability":"nonpayable"},{"type":"function","name":"setProtocolFeeRecipient","inputs":[{"name":"newRecipient","type":"address","internalType":"address"}],"outputs":[],"stateMutability":"nonpayable"},{"type":"function","name":"setTicketImplementation","inputs":[{"name":"newImplementation","type":"address","internalType":"address"}],"outputs":[],"stateMutability":"nonpayable"},{"type":"function","name":"setTicketSaleImplementation","inputs":[{"name":"newImplementation","type":"address","internalType":"address"}],"outputs":[],"stateMutability":"nonpayable"},{"type":"function","name":"transferOwnership","inputs":[{"name":"newOwner","type":"address","internalType":"address"}],"outputs":[],"stateMutability":"nonpayable"},{"type":"event","name":"Initialized","inputs":[{"name":"version","type":"uint64","indexed":false,"internalType":"uint64"}],"anonymous":false},{"type":"event","name":"MaxSalePeriodSet","inputs":[{"name":"newMaxPeriod","type":"uint256","indexed":false,"internalType":"uint256"}],"anonymous":false},{"type":"event","name":"OwnershipTransferred","inputs":[{"name":"previousOwner","type":"address","indexed":true,"internalType":"address"},{"name":"newOwner","type":"address","indexed":true,"internalType":"address"}],"anonymous":false},{"type":"event","name":"ProtocolFeeRecipientSet","inputs":[{"name":"newRecipient","type":"address","indexed":false,"internalType":"address"}],"anonymous":false},{"type":"event","name":"ProtocolFeeSet","inputs":[{"name":"newProtocolFee","type":"uint256","indexed":false,"internalType":"uint256"}],"anonymous":false},{"type":"event","name":"TicketImplementationSet","inputs":[{"name":"newImplementation","type":"address","indexed":false,"internalType":"address"}],"anonymous":false},{"type":"event","name":"TicketSaleCreated","inputs":[{"name":"creator","type":"address","indexed":true,"internalType":"address"},{"name":"ticketSaleAddr","type":"address","indexed":true,"internalType":"address"},{"name":"ticketAddr","type":"address","indexed":true,"internalType":"address"}],"anonymous":false},{"type":"event","name":"TicketSaleImplementationSet","inputs":[{"name":"newImplementation","type":"address","indexed":false,"internalType":"address"}],"anonymous":false},{"type":"error","name":"ERC1167FailedCreateClone","inputs":[]},{"type":"error","name":"InvalidInitialization","inputs":[]},{"type":"error","name":"MaxSalePeriodExceeded","inputs":[{"name":"maxPeriod","type":"uint256","internalType":"uint256"}]},{"type":"error","name":"MaxSalePeriodIsTooLow","inputs":[]},{"type":"error","name":"NotInitializing","inputs":[]},{"type":"error","name":"OwnableInvalidOwner","inputs":[{"name":"owner","type":"address","internalType":"address"}]},{"type":"error","name":"OwnableUnauthorizedAccount","inputs":[{"name":"account","type":"address","internalType":"address"}]},{"type":"error","name":"ProtocolFeeIsTooHigh","inputs":[{"name":"maxProtocolFee","type":"uint256","internalType":"uint256"}]},{"type":"error","name":"ZeroAddress","inputs":[]}],"bytecode":{"object":"0x608060405234801561001057600080fd5b5061001961001e565b6100d0565b7ff0c57e16840df040f15088dc2f81fe391c3923bec73e23a9662efc9c229c6a00805468010000000000000000900460ff161561006e5760405163f92ee8a960e01b815260040160405180910390fd5b80546001600160401b03908116146100cd5780546001600160401b0319166001600160401b0390811782556040519081527fc7f505b2f371ae2175ee4913f4499e1f2633a7b5936321eed1cdaeb6115181d29060200160405180910390a15b50565b610bf6806100df6000396000f3fe608060405234801561001057600080fd5b50600436106100ea5760003560e01c8063a6b63eb81161008c578063ba9a19e911610066578063ba9a19e9146101ea578063e521cb92146101fd578063f2fde38b14610210578063fec1b5e01461022357600080fd5b8063a6b63eb8146101bb578063b38c326f146101ce578063b8ca3b83146101e157600080fd5b8063715018a6116100c8578063715018a614610154578063787dce3d1461015c5780638da5cb5b1461016f578063a5a41031146101a957600080fd5b806312a7791d146100ef5780635735a53f14610104578063615f64fe1461013c575b600080fd5b6101026100fd3660046108f0565b61022b565b005b610117610112366004610921565b610293565b604080516001600160a01b039384168152929091166020830152015b60405180910390f35b6000546001546001600160a01b039182169116610117565b6101026103d7565b61010261016a3660046108f0565b6103eb565b7f9016d09d72d40fdae2fd8ceac6b6234c7706214fd39c1cd1e609a0528c199300546040516001600160a01b039091168152602001610133565b6003545b604051908152602001610133565b6101026101c9366004610985565b61044f565b6101026101dc3660046109e0565b610590565b6101ad6103e881565b6101026101f83660046109e0565b610616565b61010261020b3660046109e0565b610694565b61010261021e3660046109e0565b610712565b6002546101ad565b610233610750565b6201518081101561025757604051634d13327960e01b815260040160405180910390fd5b60028190556040518181527f256541dfa87139e28394039169ffb9af599b5569d1b6492c3bee36cd9718b2fb906020015b60405180910390a150565b600080833560208501351180156102b957506002546102b785356020870135610a04565b115b156102e657600254604051630f4f710360e01b81526004016102dd91815260200190565b60405180910390fd5b6000546102fb906001600160a01b03166107ab565b60015460035460048054604051639d11f61560e01b81529496506001600160a01b0380881695639d11f61595610341959083169433949193909116918c918c9101610aa1565b6020604051808303816000875af1158015610360573d6000803e3d6000fd5b505050506040513d601f19601f820116820180604052508101906103849190610ba3565b9050806001600160a01b0316826001600160a01b0316336001600160a01b03167fab6f6362a4c4773e481af1c0785512939f451906d627aad90f9798f7ec52dd2e60405160405180910390a49250929050565b6103df610750565b6103e9600061081d565b565b6103f3610750565b6103e881111561041a57604051632f746c6960e01b81526103e860048201526024016102dd565b60038190556040518181527fdb5aafdb29539329e37d4e3ee869bc4031941fd55a5dfc92824fbe34b204e30d90602001610288565b7ff0c57e16840df040f15088dc2f81fe391c3923bec73e23a9662efc9c229c6a008054600160401b810460ff16159067ffffffffffffffff166000811580156104955750825b905060008267ffffffffffffffff1660011480156104b25750303b155b9050811580156104c0575080155b156104de5760405163f92ee8a960e01b815260040160405180910390fd5b845467ffffffffffffffff19166001178555831561050857845460ff60401b1916600160401b1785555b6105113361088e565b61051a8a610616565b61052389610590565b61052c88610694565b6105358661022b565b61053e876103eb565b831561058457845460ff60401b19168555604051600181527fc7f505b2f371ae2175ee4913f4499e1f2633a7b5936321eed1cdaeb6115181d29060200160405180910390a15b50505050505050505050565b610598610750565b806001600160a01b0381166105c05760405163d92e233d60e01b815260040160405180910390fd5b600180546001600160a01b0319166001600160a01b0384169081179091556040519081527f8d05844cc8754780f93989376d1954b57d5e30ff2409ddb37a2d549cd2fb21e7906020015b60405180910390a15050565b61061e610750565b806001600160a01b0381166106465760405163d92e233d60e01b815260040160405180910390fd5b600080546001600160a01b0319166001600160a01b0384169081179091556040519081527f66271313d5a8a7e9d20673c718ff73a00cff8898118f9b69625a15ba46c4b1819060200161060a565b61069c610750565b806001600160a01b0381166106c45760405163d92e233d60e01b815260040160405180910390fd5b600480546001600160a01b0319166001600160a01b0384169081179091556040519081527f5034c7ac62cd0031ddf2f1dcde2858132dd886d61032c9b2d4a99f0490e80ee49060200161060a565b61071a610750565b6001600160a01b03811661074457604051631e4fbdf760e01b8152600060048201526024016102dd565b61074d8161081d565b50565b336107827f9016d09d72d40fdae2fd8ceac6b6234c7706214fd39c1cd1e609a0528c199300546001600160a01b031690565b6001600160a01b0316146103e95760405163118cdaa760e01b81523360048201526024016102dd565b6000763d602d80600a3d3981f3363d3d373d3d3d363d730000008260601b60e81c176000526e5af43d82803e903d91602b57fd5bf38260781b17602052603760096000f090506001600160a01b038116610818576040516330be1a3d60e21b815260040160405180910390fd5b919050565b7f9016d09d72d40fdae2fd8ceac6b6234c7706214fd39c1cd1e609a0528c19930080546001600160a01b031981166001600160a01b03848116918217845560405192169182907f8be0079c531659141344cd1fd0a4f28419497f9722a3daafe3b4186f6b6457e090600090a3505050565b61089661089f565b61074d816108e8565b7ff0c57e16840df040f15088dc2f81fe391c3923bec73e23a9662efc9c229c6a0054600160401b900460ff166103e957604051631afcd79f60e31b815260040160405180910390fd5b61071a61089f565b60006020828403121561090257600080fd5b5035919050565b60006080828403121561091b57600080fd5b50919050565b60008060a0838503121561093457600080fd5b61093e8484610909565b9150608083013567ffffffffffffffff81111561095a57600080fd5b61096685828601610909565b9150509250929050565b6001600160a01b038116811461074d57600080fd5b600080600080600060a0868803121561099d57600080fd5b85356109a881610970565b945060208601356109b881610970565b935060408601356109c881610970565b94979396509394606081013594506080013592915050565b6000602082840312156109f257600080fd5b81356109fd81610970565b9392505050565b81810381811115610a2557634e487b7160e01b600052601160045260246000fd5b92915050565b6000808335601e19843603018112610a4257600080fd5b830160208101925035905067ffffffffffffffff811115610a6257600080fd5b803603821315610a7157600080fd5b9250929050565b81835281816020850137506000828201602090810191909152601f909101601f19169091010190565b600061012060018060a01b03808a1684528089166020850152876040850152808716606085015285356080850152602086013560a0850152604086013560c08501526060860135610af181610970565b1660e08401526101008301819052610b098480610a2b565b608083860152610b1e6101a086018284610a78565b92505050610b2f6020850185610a2b565b84830361011f1901610140860152610b48838284610a78565b92505050610b596040850185610a2b565b84830361011f1901610160860152610b72838284610a78565b92505050606084013561ffff8116808214610b8c57600080fd5b610180949094019390935298975050505050505050565b600060208284031215610bb557600080fd5b81516109fd8161097056fea26469706673582212207627689cd4729125d2314db75a1584201bd9f86fba156a9e0b533bf38a0c2c2964736f6c63430008140033","linkReferences":{}},"methodIdentifiers":{"MAX_PROTOCOL_FEE()":"b8ca3b83","createTicketSale((uint256,uint256,uint256,address),(string,string,string,uint16))":"5735a53f","getImplementations()":"615f64fe","getMaxSalePeriod()":"fec1b5e0","getProtocolFee()":"a5a41031","initialize(address,address,address,uint256,uint256)":"a6b63eb8","owner()":"8da5cb5b","renounceOwnership()":"715018a6","setMaxSalePeriod(uint256)":"12a7791d","setProtocolFee(uint256)":"787dce3d","setProtocolFeeRecipient(address)":"e521cb92","setTicketImplementation(address)":"b38c326f","setTicketSaleImplementation(address)":"ba9a19e9","transferOwnership(address)":"f2fde38b"},"id":64}