{"abi":[{"type":"constructor","inputs":[],"stateMutability":"nonpayable"},{"type":"function","name":"createPromo","inputs":[{"name":"promotion","type":"tuple","internalType":"struct Promotion","components":[{"name":"startTime","type":"uint256","internalType":"uint256"},{"name":"endTime","type":"uint256","internalType":"uint256"},{"name":"promoAddr","type":"address","internalType":"address"},{"name":"streams","type":"address[]","internalType":"address[]"},{"name":"description","type":"string","internalType":"string"}]},{"name":"uri","type":"string","internalType":"string"}],"outputs":[],"stateMutability":"nonpayable"},{"type":"function","name":"getAvailablePromotions","inputs":[{"name":"stream","type":"address","internalType":"address"}],"outputs":[{"name":"","type":"tuple[]","internalType":"struct Promotion[]","components":[{"name":"startTime","type":"uint256","internalType":"uint256"},{"name":"endTime","type":"uint256","internalType":"uint256"},{"name":"promoAddr","type":"address","internalType":"address"},{"name":"streams","type":"address[]","internalType":"address[]"},{"name":"description","type":"string","internalType":"string"}]}],"stateMutability":"view"},{"type":"function","name":"getPaymentRecipientAddress","inputs":[],"outputs":[{"name":"","type":"address","internalType":"address"}],"stateMutability":"view"},{"type":"function","name":"getPaymentTokenAddress","inputs":[],"outputs":[{"name":"","type":"address","internalType":"address"}],"stateMutability":"view"},{"type":"function","name":"getPromoCreationPrice","inputs":[],"outputs":[{"name":"","type":"uint256","internalType":"uint256"}],"stateMutability":"view"},{"type":"function","name":"initialize","inputs":[{"name":"paymentToken","type":"address","internalType":"address"},{"name":"paymentRecipient","type":"address","internalType":"address"},{"name":"promoCreationPrice","type":"uint256","internalType":"uint256"}],"outputs":[],"stateMutability":"nonpayable"},{"type":"function","name":"owner","inputs":[],"outputs":[{"name":"","type":"address","internalType":"address"}],"stateMutability":"view"},{"type":"function","name":"renounceOwnership","inputs":[],"outputs":[],"stateMutability":"nonpayable"},{"type":"function","name":"setPaymentRecipient","inputs":[{"name":"recipient","type":"address","internalType":"address"}],"outputs":[],"stateMutability":"nonpayable"},{"type":"function","name":"setPaymentToken","inputs":[{"name":"token","type":"address","internalType":"address"}],"outputs":[],"stateMutability":"nonpayable"},{"type":"function","name":"setPromoCreationPrice","inputs":[{"name":"price","type":"uint256","internalType":"uint256"}],"outputs":[],"stateMutability":"nonpayable"},{"type":"function","name":"transferOwnership","inputs":[{"name":"newOwner","type":"address","internalType":"address"}],"outputs":[],"stateMutability":"nonpayable"},{"type":"event","name":"Initialized","inputs":[{"name":"version","type":"uint64","indexed":false,"internalType":"uint64"}],"anonymous":false},{"type":"event","name":"OwnershipTransferred","inputs":[{"name":"previousOwner","type":"address","indexed":true,"internalType":"address"},{"name":"newOwner","type":"address","indexed":true,"internalType":"address"}],"anonymous":false},{"type":"event","name":"PaymentRecipientSet","inputs":[{"name":"recipient","type":"address","indexed":true,"internalType":"address"}],"anonymous":false},{"type":"event","name":"PaymentTokenSet","inputs":[{"name":"token","type":"address","indexed":false,"internalType":"address"}],"anonymous":false},{"type":"event","name":"PromoCreationPriceSet","inputs":[{"name":"price","type":"uint256","indexed":false,"internalType":"uint256"}],"anonymous":false},{"type":"event","name":"PromotionCreated","inputs":[{"name":"marketer","type":"address","indexed":true,"internalType":"address"},{"name":"promotion","type":"tuple","indexed":false,"internalType":"struct Promotion","components":[{"name":"startTime","type":"uint256","internalType":"uint256"},{"name":"endTime","type":"uint256","internalType":"uint256"},{"name":"promoAddr","type":"address","internalType":"address"},{"name":"streams","type":"address[]","internalType":"address[]"},{"name":"description","type":"string","internalType":"string"}]}],"anonymous":false},{"type":"error","name":"AddressEmptyCode","inputs":[{"name":"target","type":"address","internalType":"address"}]},{"type":"error","name":"AddressInsufficientBalance","inputs":[{"name":"account","type":"address","internalType":"address"}]},{"type":"error","name":"FailedInnerCall","inputs":[]},{"type":"error","name":"InvalidInitialization","inputs":[]},{"type":"error","name":"NotInitializing","inputs":[]},{"type":"error","name":"OwnableInvalidOwner","inputs":[{"name":"owner","type":"address","internalType":"address"}]},{"type":"error","name":"OwnableUnauthorizedAccount","inputs":[{"name":"account","type":"address","internalType":"address"}]},{"type":"error","name":"SafeERC20FailedOperation","inputs":[{"name":"token","type":"address","internalType":"address"}]},{"type":"error","name":"ZeroAddress","inputs":[]}],"bytecode":{"object":"0x608060405234801561001057600080fd5b5061001961001e565b6100d0565b7ff0c57e16840df040f15088dc2f81fe391c3923bec73e23a9662efc9c229c6a00805468010000000000000000900460ff161561006e5760405163f92ee8a960e01b815260040160405180910390fd5b80546001600160401b03908116146100cd5780546001600160401b0319166001600160401b0390811782556040519081527fc7f505b2f371ae2175ee4913f4499e1f2633a7b5936321eed1cdaeb6115181d29060200160405180910390a15b50565b61130b806100df6000396000f3fe608060405234801561001057600080fd5b50600436106100b45760003560e01c80637f753c6f116100715780637f753c6f1461014a5780638da5cb5b1461015d578063d412e6071461018d578063dea182c11461019e578063f2fde38b146101af578063fb6223ac146101c257600080fd5b80630be270fe146100b95780631794bb3c146100e25780632983c4b8146100f757806344680c861461010a5780636a326ab11461012f578063715018a614610142575b600080fd5b6100cc6100c7366004610afb565b6101d5565b6040516100d99190610b68565b60405180910390f35b6100f56100f0366004610c43565b61035d565b005b6100f5610105366004610afb565b61048a565b6001546001600160a01b03165b6040516001600160a01b0390911681526020016100d9565b6100f561013d366004610afb565b610505565b6100f561058a565b6100f5610158366004610c84565b61059e565b7f9016d09d72d40fdae2fd8ceac6b6234c7706214fd39c1cd1e609a0528c199300546001600160a01b0316610117565b6002546040519081526020016100d9565b6000546001600160a01b0316610117565b6100f56101bd366004610afb565b6105e1565b6100f56101d0366004610c9d565b610624565b6001600160a01b0381166000908152600360209081526040808320805482518185028101850190935280835260609492939192909184015b828210156103525760008481526020908190206040805160a081018252600586029092018054835260018101548385015260028101546001600160a01b031683830152600381018054835181870281018701909452808452939491936060860193928301828280156102a857602002820191906000526020600020905b81546001600160a01b0316815260019091019060200180831161028a575b505050505081526020016004820180546102c190610d3c565b80601f01602080910402602001604051908101604052809291908181526020018280546102ed90610d3c565b801561033a5780601f1061030f5761010080835404028352916020019161033a565b820191906000526020600020905b81548152906001019060200180831161031d57829003601f168201915b5050505050815250508152602001906001019061020d565b505050509050919050565b7ff0c57e16840df040f15088dc2f81fe391c3923bec73e23a9662efc9c229c6a008054600160401b810460ff16159067ffffffffffffffff166000811580156103a35750825b905060008267ffffffffffffffff1660011480156103c05750303b155b9050811580156103ce575080155b156103ec5760405163f92ee8a960e01b815260040160405180910390fd5b845467ffffffffffffffff19166001178555831561041657845460ff60401b1916600160401b1785555b61041f336107b5565b61042888610505565b6104318761048a565b61043a8661059e565b831561048057845460ff60401b19168555604051600181527fc7f505b2f371ae2175ee4913f4499e1f2633a7b5936321eed1cdaeb6115181d29060200160405180910390a15b5050505050505050565b806001600160a01b0381166104b25760405163d92e233d60e01b815260040160405180910390fd5b6104ba6107c6565b600180546001600160a01b0319166001600160a01b0384169081179091556040517f2921f72f5586ae66340225bd63c5e912305341e197c425ed60c008192ea4d47a90600090a25050565b806001600160a01b03811661052d5760405163d92e233d60e01b815260040160405180910390fd5b6105356107c6565b600080546001600160a01b0319166001600160a01b0384169081179091556040519081527fcb0aeffe884eb88fb2a31a2f3e4bd1d2763bdee48ba93b28c6e87501228cf7439060200160405180910390a15050565b6105926107c6565b61059c6000610821565b565b6105a66107c6565b60028190556040518181527ffa7987995fa0b05b25b994a66186f61818446c5c17fbb863f0145178fd4b373e9060200160405180910390a150565b6105e96107c6565b6001600160a01b03811661061857604051631e4fbdf760e01b8152600060048201526024015b60405180910390fd5b61062181610821565b50565b60006106336060850185610d76565b905090506000816002546106479190610ddd565b600154600054919250610669916001600160a01b039081169133911684610892565b6106796060860160408701610afb565b6001600160a01b031663cada1089338686896040518563ffffffff1660e01b81526004016106aa9493929190610f61565b600060405180830381600087803b1580156106c457600080fd5b505af11580156106d8573d6000803e3d6000fd5b5050505060005b8281101561076c57600360006106f86060890189610d76565b8481811061070857610708610fa3565b905060200201602081019061071d9190610afb565b6001600160a01b031681526020808201929092526040016000908120805460018101825590825291902087916005020161075782826111bc565b505080806107649061126b565b9150506106df565b50336001600160a01b03167fd9b42bb096f4c62dfc76023d46bac952fbc443c1f23189362ce518e507e5d5ab866040516107a69190611284565b60405180910390a25050505050565b6107bd6108f2565b6106218161093b565b336107f87f9016d09d72d40fdae2fd8ceac6b6234c7706214fd39c1cd1e609a0528c199300546001600160a01b031690565b6001600160a01b03161461059c5760405163118cdaa760e01b815233600482015260240161060f565b7f9016d09d72d40fdae2fd8ceac6b6234c7706214fd39c1cd1e609a0528c19930080546001600160a01b031981166001600160a01b03848116918217845560405192169182907f8be0079c531659141344cd1fd0a4f28419497f9722a3daafe3b4186f6b6457e090600090a3505050565b604080516001600160a01b0385811660248301528416604482015260648082018490528251808303909101815260849091019091526020810180516001600160e01b03166323b872dd60e01b1790526108ec908590610943565b50505050565b7ff0c57e16840df040f15088dc2f81fe391c3923bec73e23a9662efc9c229c6a0054600160401b900460ff1661059c57604051631afcd79f60e31b815260040160405180910390fd5b6105e96108f2565b60006109586001600160a01b038416836109ab565b9050805160001415801561097d57508080602001905181019061097b9190611297565b155b156109a657604051635274afe760e01b81526001600160a01b038416600482015260240161060f565b505050565b60606109b9838360006109c2565b90505b92915050565b6060814710156109e75760405163cd78605960e01b815230600482015260240161060f565b600080856001600160a01b03168486604051610a0391906112b9565b60006040518083038185875af1925050503d8060008114610a40576040519150601f19603f3d011682016040523d82523d6000602084013e610a45565b606091505b5091509150610a55868383610a61565b925050505b9392505050565b606082610a7657610a7182610abd565b610a5a565b8151158015610a8d57506001600160a01b0384163b155b15610ab657604051639996b31560e01b81526001600160a01b038516600482015260240161060f565b5080610a5a565b805115610acd5780518082602001fd5b604051630a12f52160e11b815260040160405180910390fd5b6001600160a01b038116811461062157600080fd5b600060208284031215610b0d57600080fd5b8135610a5a81610ae6565b60005b83811015610b33578181015183820152602001610b1b565b50506000910152565b60008151808452610b54816020860160208601610b18565b601f01601f19169290920160200192915050565b60006020808301818452808551808352604092508286019150828160051b8701018488016000805b84811015610c3457898403603f190186528251805185528881015189860152878101516001600160a01b039081168987015260608083015160a0918801829052805191880182905260c0880192908c019190865b82811015610c0257835182168552938d0193928d0192600101610be4565b5050505060808083015192508682038188015250610c208183610b3c565b978a01979550505091870191600101610b90565b50919998505050505050505050565b600080600060608486031215610c5857600080fd5b8335610c6381610ae6565b92506020840135610c7381610ae6565b929592945050506040919091013590565b600060208284031215610c9657600080fd5b5035919050565b600080600060408486031215610cb257600080fd5b833567ffffffffffffffff80821115610cca57600080fd5b9085019060a08288031215610cde57600080fd5b90935060208501359080821115610cf457600080fd5b818601915086601f830112610d0857600080fd5b813581811115610d1757600080fd5b876020828501011115610d2957600080fd5b6020830194508093505050509250925092565b600181811c90821680610d5057607f821691505b602082108103610d7057634e487b7160e01b600052602260045260246000fd5b50919050565b6000808335601e19843603018112610d8d57600080fd5b83018035915067ffffffffffffffff821115610da857600080fd5b6020019150600581901b3603821315610dc057600080fd5b9250929050565b634e487b7160e01b600052601160045260246000fd5b80820281158282048414176109bc576109bc610dc7565b81835281816020850137506000828201602090810191909152601f909101601f19169091010190565b8183526000602080850194508260005b85811015610e5b578135610e4081610ae6565b6001600160a01b031687529582019590820190600101610e2d565b509495945050505050565b6000808335601e19843603018112610e7d57600080fd5b830160208101925035905067ffffffffffffffff811115610e9d57600080fd5b803603821315610dc057600080fd5b803582526020810135602083015260006040820135610eca81610ae6565b6001600160a01b03166040840152606082013536839003601e19018112610ef057600080fd5b820160208101903567ffffffffffffffff811115610f0d57600080fd5b8060051b3603821315610f1f57600080fd5b60a06060860152610f3460a086018284610e1d565b915050610f446080840184610e66565b8583036080870152610f57838284610df4565b9695505050505050565b6001600160a01b0385168152606060208201819052600090610f869083018587610df4565b8281036040840152610f988185610eac565b979650505050505050565b634e487b7160e01b600052603260045260246000fd5b634e487b7160e01b600052604160045260246000fd5b5b81811015610fe45760008155600101610fd0565b5050565b67ffffffffffffffff83111561100057611000610fb9565b600160401b83111561101457611014610fb9565b80548382558084101561103a57816000526020600020611038828201868301610fcf565b505b50818160005260208060002060005b8681101561106c57833561105c81610ae6565b8282015592820192600101611049565b50505050505050565b6000808335601e1984360301811261108c57600080fd5b83018035915067ffffffffffffffff8211156110a757600080fd5b602001915036819003821315610dc057600080fd5b601f8211156109a657806000526020600020601f840160051c810160208510156110e35750805b6110f5601f850160051c830182610fcf565b5050505050565b67ffffffffffffffff83111561111457611114610fb9565b611128836111228354610d3c565b836110bc565b6000601f84116001811461115c57600085156111445750838201355b600019600387901b1c1916600186901b1783556110f5565b600083815260209020601f19861690835b8281101561118d578685013582556020948501946001909201910161116d565b50868210156111aa5760001960f88860031b161c19848701351681555b505060018560011b0183555050505050565b81358155602082013560018201556002810160408301356111dc81610ae6565b81546001600160a01b0319166001600160a01b0391909116179055606082013536839003601e1901811261120f57600080fd5b8201803567ffffffffffffffff81111561122857600080fd5b6020820191508060051b360382131561124057600080fd5b61124e818360038601610fe8565b505061125d6080830183611075565b6108ec8183600486016110fc565b60006001820161127d5761127d610dc7565b5060010190565b6020815260006109b96020830184610eac565b6000602082840312156112a957600080fd5b81518015158114610a5a57600080fd5b600082516112cb818460208701610b18565b919091019291505056fea2646970667358221220124f8d2e72b401bb1337c1b54bb7de6ddc94b2b3a6b1144edfc875c24dba6d3964736f6c63430008140033","linkReferences":{}},"methodIdentifiers":{"createPromo((uint256,uint256,address,address[],string),string)":"fb6223ac","getAvailablePromotions(address)":"0be270fe","getPaymentRecipientAddress()":"44680c86","getPaymentTokenAddress()":"dea182c1","getPromoCreationPrice()":"d412e607","initialize(address,address,uint256)":"1794bb3c","owner()":"8da5cb5b","renounceOwnership()":"715018a6","setPaymentRecipient(address)":"2983c4b8","setPaymentToken(address)":"6a326ab1","setPromoCreationPrice(uint256)":"7f753c6f","transferOwnership(address)":"f2fde38b"},"id":68}