{
  "abi": [
    {
      "inputs": [],
      "stateMutability": "nonpayable",
      "type": "constructor"
    },
    {
      "inputs": [
        {
          "internalType": "address",
          "name": "target",
          "type": "address"
        }
      ],
      "name": "AddressEmptyCode",
      "type": "error"
    },
    {
      "inputs": [
        {
          "internalType": "address",
          "name": "account",
          "type": "address"
        }
      ],
      "name": "AddressInsufficientBalance",
      "type": "error"
    },
    {
      "inputs": [],
      "name": "FailedInnerCall",
      "type": "error"
    },
    {
      "inputs": [],
      "name": "InvalidInitialization",
      "type": "error"
    },
    {
      "inputs": [],
      "name": "NotInitializing",
      "type": "error"
    },
    {
      "inputs": [
        {
          "internalType": "address",
          "name": "owner",
          "type": "address"
        }
      ],
      "name": "OwnableInvalidOwner",
      "type": "error"
    },
    {
      "inputs": [
        {
          "internalType": "address",
          "name": "account",
          "type": "address"
        }
      ],
      "name": "OwnableUnauthorizedAccount",
      "type": "error"
    },
    {
      "inputs": [
        {
          "internalType": "address",
          "name": "token",
          "type": "address"
        }
      ],
      "name": "SafeERC20FailedOperation",
      "type": "error"
    },
    {
      "inputs": [],
      "name": "ZeroAddress",
      "type": "error"
    },
    {
      "anonymous": false,
      "inputs": [
        {
          "indexed": false,
          "internalType": "uint64",
          "name": "version",
          "type": "uint64"
        }
      ],
      "name": "Initialized",
      "type": "event"
    },
    {
      "anonymous": false,
      "inputs": [
        {
          "indexed": true,
          "internalType": "address",
          "name": "previousOwner",
          "type": "address"
        },
        {
          "indexed": true,
          "internalType": "address",
          "name": "newOwner",
          "type": "address"
        }
      ],
      "name": "OwnershipTransferred",
      "type": "event"
    },
    {
      "anonymous": false,
      "inputs": [
        {
          "indexed": false,
          "internalType": "address",
          "name": "recipient",
          "type": "address"
        }
      ],
      "name": "PaymentRecipientSet",
      "type": "event"
    },
    {
      "anonymous": false,
      "inputs": [
        {
          "indexed": false,
          "internalType": "address",
          "name": "token",
          "type": "address"
        }
      ],
      "name": "PaymentTokenSet",
      "type": "event"
    },
    {
      "anonymous": false,
      "inputs": [
        {
          "indexed": false,
          "internalType": "uint256",
          "name": "price",
          "type": "uint256"
        }
      ],
      "name": "PromoCreationPriceSet",
      "type": "event"
    },
    {
      "anonymous": false,
      "inputs": [
        {
          "indexed": true,
          "internalType": "address",
          "name": "marketer",
          "type": "address"
        },
        {
          "components": [
            {
              "internalType": "uint256",
              "name": "startTime",
              "type": "uint256"
            },
            {
              "internalType": "uint256",
              "name": "endTime",
              "type": "uint256"
            },
            {
              "internalType": "address",
              "name": "promoAddr",
              "type": "address"
            },
            {
              "internalType": "address[]",
              "name": "streams",
              "type": "address[]"
            },
            {
              "internalType": "string",
              "name": "description",
              "type": "string"
            }
          ],
          "indexed": false,
          "internalType": "struct Promotion",
          "name": "promotion",
          "type": "tuple"
        }
      ],
      "name": "PromotionCreated",
      "type": "event"
    },
    {
      "inputs": [
        {
          "components": [
            {
              "internalType": "uint256",
              "name": "startTime",
              "type": "uint256"
            },
            {
              "internalType": "uint256",
              "name": "endTime",
              "type": "uint256"
            },
            {
              "internalType": "address",
              "name": "promoAddr",
              "type": "address"
            },
            {
              "internalType": "address[]",
              "name": "streams",
              "type": "address[]"
            },
            {
              "internalType": "string",
              "name": "description",
              "type": "string"
            }
          ],
          "internalType": "struct Promotion",
          "name": "promotion",
          "type": "tuple"
        },
        {
          "internalType": "string",
          "name": "uri",
          "type": "string"
        }
      ],
      "name": "createPromo",
      "outputs": [],
      "stateMutability": "nonpayable",
      "type": "function"
    },
    {
      "inputs": [
        {
          "internalType": "address",
          "name": "stream",
          "type": "address"
        }
      ],
      "name": "getAvailablePromotions",
      "outputs": [
        {
          "components": [
            {
              "internalType": "uint256",
              "name": "startTime",
              "type": "uint256"
            },
            {
              "internalType": "uint256",
              "name": "endTime",
              "type": "uint256"
            },
            {
              "internalType": "address",
              "name": "promoAddr",
              "type": "address"
            },
            {
              "internalType": "address[]",
              "name": "streams",
              "type": "address[]"
            },
            {
              "internalType": "string",
              "name": "description",
              "type": "string"
            }
          ],
          "internalType": "struct Promotion[]",
          "name": "",
          "type": "tuple[]"
        }
      ],
      "stateMutability": "view",
      "type": "function"
    },
    {
      "inputs": [],
      "name": "getPaymentRecipientAddress",
      "outputs": [
        {
          "internalType": "address",
          "name": "",
          "type": "address"
        }
      ],
      "stateMutability": "view",
      "type": "function"
    },
    {
      "inputs": [],
      "name": "getPaymentTokenAddress",
      "outputs": [
        {
          "internalType": "address",
          "name": "",
          "type": "address"
        }
      ],
      "stateMutability": "view",
      "type": "function"
    },
    {
      "inputs": [],
      "name": "getPromoCreationPrice",
      "outputs": [
        {
          "internalType": "uint256",
          "name": "",
          "type": "uint256"
        }
      ],
      "stateMutability": "view",
      "type": "function"
    },
    {
      "inputs": [
        {
          "internalType": "address",
          "name": "paymentToken",
          "type": "address"
        },
        {
          "internalType": "address",
          "name": "paymentRecipient",
          "type": "address"
        },
        {
          "internalType": "uint256",
          "name": "promoCreationPrice",
          "type": "uint256"
        }
      ],
      "name": "initialize",
      "outputs": [],
      "stateMutability": "nonpayable",
      "type": "function"
    },
    {
      "inputs": [],
      "name": "owner",
      "outputs": [
        {
          "internalType": "address",
          "name": "",
          "type": "address"
        }
      ],
      "stateMutability": "view",
      "type": "function"
    },
    {
      "inputs": [],
      "name": "renounceOwnership",
      "outputs": [],
      "stateMutability": "nonpayable",
      "type": "function"
    },
    {
      "inputs": [
        {
          "internalType": "address",
          "name": "recipient",
          "type": "address"
        }
      ],
      "name": "setPaymentRecipient",
      "outputs": [],
      "stateMutability": "nonpayable",
      "type": "function"
    },
    {
      "inputs": [
        {
          "internalType": "address",
          "name": "token",
          "type": "address"
        }
      ],
      "name": "setPaymentToken",
      "outputs": [],
      "stateMutability": "nonpayable",
      "type": "function"
    },
    {
      "inputs": [
        {
          "internalType": "uint256",
          "name": "price",
          "type": "uint256"
        }
      ],
      "name": "setPromoCreationPrice",
      "outputs": [],
      "stateMutability": "nonpayable",
      "type": "function"
    },
    {
      "inputs": [
        {
          "internalType": "address",
          "name": "newOwner",
          "type": "address"
        }
      ],
      "name": "transferOwnership",
      "outputs": [],
      "stateMutability": "nonpayable",
      "type": "function"
    }
  ],
  "bytecode": {
    "object": "0x608060405234801561001057600080fd5b5061001961001e565b6100d0565b7ff0c57e16840df040f15088dc2f81fe391c3923bec73e23a9662efc9c229c6a00805468010000000000000000900460ff161561006e5760405163f92ee8a960e01b815260040160405180910390fd5b80546001600160401b03908116146100cd5780546001600160401b0319166001600160401b0390811782556040519081527fc7f505b2f371ae2175ee4913f4499e1f2633a7b5936321eed1cdaeb6115181d29060200160405180910390a15b50565b61130f806100df6000396000f3fe608060405234801561001057600080fd5b50600436106100b45760003560e01c80637f753c6f116100715780637f753c6f1461014a5780638da5cb5b1461015d578063d412e6071461018d578063dea182c11461019e578063f2fde38b146101af578063fb6223ac146101c257600080fd5b80630be270fe146100b95780631794bb3c146100e25780632983c4b8146100f757806344680c861461010a5780636a326ab11461012f578063715018a614610142575b600080fd5b6100cc6100c7366004610aff565b6101d5565b6040516100d99190610b6c565b60405180910390f35b6100f56100f0366004610c47565b61035d565b005b6100f5610105366004610aff565b61048a565b6001546001600160a01b03165b6040516001600160a01b0390911681526020016100d9565b6100f561013d366004610aff565b610510565b6100f561058e565b6100f5610158366004610c88565b6105a2565b7f9016d09d72d40fdae2fd8ceac6b6234c7706214fd39c1cd1e609a0528c199300546001600160a01b0316610117565b6002546040519081526020016100d9565b6000546001600160a01b0316610117565b6100f56101bd366004610aff565b6105e5565b6100f56101d0366004610ca1565b610628565b6001600160a01b0381166000908152600360209081526040808320805482518185028101850190935280835260609492939192909184015b828210156103525760008481526020908190206040805160a081018252600586029092018054835260018101548385015260028101546001600160a01b031683830152600381018054835181870281018701909452808452939491936060860193928301828280156102a857602002820191906000526020600020905b81546001600160a01b0316815260019091019060200180831161028a575b505050505081526020016004820180546102c190610d40565b80601f01602080910402602001604051908101604052809291908181526020018280546102ed90610d40565b801561033a5780601f1061030f5761010080835404028352916020019161033a565b820191906000526020600020905b81548152906001019060200180831161031d57829003601f168201915b5050505050815250508152602001906001019061020d565b505050509050919050565b7ff0c57e16840df040f15088dc2f81fe391c3923bec73e23a9662efc9c229c6a008054600160401b810460ff16159067ffffffffffffffff166000811580156103a35750825b905060008267ffffffffffffffff1660011480156103c05750303b155b9050811580156103ce575080155b156103ec5760405163f92ee8a960e01b815260040160405180910390fd5b845467ffffffffffffffff19166001178555831561041657845460ff60401b1916600160401b1785555b61041f336107b9565b61042888610510565b6104318761048a565b61043a866105a2565b831561048057845460ff60401b19168555604051600181527fc7f505b2f371ae2175ee4913f4499e1f2633a7b5936321eed1cdaeb6115181d29060200160405180910390a15b5050505050505050565b806001600160a01b0381166104b25760405163d92e233d60e01b815260040160405180910390fd5b6104ba6107ca565b600180546001600160a01b0319166001600160a01b0384169081179091556040519081527f2921f72f5586ae66340225bd63c5e912305341e197c425ed60c008192ea4d47a906020015b60405180910390a15050565b806001600160a01b0381166105385760405163d92e233d60e01b815260040160405180910390fd5b6105406107ca565b600080546001600160a01b0319166001600160a01b0384169081179091556040519081527fcb0aeffe884eb88fb2a31a2f3e4bd1d2763bdee48ba93b28c6e87501228cf74390602001610504565b6105966107ca565b6105a06000610825565b565b6105aa6107ca565b60028190556040518181527ffa7987995fa0b05b25b994a66186f61818446c5c17fbb863f0145178fd4b373e9060200160405180910390a150565b6105ed6107ca565b6001600160a01b03811661061c57604051631e4fbdf760e01b8152600060048201526024015b60405180910390fd5b61062581610825565b50565b60006106376060850185610d7a565b9050905060008160025461064b9190610de1565b60015460005491925061066d916001600160a01b039081169133911684610896565b61067d6060860160408701610aff565b6001600160a01b031663cada1089338686896040518563ffffffff1660e01b81526004016106ae9493929190610f65565b600060405180830381600087803b1580156106c857600080fd5b505af11580156106dc573d6000803e3d6000fd5b5050505060005b8281101561077057600360006106fc6060890189610d7a565b8481811061070c5761070c610fa7565b90506020020160208101906107219190610aff565b6001600160a01b031681526020808201929092526040016000908120805460018101825590825291902087916005020161075b82826111c0565b505080806107689061126f565b9150506106e3565b50336001600160a01b03167fd9b42bb096f4c62dfc76023d46bac952fbc443c1f23189362ce518e507e5d5ab866040516107aa9190611288565b60405180910390a25050505050565b6107c16108f6565b6106258161093f565b336107fc7f9016d09d72d40fdae2fd8ceac6b6234c7706214fd39c1cd1e609a0528c199300546001600160a01b031690565b6001600160a01b0316146105a05760405163118cdaa760e01b8152336004820152602401610613565b7f9016d09d72d40fdae2fd8ceac6b6234c7706214fd39c1cd1e609a0528c19930080546001600160a01b031981166001600160a01b03848116918217845560405192169182907f8be0079c531659141344cd1fd0a4f28419497f9722a3daafe3b4186f6b6457e090600090a3505050565b604080516001600160a01b0385811660248301528416604482015260648082018490528251808303909101815260849091019091526020810180516001600160e01b03166323b872dd60e01b1790526108f0908590610947565b50505050565b7ff0c57e16840df040f15088dc2f81fe391c3923bec73e23a9662efc9c229c6a0054600160401b900460ff166105a057604051631afcd79f60e31b815260040160405180910390fd5b6105ed6108f6565b600061095c6001600160a01b038416836109af565b9050805160001415801561098157508080602001905181019061097f919061129b565b155b156109aa57604051635274afe760e01b81526001600160a01b0384166004820152602401610613565b505050565b60606109bd838360006109c6565b90505b92915050565b6060814710156109eb5760405163cd78605960e01b8152306004820152602401610613565b600080856001600160a01b03168486604051610a0791906112bd565b60006040518083038185875af1925050503d8060008114610a44576040519150601f19603f3d011682016040523d82523d6000602084013e610a49565b606091505b5091509150610a59868383610a65565b925050505b9392505050565b606082610a7a57610a7582610ac1565b610a5e565b8151158015610a9157506001600160a01b0384163b155b15610aba57604051639996b31560e01b81526001600160a01b0385166004820152602401610613565b5080610a5e565b805115610ad15780518082602001fd5b604051630a12f52160e11b815260040160405180910390fd5b6001600160a01b038116811461062557600080fd5b600060208284031215610b1157600080fd5b8135610a5e81610aea565b60005b83811015610b37578181015183820152602001610b1f565b50506000910152565b60008151808452610b58816020860160208601610b1c565b601f01601f19169290920160200192915050565b60006020808301818452808551808352604092508286019150828160051b8701018488016000805b84811015610c3857898403603f190186528251805185528881015189860152878101516001600160a01b039081168987015260608083015160a0918801829052805191880182905260c0880192908c019190865b82811015610c0657835182168552938d0193928d0192600101610be8565b5050505060808083015192508682038188015250610c248183610b40565b978a01979550505091870191600101610b94565b50919998505050505050505050565b600080600060608486031215610c5c57600080fd5b8335610c6781610aea565b92506020840135610c7781610aea565b929592945050506040919091013590565b600060208284031215610c9a57600080fd5b5035919050565b600080600060408486031215610cb657600080fd5b833567ffffffffffffffff80821115610cce57600080fd5b9085019060a08288031215610ce257600080fd5b90935060208501359080821115610cf857600080fd5b818601915086601f830112610d0c57600080fd5b813581811115610d1b57600080fd5b876020828501011115610d2d57600080fd5b6020830194508093505050509250925092565b600181811c90821680610d5457607f821691505b602082108103610d7457634e487b7160e01b600052602260045260246000fd5b50919050565b6000808335601e19843603018112610d9157600080fd5b83018035915067ffffffffffffffff821115610dac57600080fd5b6020019150600581901b3603821315610dc457600080fd5b9250929050565b634e487b7160e01b600052601160045260246000fd5b80820281158282048414176109c0576109c0610dcb565b81835281816020850137506000828201602090810191909152601f909101601f19169091010190565b8183526000602080850194508260005b85811015610e5f578135610e4481610aea565b6001600160a01b031687529582019590820190600101610e31565b509495945050505050565b6000808335601e19843603018112610e8157600080fd5b830160208101925035905067ffffffffffffffff811115610ea157600080fd5b803603821315610dc457600080fd5b803582526020810135602083015260006040820135610ece81610aea565b6001600160a01b03166040840152606082013536839003601e19018112610ef457600080fd5b820160208101903567ffffffffffffffff811115610f1157600080fd5b8060051b3603821315610f2357600080fd5b60a06060860152610f3860a086018284610e21565b915050610f486080840184610e6a565b8583036080870152610f5b838284610df8565b9695505050505050565b6001600160a01b0385168152606060208201819052600090610f8a9083018587610df8565b8281036040840152610f9c8185610eb0565b979650505050505050565b634e487b7160e01b600052603260045260246000fd5b634e487b7160e01b600052604160045260246000fd5b5b81811015610fe85760008155600101610fd4565b5050565b67ffffffffffffffff83111561100457611004610fbd565b600160401b83111561101857611018610fbd565b80548382558084101561103e5781600052602060002061103c828201868301610fd3565b505b50818160005260208060002060005b8681101561107057833561106081610aea565b828201559282019260010161104d565b50505050505050565b6000808335601e1984360301811261109057600080fd5b83018035915067ffffffffffffffff8211156110ab57600080fd5b602001915036819003821315610dc457600080fd5b601f8211156109aa57806000526020600020601f840160051c810160208510156110e75750805b6110f9601f850160051c830182610fd3565b5050505050565b67ffffffffffffffff83111561111857611118610fbd565b61112c836111268354610d40565b836110c0565b6000601f84116001811461116057600085156111485750838201355b600019600387901b1c1916600186901b1783556110f9565b600083815260209020601f19861690835b828110156111915786850135825560209485019460019092019101611171565b50868210156111ae5760001960f88860031b161c19848701351681555b505060018560011b0183555050505050565b81358155602082013560018201556002810160408301356111e081610aea565b81546001600160a01b0319166001600160a01b0391909116179055606082013536839003601e1901811261121357600080fd5b8201803567ffffffffffffffff81111561122c57600080fd5b6020820191508060051b360382131561124457600080fd5b611252818360038601610fec565b50506112616080830183611079565b6108f0818360048601611100565b60006001820161128157611281610dcb565b5060010190565b6020815260006109bd6020830184610eb0565b6000602082840312156112ad57600080fd5b81518015158114610a5e57600080fd5b600082516112cf818460208701610b1c565b919091019291505056fea26469706673582212205e796b75d07a4f321a52b65ffbac88dc7e6459ae51a60ef8d28b8205b7a1712a64736f6c63430008140033",
    "linkReferences": {}
  },
  "methodIdentifiers": {
    "createPromo((uint256,uint256,address,address[],string),string)": "fb6223ac",
    "getAvailablePromotions(address)": "0be270fe",
    "getPaymentRecipientAddress()": "44680c86",
    "getPaymentTokenAddress()": "dea182c1",
    "getPromoCreationPrice()": "d412e607",
    "initialize(address,address,uint256)": "1794bb3c",
    "owner()": "8da5cb5b",
    "renounceOwnership()": "715018a6",
    "setPaymentRecipient(address)": "2983c4b8",
    "setPaymentToken(address)": "6a326ab1",
    "setPromoCreationPrice(uint256)": "7f753c6f",
    "transferOwnership(address)": "f2fde38b"
  },
  "id": 56
}