{
  "abi": [
    {
      "inputs": [],
      "stateMutability": "nonpayable",
      "type": "constructor"
    },
    {
      "inputs": [
        {
          "internalType": "address",
          "name": "target",
          "type": "address"
        }
      ],
      "name": "AddressEmptyCode",
      "type": "error"
    },
    {
      "inputs": [
        {
          "internalType": "address",
          "name": "account",
          "type": "address"
        }
      ],
      "name": "AddressInsufficientBalance",
      "type": "error"
    },
    {
      "inputs": [],
      "name": "ERC1167FailedCreateClone",
      "type": "error"
    },
    {
      "inputs": [],
      "name": "FailedInnerCall",
      "type": "error"
    },
    {
      "inputs": [],
      "name": "InvalidInitialization",
      "type": "error"
    },
    {
      "inputs": [],
      "name": "InvalidTimeSettings",
      "type": "error"
    },
    {
      "inputs": [],
      "name": "NotInitializing",
      "type": "error"
    },
    {
      "inputs": [
        {
          "internalType": "address",
          "name": "owner",
          "type": "address"
        }
      ],
      "name": "OwnableInvalidOwner",
      "type": "error"
    },
    {
      "inputs": [
        {
          "internalType": "address",
          "name": "account",
          "type": "address"
        }
      ],
      "name": "OwnableUnauthorizedAccount",
      "type": "error"
    },
    {
      "inputs": [],
      "name": "ReentrancyGuardReentrantCall",
      "type": "error"
    },
    {
      "inputs": [
        {
          "internalType": "address",
          "name": "token",
          "type": "address"
        }
      ],
      "name": "SafeERC20FailedOperation",
      "type": "error"
    },
    {
      "inputs": [],
      "name": "SaleIsEnded",
      "type": "error"
    },
    {
      "inputs": [],
      "name": "SaleShouldBeActive",
      "type": "error"
    },
    {
      "inputs": [],
      "name": "SaleShouldEnd",
      "type": "error"
    },
    {
      "inputs": [],
      "name": "YouHaveAlreadyPurchasedTicket",
      "type": "error"
    },
    {
      "inputs": [],
      "name": "ZeroAddress",
      "type": "error"
    },
    {
      "anonymous": false,
      "inputs": [
        {
          "indexed": false,
          "internalType": "uint64",
          "name": "version",
          "type": "uint64"
        }
      ],
      "name": "Initialized",
      "type": "event"
    },
    {
      "anonymous": false,
      "inputs": [
        {
          "indexed": true,
          "internalType": "address",
          "name": "previousOwner",
          "type": "address"
        },
        {
          "indexed": true,
          "internalType": "address",
          "name": "newOwner",
          "type": "address"
        }
      ],
      "name": "OwnershipTransferred",
      "type": "event"
    },
    {
      "anonymous": false,
      "inputs": [
        {
          "indexed": true,
          "internalType": "address",
          "name": "sender",
          "type": "address"
        },
        {
          "indexed": false,
          "internalType": "uint256",
          "name": "tokenId",
          "type": "uint256"
        },
        {
          "indexed": false,
          "internalType": "uint256",
          "name": "price",
          "type": "uint256"
        }
      ],
      "name": "Refund",
      "type": "event"
    },
    {
      "anonymous": false,
      "inputs": [
        {
          "indexed": true,
          "internalType": "address",
          "name": "streamer",
          "type": "address"
        },
        {
          "indexed": false,
          "internalType": "uint256",
          "name": "protocolFee",
          "type": "uint256"
        },
        {
          "components": [
            {
              "internalType": "uint256",
              "name": "startTime",
              "type": "uint256"
            },
            {
              "internalType": "uint256",
              "name": "endTime",
              "type": "uint256"
            },
            {
              "internalType": "uint256",
              "name": "price",
              "type": "uint256"
            },
            {
              "internalType": "address",
              "name": "paymentToken",
              "type": "address"
            }
          ],
          "indexed": false,
          "internalType": "struct SaleParams",
          "name": "sale",
          "type": "tuple"
        },
        {
          "components": [
            {
              "internalType": "string",
              "name": "name",
              "type": "string"
            },
            {
              "internalType": "string",
              "name": "symbol",
              "type": "string"
            },
            {
              "internalType": "string",
              "name": "baseUri",
              "type": "string"
            },
            {
              "internalType": "string",
              "name": "contractUri",
              "type": "string"
            },
            {
              "internalType": "uint16",
              "name": "cap",
              "type": "uint16"
            }
          ],
          "indexed": false,
          "internalType": "struct TicketParams",
          "name": "ticketParams",
          "type": "tuple"
        }
      ],
      "name": "SaleAdded",
      "type": "event"
    },
    {
      "anonymous": false,
      "inputs": [
        {
          "indexed": true,
          "internalType": "address",
          "name": "buyer",
          "type": "address"
        },
        {
          "indexed": true,
          "internalType": "address",
          "name": "ticket",
          "type": "address"
        },
        {
          "indexed": false,
          "internalType": "uint256",
          "name": "tokenId",
          "type": "uint256"
        },
        {
          "indexed": false,
          "internalType": "uint256",
          "name": "price",
          "type": "uint256"
        },
        {
          "indexed": false,
          "internalType": "uint256",
          "name": "timestamp",
          "type": "uint256"
        }
      ],
      "name": "Sold",
      "type": "event"
    },
    {
      "anonymous": false,
      "inputs": [
        {
          "indexed": true,
          "internalType": "address",
          "name": "owner",
          "type": "address"
        },
        {
          "indexed": false,
          "internalType": "uint256",
          "name": "amount",
          "type": "uint256"
        },
        {
          "indexed": false,
          "internalType": "uint256",
          "name": "fee",
          "type": "uint256"
        }
      ],
      "name": "Withdrawn",
      "type": "event"
    },
    {
      "inputs": [],
      "name": "buy",
      "outputs": [],
      "stateMutability": "nonpayable",
      "type": "function"
    },
    {
      "inputs": [],
      "name": "getProtocolFee",
      "outputs": [
        {
          "internalType": "uint256",
          "name": "",
          "type": "uint256"
        }
      ],
      "stateMutability": "view",
      "type": "function"
    },
    {
      "inputs": [],
      "name": "getSaleParams",
      "outputs": [
        {
          "components": [
            {
              "internalType": "uint256",
              "name": "startTime",
              "type": "uint256"
            },
            {
              "internalType": "uint256",
              "name": "endTime",
              "type": "uint256"
            },
            {
              "internalType": "uint256",
              "name": "price",
              "type": "uint256"
            },
            {
              "internalType": "address",
              "name": "paymentToken",
              "type": "address"
            }
          ],
          "internalType": "struct SaleParams",
          "name": "",
          "type": "tuple"
        }
      ],
      "stateMutability": "view",
      "type": "function"
    },
    {
      "inputs": [],
      "name": "getTotalRaised",
      "outputs": [
        {
          "internalType": "uint256",
          "name": "",
          "type": "uint256"
        }
      ],
      "stateMutability": "view",
      "type": "function"
    },
    {
      "inputs": [
        {
          "internalType": "address",
          "name": "ticketImplementation",
          "type": "address"
        },
        {
          "internalType": "address",
          "name": "streamer",
          "type": "address"
        },
        {
          "internalType": "uint256",
          "name": "protocolFee",
          "type": "uint256"
        },
        {
          "internalType": "address",
          "name": "protocolFeeRecipient",
          "type": "address"
        },
        {
          "components": [
            {
              "internalType": "uint256",
              "name": "startTime",
              "type": "uint256"
            },
            {
              "internalType": "uint256",
              "name": "endTime",
              "type": "uint256"
            },
            {
              "internalType": "uint256",
              "name": "price",
              "type": "uint256"
            },
            {
              "internalType": "address",
              "name": "paymentToken",
              "type": "address"
            }
          ],
          "internalType": "struct SaleParams",
          "name": "sale",
          "type": "tuple"
        },
        {
          "components": [
            {
              "internalType": "string",
              "name": "name",
              "type": "string"
            },
            {
              "internalType": "string",
              "name": "symbol",
              "type": "string"
            },
            {
              "internalType": "string",
              "name": "baseUri",
              "type": "string"
            },
            {
              "internalType": "string",
              "name": "contractUri",
              "type": "string"
            },
            {
              "internalType": "uint16",
              "name": "cap",
              "type": "uint16"
            }
          ],
          "internalType": "struct TicketParams",
          "name": "ticketParams",
          "type": "tuple"
        }
      ],
      "name": "initialize",
      "outputs": [
        {
          "internalType": "address",
          "name": "",
          "type": "address"
        }
      ],
      "stateMutability": "nonpayable",
      "type": "function"
    },
    {
      "inputs": [],
      "name": "owner",
      "outputs": [
        {
          "internalType": "address",
          "name": "",
          "type": "address"
        }
      ],
      "stateMutability": "view",
      "type": "function"
    },
    {
      "inputs": [
        {
          "internalType": "uint256",
          "name": "tokenId",
          "type": "uint256"
        }
      ],
      "name": "refund",
      "outputs": [],
      "stateMutability": "nonpayable",
      "type": "function"
    },
    {
      "inputs": [],
      "name": "renounceOwnership",
      "outputs": [],
      "stateMutability": "nonpayable",
      "type": "function"
    },
    {
      "inputs": [
        {
          "internalType": "address",
          "name": "newOwner",
          "type": "address"
        }
      ],
      "name": "transferOwnership",
      "outputs": [],
      "stateMutability": "nonpayable",
      "type": "function"
    },
    {
      "inputs": [],
      "name": "withdraw",
      "outputs": [],
      "stateMutability": "nonpayable",
      "type": "function"
    }
  ],
  "bytecode": {
    "object": "0x608060405234801561001057600080fd5b50600160005561001e610023565b6100d5565b7ff0c57e16840df040f15088dc2f81fe391c3923bec73e23a9662efc9c229c6a00805468010000000000000000900460ff16156100735760405163f92ee8a960e01b815260040160405180910390fd5b80546001600160401b03908116146100d25780546001600160401b0319166001600160401b0390811782556040519081527fc7f505b2f371ae2175ee4913f4499e1f2633a7b5936321eed1cdaeb6115181d29060200160405180910390a15b50565b6111b5806100e46000396000f3fe608060405234801561001057600080fd5b506004361061009e5760003560e01c80638da5cb5b116100665780638da5cb5b146101405780639f55029314610148578063a5a410311461015a578063a6f2ae3a14610162578063f2fde38b1461016a57600080fd5b8063278ecde1146100a35780633ccfd60b146100b8578063527203e3146100c0578063614d39491461010d578063715018a614610138575b600080fd5b6100b66100b1366004610da5565b61017d565b005b6100b66102b2565b6100c8610397565b60405161010491908151815260208083015190820152604080830151908201526060918201516001600160a01b03169181019190915260800190565b60405180910390f35b61012061011b366004610dd3565b610401565b6040516001600160a01b039091168152602001610104565b6100b661064a565b61012061065e565b6006545b604051908152602001610104565b60075461014c565b6100b661068c565b6100b6610178366004610e76565b610908565b600254421061019f57604051631f2c840d60e01b815260040160405180910390fd5b60408051608081018252600154815260025460208201526003549181018290526004546001600160a01b03166060820152600680549192916000906101e5908490610ea9565b9091555050600554604051632770a7eb60e21b8152336004820152602481018490526001600160a01b0390911690639dc29fac90604401600060405180830381600087803b15801561023657600080fd5b505af115801561024a573d6000803e3d6000fd5b5050506040820151606083015161026d92506001600160a01b031690339061094b565b6040808201518151848152602081019190915233917f73f04af9dcc582a923ec15d3eea990fe34adabfff2879e28d44572e01a54abb691015b60405180910390a25050565b6102ba6109af565b6002544210156102dd5760405163b3177b7b60e01b815260040160405180910390fd5b60006127106007546006546102f29190610ebc565b6102fc9190610ed3565b905060008160065461030e9190610ea9565b60085460045491925061032e916001600160a01b0390811691168461094b565b61034c61033961065e565b6004546001600160a01b0316908361094b565b61035461065e565b6001600160a01b03167f92ccf450a286a957af52509bc1c9939d1a6a481783e142e41e2499f0bb66ebc682846040516102a6929190918252602082015260400190565b6103cb604051806080016040528060008152602001600081526020016000815260200160006001600160a01b031681525090565b506040805160808101825260015481526002546020820152600354918101919091526004546001600160a01b0316606082015290565b7ff0c57e16840df040f15088dc2f81fe391c3923bec73e23a9662efc9c229c6a00805460009190600160401b810460ff16159067ffffffffffffffff16838115801561044a5750825b905060008267ffffffffffffffff1660011480156104675750303b155b905081158015610475575080155b156104935760405163f92ee8a960e01b815260040160405180910390fd5b845467ffffffffffffffff1916600117855583156104bd57845460ff60401b1916600160401b1785555b6104c68b6109e1565b6104cf886109f2565b8760016104dc8282610ef5565b50506001600160a01b0389166105055760405163d92e233d60e01b815260040160405180910390fd5b60078a9055600880546001600160a01b0319166001600160a01b038b1617905561052e8c610a3a565b600580546001600160a01b0319166001600160a01b03929092169182179055604051630215e73b60e21b81526308579cec90610570908a903090600401611068565b600060405180830381600087803b15801561058a57600080fd5b505af115801561059e573d6000803e3d6000fd5b505050508a6001600160a01b03167f89cf1238faafbc87b5f0517662b00d9f66e6389fdae77401d445c232930a4d998b8a8a6040516105df93929190611092565b60405180910390a26005546001600160a01b03169550831561063b57845460ff60401b19168555604051600181527fc7f505b2f371ae2175ee4913f4499e1f2633a7b5936321eed1cdaeb6115181d29060200160405180910390a15b50505050509695505050505050565b6106526109af565b61065c6000610aac565b565b7f9016d09d72d40fdae2fd8ceac6b6234c7706214fd39c1cd1e609a0528c199300546001600160a01b031690565b60015442108061069d575060025442115b156106bb5760405163449209df60e11b815260040160405180910390fd5b6106c3610b1d565b604080516080810182526001548152600254602082015260035481830152600480546001600160a01b03908116606084015260055493516370a0823160e01b815233928101929092529192909116906370a0823190602401602060405180830381865afa158015610738573d6000803e3d6000fd5b505050506040513d601f19601f8201168201806040525081019061075c91906110ec565b1561077a57604051630122572b60e71b815260040160405180910390fd5b8060400151600660008282546107909190611105565b9091555050604081015160608201516107b8916001600160a01b039091169033903090610b47565b6005546040516340d097c360e01b81523360048201526000916001600160a01b0316906340d097c3906024016020604051808303816000875af1158015610803573d6000803e3d6000fd5b505050506040513d601f19601f8201168201806040525081019061082791906110ec565b60608301516040516370a0823160e01b81523060048201529192506001600160a01b0316906370a0823190602401602060405180830381865afa158015610872573d6000803e3d6000fd5b505050506040513d601f19601f8201168201806040525081019061089691906110ec565b600654146108a6576108a6611118565b60055460408381015181518481526020810191909152428183015290516001600160a01b039092169133917f9be8a5ca22b7e6e81f04b5879f0248227bb770114291bd47dfaee4c3a82ad60e919081900360600190a3505061065c6001600055565b6109106109af565b6001600160a01b03811661093f57604051631e4fbdf760e01b8152600060048201526024015b60405180910390fd5b61094881610aac565b50565b6040516001600160a01b038381166024830152604482018390526109aa91859182169063a9059cbb906064015b604051602081830303815290604052915060e01b6020820180516001600160e01b038381831617835250505050610b86565b505050565b336109b861065e565b6001600160a01b03161461065c5760405163118cdaa760e01b8152336004820152602401610936565b6109e9610be9565b61094881610c32565b610a0181356020830135610c3a565b6000610a136080830160608401610e76565b6001600160a01b0316036109485760405163d92e233d60e01b815260040160405180910390fd5b6000763d602d80600a3d3981f3363d3d373d3d3d363d730000008260601b60e81c176000526e5af43d82803e903d91602b57fd5bf38260781b17602052603760096000f090506001600160a01b038116610aa7576040516330be1a3d60e21b815260040160405180910390fd5b919050565b7f9016d09d72d40fdae2fd8ceac6b6234c7706214fd39c1cd1e609a0528c19930080546001600160a01b031981166001600160a01b03848116918217845560405192169182907f8be0079c531659141344cd1fd0a4f28419497f9722a3daafe3b4186f6b6457e090600090a3505050565b600260005403610b4057604051633ee5aeb560e01b815260040160405180910390fd5b6002600055565b6040516001600160a01b038481166024830152838116604483015260648201839052610b809186918216906323b872dd90608401610978565b50505050565b6000610b9b6001600160a01b03841683610c6a565b90508051600014158015610bc0575080806020019051810190610bbe919061112e565b155b156109aa57604051635274afe760e01b81526001600160a01b0384166004820152602401610936565b7ff0c57e16840df040f15088dc2f81fe391c3923bec73e23a9662efc9c229c6a0054600160401b900460ff1661065c57604051631afcd79f60e31b815260040160405180910390fd5b610910610be9565b42821080610c485750818111155b15610c665760405163afe905a360e01b815260040160405180910390fd5b5050565b6060610c7883836000610c81565b90505b92915050565b606081471015610ca65760405163cd78605960e01b8152306004820152602401610936565b600080856001600160a01b03168486604051610cc29190611150565b60006040518083038185875af1925050503d8060008114610cff576040519150601f19603f3d011682016040523d82523d6000602084013e610d04565b606091505b5091509150610d14868383610d20565b925050505b9392505050565b606082610d3557610d3082610d7c565b610d19565b8151158015610d4c57506001600160a01b0384163b155b15610d7557604051639996b31560e01b81526001600160a01b0385166004820152602401610936565b5080610d19565b805115610d8c5780518082602001fd5b604051630a12f52160e11b815260040160405180910390fd5b600060208284031215610db757600080fd5b5035919050565b6001600160a01b038116811461094857600080fd5b600080600080600080868803610120811215610dee57600080fd5b8735610df981610dbe565b96506020880135610e0981610dbe565b9550604088013594506060880135610e2081610dbe565b93506080607f1982011215610e3457600080fd5b5060808701915061010087013567ffffffffffffffff811115610e5657600080fd5b870160a0818a031215610e6857600080fd5b809150509295509295509295565b600060208284031215610e8857600080fd5b8135610d1981610dbe565b634e487b7160e01b600052601160045260246000fd5b81810381811115610c7b57610c7b610e93565b8082028115828204841417610c7b57610c7b610e93565b600082610ef057634e487b7160e01b600052601260045260246000fd5b500490565b813581556020820135600182015560408201356002820155600381016060830135610f1f81610dbe565b81546001600160a01b0319166001600160a01b03919091161790555050565b6000808335601e19843603018112610f5557600080fd5b830160208101925035905067ffffffffffffffff811115610f7557600080fd5b803603821315610f8457600080fd5b9250929050565b81835281816020850137506000828201602090810191909152601f909101601f19169091010190565b6000610fc08283610f3e565b60a08552610fd260a086018284610f8b565b915050610fe26020840184610f3e565b8583036020870152610ff5838284610f8b565b925050506110066040840184610f3e565b8583036040870152611019838284610f8b565b9250505061102a6060840184610f3e565b858303606087015261103d838284610f8b565b92505050608083013561ffff811680821461105757600080fd5b608095909501949094529392505050565b60408152600061107b6040830185610fb4565b905060018060a01b03831660208301529392505050565b838152823560208201526020830135604082015260408301356060820152600060608401356110c081610dbe565b6001600160a01b0316608083015260c060a083018190526110e390830184610fb4565b95945050505050565b6000602082840312156110fe57600080fd5b5051919050565b80820180821115610c7b57610c7b610e93565b634e487b7160e01b600052600160045260246000fd5b60006020828403121561114057600080fd5b81518015158114610d1957600080fd5b6000825160005b818110156111715760208186018101518583015201611157565b50600092019182525091905056fea2646970667358221220cc62265ea2194392acca7274edb57affdcc0439db223d981cea5d30e611ac34364736f6c63430008140033",
    "linkReferences": {}
  },
  "methodIdentifiers": {
    "buy()": "a6f2ae3a",
    "getProtocolFee()": "a5a41031",
    "getSaleParams()": "527203e3",
    "getTotalRaised()": "9f550293",
    "initialize(address,address,uint256,address,(uint256,uint256,uint256,address),(string,string,string,string,uint16))": "614d3949",
    "owner()": "8da5cb5b",
    "refund(uint256)": "278ecde1",
    "renounceOwnership()": "715018a6",
    "transferOwnership(address)": "f2fde38b",
    "withdraw()": "3ccfd60b"
  },
  "id": 60
}