{"abi":[{"type":"constructor","inputs":[],"stateMutability":"nonpayable"},{"type":"function","name":"buy","inputs":[],"outputs":[],"stateMutability":"nonpayable"},{"type":"function","name":"getProtocolFee","inputs":[],"outputs":[{"name":"","type":"uint256","internalType":"uint256"}],"stateMutability":"view"},{"type":"function","name":"getSaleParams","inputs":[],"outputs":[{"name":"","type":"tuple","internalType":"struct SaleParams","components":[{"name":"startTime","type":"uint256","internalType":"uint256"},{"name":"endTime","type":"uint256","internalType":"uint256"},{"name":"price","type":"uint256","internalType":"uint256"},{"name":"paymentToken","type":"address","internalType":"address"}]}],"stateMutability":"view"},{"type":"function","name":"getTotalRaised","inputs":[],"outputs":[{"name":"","type":"uint256","internalType":"uint256"}],"stateMutability":"view"},{"type":"function","name":"initialize","inputs":[{"name":"ticketImplementation","type":"address","internalType":"address"},{"name":"streamer","type":"address","internalType":"address"},{"name":"protocolFee","type":"uint256","internalType":"uint256"},{"name":"protocolFeeRecipient","type":"address","internalType":"address"},{"name":"sale","type":"tuple","internalType":"struct SaleParams","components":[{"name":"startTime","type":"uint256","internalType":"uint256"},{"name":"endTime","type":"uint256","internalType":"uint256"},{"name":"price","type":"uint256","internalType":"uint256"},{"name":"paymentToken","type":"address","internalType":"address"}]},{"name":"ticketParams","type":"tuple","internalType":"struct TicketParams","components":[{"name":"name","type":"string","internalType":"string"},{"name":"symbol","type":"string","internalType":"string"},{"name":"baseUri","type":"string","internalType":"string"},{"name":"cap","type":"uint16","internalType":"uint16"}]}],"outputs":[{"name":"","type":"address","internalType":"address"}],"stateMutability":"nonpayable"},{"type":"function","name":"owner","inputs":[],"outputs":[{"name":"","type":"address","internalType":"address"}],"stateMutability":"view"},{"type":"function","name":"refund","inputs":[{"name":"tokenId","type":"uint256","internalType":"uint256"}],"outputs":[],"stateMutability":"nonpayable"},{"type":"function","name":"renounceOwnership","inputs":[],"outputs":[],"stateMutability":"nonpayable"},{"type":"function","name":"setTimeSettings","inputs":[{"name":"startTime","type":"uint256","internalType":"uint256"},{"name":"endTime","type":"uint256","internalType":"uint256"}],"outputs":[],"stateMutability":"nonpayable"},{"type":"function","name":"transferOwnership","inputs":[{"name":"newOwner","type":"address","internalType":"address"}],"outputs":[],"stateMutability":"nonpayable"},{"type":"function","name":"withdraw","inputs":[],"outputs":[],"stateMutability":"nonpayable"},{"type":"event","name":"Initialized","inputs":[{"name":"version","type":"uint64","indexed":false,"internalType":"uint64"}],"anonymous":false},{"type":"event","name":"OwnershipTransferred","inputs":[{"name":"previousOwner","type":"address","indexed":true,"internalType":"address"},{"name":"newOwner","type":"address","indexed":true,"internalType":"address"}],"anonymous":false},{"type":"event","name":"Refund","inputs":[{"name":"buyer","type":"address","indexed":true,"internalType":"address"},{"name":"tokenId","type":"uint256","indexed":false,"internalType":"uint256"},{"name":"price","type":"uint256","indexed":false,"internalType":"uint256"}],"anonymous":false},{"type":"event","name":"SaleAdded","inputs":[{"name":"streamer","type":"address","indexed":true,"internalType":"address"},{"name":"protocolFee","type":"uint256","indexed":false,"internalType":"uint256"},{"name":"sale","type":"tuple","indexed":false,"internalType":"struct SaleParams","components":[{"name":"startTime","type":"uint256","internalType":"uint256"},{"name":"endTime","type":"uint256","internalType":"uint256"},{"name":"price","type":"uint256","internalType":"uint256"},{"name":"paymentToken","type":"address","internalType":"address"}]},{"name":"ticketParams","type":"tuple","indexed":false,"internalType":"struct TicketParams","components":[{"name":"name","type":"string","internalType":"string"},{"name":"symbol","type":"string","internalType":"string"},{"name":"baseUri","type":"string","internalType":"string"},{"name":"cap","type":"uint16","internalType":"uint16"}]}],"anonymous":false},{"type":"event","name":"SaleTimeSettingsChanged","inputs":[{"name":"startTime","type":"uint256","indexed":false,"internalType":"uint256"},{"name":"endTime","type":"uint256","indexed":false,"internalType":"uint256"}],"anonymous":false},{"type":"event","name":"Sold","inputs":[{"name":"buyer","type":"address","indexed":true,"internalType":"address"},{"name":"ticket","type":"address","indexed":true,"internalType":"address"},{"name":"tokenId","type":"uint256","indexed":false,"internalType":"uint256"},{"name":"price","type":"uint256","indexed":false,"internalType":"uint256"},{"name":"timestamp","type":"uint256","indexed":false,"internalType":"uint256"}],"anonymous":false},{"type":"event","name":"Withdrawn","inputs":[{"name":"streamer","type":"address","indexed":true,"internalType":"address"},{"name":"amount","type":"uint256","indexed":false,"internalType":"uint256"},{"name":"fee","type":"uint256","indexed":false,"internalType":"uint256"}],"anonymous":false},{"type":"error","name":"AddressEmptyCode","inputs":[{"name":"target","type":"address","internalType":"address"}]},{"type":"error","name":"AddressInsufficientBalance","inputs":[{"name":"account","type":"address","internalType":"address"}]},{"type":"error","name":"ERC1167FailedCreateClone","inputs":[]},{"type":"error","name":"FailedInnerCall","inputs":[]},{"type":"error","name":"InvalidInitialization","inputs":[]},{"type":"error","name":"InvalidTimeSettings","inputs":[]},{"type":"error","name":"NotInitializing","inputs":[]},{"type":"error","name":"OwnableInvalidOwner","inputs":[{"name":"owner","type":"address","internalType":"address"}]},{"type":"error","name":"OwnableUnauthorizedAccount","inputs":[{"name":"account","type":"address","internalType":"address"}]},{"type":"error","name":"ReentrancyGuardReentrantCall","inputs":[]},{"type":"error","name":"SafeERC20FailedOperation","inputs":[{"name":"token","type":"address","internalType":"address"}]},{"type":"error","name":"SalesAlreadyStarted","inputs":[]},{"type":"error","name":"SalesShouldBeActive","inputs":[]},{"type":"error","name":"SalesShouldEnd","inputs":[]},{"type":"error","name":"YouHaveAlreadyPurchasedTicket","inputs":[]},{"type":"error","name":"ZeroAddress","inputs":[]}],"bytecode":{"object":"0x608060405234801561001057600080fd5b50600160005561001e610023565b6100d5565b7ff0c57e16840df040f15088dc2f81fe391c3923bec73e23a9662efc9c229c6a00805468010000000000000000900460ff16156100735760405163f92ee8a960e01b815260040160405180910390fd5b80546001600160401b03908116146100d25780546001600160401b0319166001600160401b0390811782556040519081527fc7f505b2f371ae2175ee4913f4499e1f2633a7b5936321eed1cdaeb6115181d29060200160405180910390a15b50565b6111cd806100e46000396000f3fe608060405234801561001057600080fd5b50600436106100a95760003560e01c80638da5cb5b116100715780638da5cb5b146101335780639d11f615146101535780639f55029314610166578063a5a4103114610178578063a6f2ae3a14610180578063f2fde38b1461018857600080fd5b8063278ecde1146100ae5780633ccfd60b146100c3578063527203e3146100cb5780635c0a648814610118578063715018a61461012b575b600080fd5b6100c16100bc366004610dcf565b61019b565b005b6100c16102dc565b6100d36103c1565b60405161010f91908151815260208083015190820152604080830151908201526060918201516001600160a01b03169181019190915260800190565b60405180910390f35b6100c1610126366004610de8565b61042b565b6100c16104a6565b61013b6104ba565b6040516001600160a01b03909116815260200161010f565b61013b610161366004610e37565b6104e8565b6006545b60405190815260200161010f565b60075461016a565b6100c1610731565b6100c1610196366004610ec8565b610932565b6001544210806101ac575060025442115b156101ca57604051633547bec560e01b815260040160405180910390fd5b604080516080810182526001548152600254602082015260035481830152600480546001600160a01b0390811660608401526005549351632770a7eb60e21b8152339281019290925260248201859052919290911690639dc29fac90604401600060405180830381600087803b15801561024357600080fd5b505af1158015610257573d6000803e3d6000fd5b505050508060400151600660008282546102719190610efb565b909155505060408101516060820151610297916001600160a01b03909116903390610975565b6040808201518151848152602081019190915233917f73f04af9dcc582a923ec15d3eea990fe34adabfff2879e28d44572e01a54abb691015b60405180910390a25050565b6102e46109d9565b60025442101561030757604051631fccbf3960e21b815260040160405180910390fd5b600061271060075460065461031c9190610f0e565b6103269190610f25565b90506000816006546103389190610efb565b600854600454919250610358916001600160a01b03908116911684610975565b6103766103636104ba565b6004546001600160a01b03169083610975565b61037e6104ba565b6001600160a01b03167f92ccf450a286a957af52509bc1c9939d1a6a481783e142e41e2499f0bb66ebc682846040516102d0929190918252602082015260400190565b6103f5604051806080016040528060008152602001600081526020016000815260200160006001600160a01b031681525090565b506040805160808101825260015481526002546020820152600354918101919091526004546001600160a01b0316606082015290565b6104336109d9565b600154421061045557604051633480eb3960e11b815260040160405180910390fd5b61045f8282610a0b565b6001829055600281905560408051838152602081018390527f2945afdee0fb6d5d2c8ec694fc88e0ff5596714628806211f0811b6e91567c29910160405180910390a15050565b6104ae6109d9565b6104b86000610a3b565b565b7f9016d09d72d40fdae2fd8ceac6b6234c7706214fd39c1cd1e609a0528c199300546001600160a01b031690565b7ff0c57e16840df040f15088dc2f81fe391c3923bec73e23a9662efc9c229c6a00805460009190600160401b810460ff16159067ffffffffffffffff1683811580156105315750825b905060008267ffffffffffffffff16600114801561054e5750303b155b90508115801561055c575080155b1561057a5760405163f92ee8a960e01b815260040160405180910390fd5b845467ffffffffffffffff1916600117855583156105a457845460ff60401b1916600160401b1785555b6105ad8b610aac565b6105b688610abd565b8760016105c38282610f47565b50506001600160a01b0389166105ec5760405163d92e233d60e01b815260040160405180910390fd5b60078a9055600880546001600160a01b0319166001600160a01b038b161790556106158c610b05565b600580546001600160a01b0319166001600160a01b039290921691821790556040516324dcd3d360e11b81526349b9a7a690610657908a908f90600401611096565b600060405180830381600087803b15801561067157600080fd5b505af1158015610685573d6000803e3d6000fd5b505050508a6001600160a01b03167fc0af6030a5da2141225a8d60c3d2cdbf04430c0cf06fd4c759ec80527568e4048b8a8a6040516106c6939291906110c0565b60405180910390a26005546001600160a01b03169550831561072257845460ff60401b19168555604051600181527fc7f505b2f371ae2175ee4913f4499e1f2633a7b5936321eed1cdaeb6115181d29060200160405180910390a15b50505050509695505050505050565b600154421080610742575060025442115b1561076057604051633547bec560e01b815260040160405180910390fd5b610768610b77565b604080516080810182526001548152600254602082015260035481830152600480546001600160a01b03908116606084015260055493516370a0823160e01b815233928101929092529192909116906370a0823190602401602060405180830381865afa1580156107dd573d6000803e3d6000fd5b505050506040513d601f19601f82011682018060405250810190610801919061111a565b1561081f57604051630122572b60e71b815260040160405180910390fd5b8060400151600660008282546108359190611133565b90915550506040810151606082015161085d916001600160a01b039091169033903090610ba1565b6005546040516340d097c360e01b81523360048201526000916001600160a01b0316906340d097c3906024016020604051808303816000875af11580156108a8573d6000803e3d6000fd5b505050506040513d601f19601f820116820180604052508101906108cc919061111a565b6005546040848101518151848152602081019190915242918101919091529192506001600160a01b03169033907f9be8a5ca22b7e6e81f04b5879f0248227bb770114291bd47dfaee4c3a82ad60e9060600160405180910390a350506104b86001600055565b61093a6109d9565b6001600160a01b03811661096957604051631e4fbdf760e01b8152600060048201526024015b60405180910390fd5b61097281610a3b565b50565b6040516001600160a01b038381166024830152604482018390526109d491859182169063a9059cbb906064015b604051602081830303815290604052915060e01b6020820180516001600160e01b038381831617835250505050610be0565b505050565b336109e26104ba565b6001600160a01b0316146104b85760405163118cdaa760e01b8152336004820152602401610960565b42821080610a195750818111155b15610a375760405163afe905a360e01b815260040160405180910390fd5b5050565b7f9016d09d72d40fdae2fd8ceac6b6234c7706214fd39c1cd1e609a0528c19930080546001600160a01b031981166001600160a01b03848116918217845560405192169182907f8be0079c531659141344cd1fd0a4f28419497f9722a3daafe3b4186f6b6457e090600090a3505050565b610ab4610c43565b61097281610c8c565b610acc81356020830135610a0b565b6000610ade6080830160608401610ec8565b6001600160a01b0316036109725760405163d92e233d60e01b815260040160405180910390fd5b6000763d602d80600a3d3981f3363d3d373d3d3d363d730000008260601b60e81c176000526e5af43d82803e903d91602b57fd5bf38260781b17602052603760096000f090506001600160a01b038116610b72576040516330be1a3d60e21b815260040160405180910390fd5b919050565b600260005403610b9a57604051633ee5aeb560e01b815260040160405180910390fd5b6002600055565b6040516001600160a01b038481166024830152838116604483015260648201839052610bda9186918216906323b872dd906084016109a2565b50505050565b6000610bf56001600160a01b03841683610c94565b90508051600014158015610c1a575080806020019051810190610c189190611146565b155b156109d457604051635274afe760e01b81526001600160a01b0384166004820152602401610960565b7ff0c57e16840df040f15088dc2f81fe391c3923bec73e23a9662efc9c229c6a0054600160401b900460ff166104b857604051631afcd79f60e31b815260040160405180910390fd5b61093a610c43565b6060610ca283836000610cab565b90505b92915050565b606081471015610cd05760405163cd78605960e01b8152306004820152602401610960565b600080856001600160a01b03168486604051610cec9190611168565b60006040518083038185875af1925050503d8060008114610d29576040519150601f19603f3d011682016040523d82523d6000602084013e610d2e565b606091505b5091509150610d3e868383610d4a565b925050505b9392505050565b606082610d5f57610d5a82610da6565b610d43565b8151158015610d7657506001600160a01b0384163b155b15610d9f57604051639996b31560e01b81526001600160a01b0385166004820152602401610960565b5080610d43565b805115610db65780518082602001fd5b604051630a12f52160e11b815260040160405180910390fd5b600060208284031215610de157600080fd5b5035919050565b60008060408385031215610dfb57600080fd5b50508035926020909101359150565b6001600160a01b038116811461097257600080fd5b600060808284031215610e3157600080fd5b50919050565b6000806000806000806101208789031215610e5157600080fd5b8635610e5c81610e0a565b95506020870135610e6c81610e0a565b9450604087013593506060870135610e8381610e0a565b9250610e928860808901610e1f565b915061010087013567ffffffffffffffff811115610eaf57600080fd5b610ebb89828a01610e1f565b9150509295509295509295565b600060208284031215610eda57600080fd5b8135610d4381610e0a565b634e487b7160e01b600052601160045260246000fd5b81810381811115610ca557610ca5610ee5565b8082028115828204841417610ca557610ca5610ee5565b600082610f4257634e487b7160e01b600052601260045260246000fd5b500490565b813581556020820135600182015560408201356002820155600381016060830135610f7181610e0a565b81546001600160a01b0319166001600160a01b03919091161790555050565b6000808335601e19843603018112610fa757600080fd5b830160208101925035905067ffffffffffffffff811115610fc757600080fd5b803603821315610fd657600080fd5b9250929050565b81835281816020850137506000828201602090810191909152601f909101601f19169091010190565b60006110128283610f90565b60808552611024608086018284610fdd565b9150506110346020840184610f90565b8583036020870152611047838284610fdd565b925050506110586040840184610f90565b858303604087015261106b838284610fdd565b92505050606083013561ffff811680821461108557600080fd5b606095909501949094529392505050565b6040815260006110a96040830185611006565b905060018060a01b03831660208301529392505050565b838152823560208201526020830135604082015260408301356060820152600060608401356110ee81610e0a565b6001600160a01b0316608083015260c060a0830181905261111190830184611006565b95945050505050565b60006020828403121561112c57600080fd5b5051919050565b80820180821115610ca557610ca5610ee5565b60006020828403121561115857600080fd5b81518015158114610d4357600080fd5b6000825160005b81811015611189576020818601810151858301520161116f565b50600092019182525091905056fea2646970667358221220244d7bc3c8d7adcfc9c78fb95af8f2142d9a02c7558e35d3d30976945cceb8b364736f6c63430008140033","linkReferences":{}},"methodIdentifiers":{"buy()":"a6f2ae3a","getProtocolFee()":"a5a41031","getSaleParams()":"527203e3","getTotalRaised()":"9f550293","initialize(address,address,uint256,address,(uint256,uint256,uint256,address),(string,string,string,uint16))":"9d11f615","owner()":"8da5cb5b","refund(uint256)":"278ecde1","renounceOwnership()":"715018a6","setTimeSettings(uint256,uint256)":"5c0a6488","transferOwnership(address)":"f2fde38b","withdraw()":"3ccfd60b"},"id":65}