{"abi":[{"type":"constructor","inputs":[],"stateMutability":"nonpayable"},{"type":"function","name":"CAP","inputs":[],"outputs":[{"name":"","type":"uint16","internalType":"uint16"}],"stateMutability":"view"},{"type":"function","name":"approve","inputs":[{"name":"to","type":"address","internalType":"address"},{"name":"tokenId","type":"uint256","internalType":"uint256"}],"outputs":[],"stateMutability":"nonpayable"},{"type":"function","name":"balanceOf","inputs":[{"name":"owner","type":"address","internalType":"address"}],"outputs":[{"name":"","type":"uint256","internalType":"uint256"}],"stateMutability":"view"},{"type":"function","name":"burn","inputs":[{"name":"auth","type":"address","internalType":"address"},{"name":"tokenId","type":"uint256","internalType":"uint256"}],"outputs":[],"stateMutability":"nonpayable"},{"type":"function","name":"getAllOwners","inputs":[],"outputs":[{"name":"currentOwners","type":"address[]","internalType":"address[]"}],"stateMutability":"view"},{"type":"function","name":"getApproved","inputs":[{"name":"tokenId","type":"uint256","internalType":"uint256"}],"outputs":[{"name":"","type":"address","internalType":"address"}],"stateMutability":"view"},{"type":"function","name":"getAvailablePromotions","inputs":[{"name":"promoFactory","type":"address","internalType":"address"}],"outputs":[{"name":"","type":"tuple[]","internalType":"struct Promotion[]","components":[{"name":"startTime","type":"uint256","internalType":"uint256"},{"name":"endTime","type":"uint256","internalType":"uint256"},{"name":"promoAddr","type":"address","internalType":"address"},{"name":"streams","type":"address[]","internalType":"address[]"},{"name":"description","type":"string","internalType":"string"}]}],"stateMutability":"view"},{"type":"function","name":"initialize","inputs":[{"name":"ticket","type":"tuple","internalType":"struct TicketParams","components":[{"name":"name","type":"string","internalType":"string"},{"name":"symbol","type":"string","internalType":"string"},{"name":"baseUri","type":"string","internalType":"string"},{"name":"cap","type":"uint16","internalType":"uint16"}]},{"name":"streamer","type":"address","internalType":"address"}],"outputs":[],"stateMutability":"nonpayable"},{"type":"function","name":"isApprovedForAll","inputs":[{"name":"owner","type":"address","internalType":"address"},{"name":"operator","type":"address","internalType":"address"}],"outputs":[{"name":"","type":"bool","internalType":"bool"}],"stateMutability":"view"},{"type":"function","name":"name","inputs":[],"outputs":[{"name":"","type":"string","internalType":"string"}],"stateMutability":"view"},{"type":"function","name":"owner","inputs":[],"outputs":[{"name":"","type":"address","internalType":"address"}],"stateMutability":"view"},{"type":"function","name":"ownerOf","inputs":[{"name":"tokenId","type":"uint256","internalType":"uint256"}],"outputs":[{"name":"","type":"address","internalType":"address"}],"stateMutability":"view"},{"type":"function","name":"renounceOwnership","inputs":[],"outputs":[],"stateMutability":"nonpayable"},{"type":"function","name":"safeMint","inputs":[{"name":"to","type":"address","internalType":"address"}],"outputs":[{"name":"tokenId","type":"uint256","internalType":"uint256"}],"stateMutability":"nonpayable"},{"type":"function","name":"safeTransferFrom","inputs":[{"name":"from","type":"address","internalType":"address"},{"name":"to","type":"address","internalType":"address"},{"name":"tokenId","type":"uint256","internalType":"uint256"}],"outputs":[],"stateMutability":"nonpayable"},{"type":"function","name":"safeTransferFrom","inputs":[{"name":"from","type":"address","internalType":"address"},{"name":"to","type":"address","internalType":"address"},{"name":"tokenId","type":"uint256","internalType":"uint256"},{"name":"data","type":"bytes","internalType":"bytes"}],"outputs":[],"stateMutability":"nonpayable"},{"type":"function","name":"setApprovalForAll","inputs":[{"name":"operator","type":"address","internalType":"address"},{"name":"approved","type":"bool","internalType":"bool"}],"outputs":[],"stateMutability":"nonpayable"},{"type":"function","name":"setBaseTokenURI","inputs":[{"name":"baseTokenURI","type":"string","internalType":"string"}],"outputs":[],"stateMutability":"nonpayable"},{"type":"function","name":"supportsInterface","inputs":[{"name":"interfaceId","type":"bytes4","internalType":"bytes4"}],"outputs":[{"name":"","type":"bool","internalType":"bool"}],"stateMutability":"view"},{"type":"function","name":"symbol","inputs":[],"outputs":[{"name":"","type":"string","internalType":"string"}],"stateMutability":"view"},{"type":"function","name":"tokenURI","inputs":[{"name":"","type":"uint256","internalType":"uint256"}],"outputs":[{"name":"","type":"string","internalType":"string"}],"stateMutability":"view"},{"type":"function","name":"totalSupply","inputs":[],"outputs":[{"name":"","type":"uint256","internalType":"uint256"}],"stateMutability":"view"},{"type":"function","name":"transferFrom","inputs":[{"name":"from","type":"address","internalType":"address"},{"name":"to","type":"address","internalType":"address"},{"name":"tokenId","type":"uint256","internalType":"uint256"}],"outputs":[],"stateMutability":"nonpayable"},{"type":"function","name":"transferOwnership","inputs":[{"name":"newOwner","type":"address","internalType":"address"}],"outputs":[],"stateMutability":"nonpayable"},{"type":"event","name":"Approval","inputs":[{"name":"owner","type":"address","indexed":true,"internalType":"address"},{"name":"approved","type":"address","indexed":true,"internalType":"address"},{"name":"tokenId","type":"uint256","indexed":true,"internalType":"uint256"}],"anonymous":false},{"type":"event","name":"ApprovalForAll","inputs":[{"name":"owner","type":"address","indexed":true,"internalType":"address"},{"name":"operator","type":"address","indexed":true,"internalType":"address"},{"name":"approved","type":"bool","indexed":false,"internalType":"bool"}],"anonymous":false},{"type":"event","name":"BaseTokenURIChanged","inputs":[{"name":"baseURI","type":"string","indexed":false,"internalType":"string"}],"anonymous":false},{"type":"event","name":"Initialized","inputs":[{"name":"version","type":"uint64","indexed":false,"internalType":"uint64"}],"anonymous":false},{"type":"event","name":"MintTicket","inputs":[{"name":"owner","type":"address","indexed":true,"internalType":"address"},{"name":"tokenId","type":"uint256","indexed":false,"internalType":"uint256"}],"anonymous":false},{"type":"event","name":"OwnershipTransferred","inputs":[{"name":"previousOwner","type":"address","indexed":true,"internalType":"address"},{"name":"newOwner","type":"address","indexed":true,"internalType":"address"}],"anonymous":false},{"type":"event","name":"Transfer","inputs":[{"name":"from","type":"address","indexed":true,"internalType":"address"},{"name":"to","type":"address","indexed":true,"internalType":"address"},{"name":"tokenId","type":"uint256","indexed":true,"internalType":"uint256"}],"anonymous":false},{"type":"error","name":"ERC721IncorrectOwner","inputs":[{"name":"sender","type":"address","internalType":"address"},{"name":"tokenId","type":"uint256","internalType":"uint256"},{"name":"owner","type":"address","internalType":"address"}]},{"type":"error","name":"ERC721InsufficientApproval","inputs":[{"name":"operator","type":"address","internalType":"address"},{"name":"tokenId","type":"uint256","internalType":"uint256"}]},{"type":"error","name":"ERC721InvalidApprover","inputs":[{"name":"approver","type":"address","internalType":"address"}]},{"type":"error","name":"ERC721InvalidOperator","inputs":[{"name":"operator","type":"address","internalType":"address"}]},{"type":"error","name":"ERC721InvalidOwner","inputs":[{"name":"owner","type":"address","internalType":"address"}]},{"type":"error","name":"ERC721InvalidReceiver","inputs":[{"name":"receiver","type":"address","internalType":"address"}]},{"type":"error","name":"ERC721InvalidSender","inputs":[{"name":"sender","type":"address","internalType":"address"}]},{"type":"error","name":"ERC721NonexistentToken","inputs":[{"name":"tokenId","type":"uint256","internalType":"uint256"}]},{"type":"error","name":"InvalidInitialization","inputs":[]},{"type":"error","name":"MaxCollectionSizeExceeded","inputs":[{"name":"cap","type":"uint16","internalType":"uint16"}]},{"type":"error","name":"NotInitializing","inputs":[]},{"type":"error","name":"OnlyCreatorCanBurn","inputs":[]},{"type":"error","name":"OnlyCreatorOrOwnerCanMint","inputs":[]},{"type":"error","name":"OwnableInvalidOwner","inputs":[{"name":"owner","type":"address","internalType":"address"}]},{"type":"error","name":"OwnableUnauthorizedAccount","inputs":[{"name":"account","type":"address","internalType":"address"}]},{"type":"error","name":"TransfersAreNotAllowed","inputs":[]},{"type":"error","name":"ZeroAddress","inputs":[]},{"type":"error","name":"ZeroCap","inputs":[]}],"bytecode":{"object":"0x608060405234801561001057600080fd5b5061001961001e565b6100d0565b7ff0c57e16840df040f15088dc2f81fe391c3923bec73e23a9662efc9c229c6a00805468010000000000000000900460ff161561006e5760405163f92ee8a960e01b815260040160405180910390fd5b80546001600160401b03908116146100cd5780546001600160401b0319166001600160401b0390811782556040519081527fc7f505b2f371ae2175ee4913f4499e1f2633a7b5936321eed1cdaeb6115181d29060200160405180910390a15b50565b611fbb806100df6000396000f3fe608060405234801561001057600080fd5b50600436106101585760003560e01c80636352211e116100c3578063a22cb4651161007c578063a22cb465146102d1578063b88d4fde146102e4578063c87b56dd146102f7578063e985e9c51461030a578063ec81b4831461031d578063f2fde38b1461033e57600080fd5b80636352211e1461028057806370a0823114610293578063715018a6146102a65780638da5cb5b146102ae57806395d89b41146102b65780639dc29fac146102be57600080fd5b806318160ddd1161011557806318160ddd1461020f57806323b872dd1461022157806330176e131461023457806340d097c31461024757806342842e0e1461025a57806349b9a7a61461026d57600080fd5b806301ffc9a71461015d57806306fdde0314610185578063081812fc1461019a578063095ea7b3146101c55780630be270fe146101da57806316c12746146101fa575b600080fd5b61017061016b36600461159d565b610351565b60405190151581526020015b60405180910390f35b61018d61037b565b60405161017c9190611611565b6101ad6101a8366004611624565b61041f565b6040516001600160a01b03909116815260200161017c565b6101d86101d3366004611652565b610434565b005b6101ed6101e836600461167e565b610443565b60405161017c919061169b565b6102026104b2565b60405161017c9190611776565b6001545b60405190815260200161017c565b6101d861022f3660046117c3565b610603565b6101d86102423660046118d7565b610693565b61021361025536600461167e565b6106e2565b6101d86102683660046117c3565b61087e565b6101d861027b36600461191f565b61089e565b6101ad61028e366004611624565b610ae5565b6102136102a136600461167e565b610af0565b6101d8610b4c565b6101ad610b60565b61018d610b8e565b6101d86102cc366004611652565b610bcd565b6101d86102df366004611975565b610c3b565b6101d86102f23660046119a8565b610c46565b61018d610305366004611624565b610c5d565b610170610318366004611a27565b610cf1565b60005461032b9061ffff1681565b60405161ffff909116815260200161017c565b6101d861034c36600461167e565b610d3e565b60006001600160e01b0319821662c91d1360e41b1480610375575061037582610d7c565b92915050565b600080516020611f66833981519152805460609190819061039b90611a45565b80601f01602080910402602001604051908101604052809291908181526020018280546103c790611a45565b80156104145780601f106103e957610100808354040283529160200191610414565b820191906000526020600020905b8154815290600101906020018083116103f757829003601f168201915b505050505091505090565b600061042a82610dcc565b5061037582610e04565b61043f828233610e3e565b5050565b6040516305f1387f60e11b81523060048201526060906001600160a01b03831690630be270fe90602401600060405180830381865afa15801561048a573d6000803e3d6000fd5b505050506040513d6000823e601f3d908101601f191682016040526103759190810190611ae7565b60606000600580548060200260200160405190810160405280929190818152602001828054801561050c57602002820191906000526020600020905b81546001600160a01b031681526001909101906020018083116104ee575b505050505090506001546001600160401b0381111561052d5761052d611804565b604051908082528060200260200182016040528015610556578160200160208202803683370190505b5091506000805b82518110156105fd57600083828151811061057a5761057a611c72565b6020908102919091018101516001600160a01b0381166000908152600690925260409091205490915060ff16156105b157506105eb565b808584815181106105c4576105c4611c72565b6001600160a01b0390921660209283029190910190910152826105e681611c9e565b935050505b806105f581611c9e565b91505061055d565b50505090565b6001600160a01b03821661063257604051633250574960e11b8152600060048201526024015b60405180910390fd5b600061063f838333610e4b565b9050836001600160a01b0316816001600160a01b03161461068d576040516364283d7b60e01b81526001600160a01b0380861660048301526024820184905282166044820152606401610629565b50505050565b61069b610eab565b60046106a78282611d05565b507f228a3ac0675af69daeaaa5b8d369fe2faae665e7f340f0b78ccbb84e17b4f694816040516106d79190611611565b60405180910390a150565b6003546000906001600160a01b031633148015906107195750610703610b60565b6001600160a01b0316336001600160a01b031614155b15610737576040516345177df360e01b815260040160405180910390fd5b6001600160a01b03821660009081526006602052604090205460ff161561077d576001600160a01b0382166000908152600660205260409020805460ff191690556107c9565b600580546001810182556000919091527f036b6384b5eca791c62761152d0c79bb0604c104a5fb6f4eb0703f3154bb3db00180546001600160a01b0319166001600160a01b0384161790555b600280549060006107d983611c9e565b9091555050600180549060006107ee83611c9e565b909155505060025460005460015491925061ffff16101561082c576000546040516318f6c39d60e11b815261ffff9091166004820152602401610629565b6108368282610edd565b816001600160a01b03167fa34e6b78e9a990f62e47ba1c3993ff82d0d748e22617d46c5a79c7b86d10e19b8260405161087191815260200190565b60405180910390a2919050565b61089983838360405180602001604052806000815250610c46565b505050565b7ff0c57e16840df040f15088dc2f81fe391c3923bec73e23a9662efc9c229c6a008054600160401b810460ff1615906001600160401b03166000811580156108e35750825b90506000826001600160401b031660011480156108ff5750303b155b90508115801561090d575080155b1561092b5760405163f92ee8a960e01b815260040160405180910390fd5b845467ffffffffffffffff19166001178555831561095557845460ff60401b1916600160401b1785555b6001600160a01b03861661097c5760405163d92e233d60e01b815260040160405180910390fd5b61098c6080880160608901611dc4565b61ffff166000036109b05760405163dd616a4560e01b815260040160405180910390fd5b610a396109bd8880611de8565b8080601f0160208091040260200160405190810160405280939291908181526020018383808284376000920191909152506109ff9250505060208a018a611de8565b8080601f016020809104026020016040519081016040528093929190818152602001838380828437600092019190915250610ef792505050565b610a4286610f09565b600380546001600160a01b03191633179055610a616040880188611de8565b600491610a6f919083611e35565b50610a806080880160608901611dc4565b6000805461ffff191661ffff929092169190911790558315610adc57845460ff60401b19168555604051600181527fc7f505b2f371ae2175ee4913f4499e1f2633a7b5936321eed1cdaeb6115181d29060200160405180910390a15b50505050505050565b600061037582610dcc565b6000600080516020611f668339815191526001600160a01b038316610b2b576040516322718ad960e21b815260006004820152602401610629565b6001600160a01b039092166000908152600390920160205250604090205490565b610b54610eab565b610b5e6000610f1a565b565b7f9016d09d72d40fdae2fd8ceac6b6234c7706214fd39c1cd1e609a0528c199300546001600160a01b031690565b7f80bb2b638cc20bc4d0a60d66940f3ab4a00c1d7b313497ca82fb0b4ab00793018054606091600080516020611f668339815191529161039b90611a45565b6003546001600160a01b03163314610bf8576040516342c5a58b60e01b815260040160405180910390fd5b60018054906000610c0883611ef4565b90915550506001600160a01b0382166000908152600660205260408120805460ff19166001179055610899908284610e4b565b61043f338383610f8b565b610c51848484610603565b61068d8484848461103c565b606060048054610c6c90611a45565b80601f0160208091040260200160405190810160405280929190818152602001828054610c9890611a45565b8015610ce55780601f10610cba57610100808354040283529160200191610ce5565b820191906000526020600020905b815481529060010190602001808311610cc857829003601f168201915b50505050509050919050565b6001600160a01b0391821660009081527f80bb2b638cc20bc4d0a60d66940f3ab4a00c1d7b313497ca82fb0b4ab00793056020908152604080832093909416825291909152205460ff1690565b610d46610eab565b6001600160a01b038116610d7057604051631e4fbdf760e01b815260006004820152602401610629565b610d7981610f1a565b50565b60006001600160e01b031982166380ac58cd60e01b1480610dad57506001600160e01b03198216635b5e139f60e01b145b8061037557506301ffc9a760e01b6001600160e01b0319831614610375565b600080610dd883611165565b90506001600160a01b03811661037557604051637e27328960e01b815260048101849052602401610629565b60009081527f80bb2b638cc20bc4d0a60d66940f3ab4a00c1d7b313497ca82fb0b4ab007930460205260409020546001600160a01b031690565b610899838383600161119f565b600080610e5784611165565b90506001600160a01b03811615801590610e7957506001600160a01b03851615155b15610e975760405163813fdc2560e01b815260040160405180910390fd5b610ea28585856112b5565b95945050505050565b33610eb4610b60565b6001600160a01b031614610b5e5760405163118cdaa760e01b8152336004820152602401610629565b61043f8282604051806020016040528060008152506113bf565b610eff6113d6565b61043f828261141f565b610f116113d6565b610d7981611450565b7f9016d09d72d40fdae2fd8ceac6b6234c7706214fd39c1cd1e609a0528c19930080546001600160a01b031981166001600160a01b03848116918217845560405192169182907f8be0079c531659141344cd1fd0a4f28419497f9722a3daafe3b4186f6b6457e090600090a3505050565b600080516020611f668339815191526001600160a01b038316610fcc57604051630b61174360e31b81526001600160a01b0384166004820152602401610629565b6001600160a01b038481166000818152600584016020908152604080832094881680845294825291829020805460ff191687151590811790915591519182527f17307eab39ab6107e8899845ad3d59bd9653f200f220920489ca2b5937696c31910160405180910390a350505050565b6001600160a01b0383163b1561068d57604051630a85bd0160e11b81526001600160a01b0384169063150b7a029061107e903390889087908790600401611f0b565b6020604051808303816000875af19250505080156110b9575060408051601f3d908101601f191682019092526110b691810190611f48565b60015b611122573d8080156110e7576040519150601f19603f3d011682016040523d82523d6000602084013e6110ec565b606091505b50805160000361111a57604051633250574960e11b81526001600160a01b0385166004820152602401610629565b805181602001fd5b6001600160e01b03198116630a85bd0160e11b1461115e57604051633250574960e11b81526001600160a01b0385166004820152602401610629565b5050505050565b60009081527f80bb2b638cc20bc4d0a60d66940f3ab4a00c1d7b313497ca82fb0b4ab007930260205260409020546001600160a01b031690565b600080516020611f6683398151915281806111c257506001600160a01b03831615155b156112845760006111d285610dcc565b90506001600160a01b038416158015906111fe5750836001600160a01b0316816001600160a01b031614155b8015611211575061120f8185610cf1565b155b1561123a5760405163a9fbf51f60e01b81526001600160a01b0385166004820152602401610629565b82156112825784866001600160a01b0316826001600160a01b03167f8c5be1e5ebec7d5bd14f71427d1e84f3dd0314c0f7b2291e5b200ac8c7c3b92560405160405180910390a45b505b600093845260040160205250506040902080546001600160a01b0319166001600160a01b0392909216919091179055565b6000600080516020611f66833981519152816112d085611165565b90506001600160a01b038416156112ec576112ec818587611458565b6001600160a01b0381161561132c5761130960008660008061119f565b6001600160a01b0381166000908152600383016020526040902080546000190190555b6001600160a01b0386161561135d576001600160a01b03861660009081526003830160205260409020805460010190555b600085815260028301602052604080822080546001600160a01b0319166001600160a01b038a811691821790925591518893918516917fddf252ad1be2c89b69c2b068fc378daa952ba7f163c4a11628f55a4df523b3ef91a495945050505050565b6113c983836114bc565b610899600084848461103c565b7ff0c57e16840df040f15088dc2f81fe391c3923bec73e23a9662efc9c229c6a0054600160401b900460ff16610b5e57604051631afcd79f60e31b815260040160405180910390fd5b6114276113d6565b600080516020611f66833981519152806114418482611d05565b506001810161068d8382611d05565b610d466113d6565b611463838383611521565b610899576001600160a01b03831661149157604051637e27328960e01b815260048101829052602401610629565b60405163177e802f60e01b81526001600160a01b038316600482015260248101829052604401610629565b6001600160a01b0382166114e657604051633250574960e11b815260006004820152602401610629565b60006114f483836000610e4b565b90506001600160a01b03811615610899576040516339e3563760e11b815260006004820152602401610629565b60006001600160a01b0383161580159061157f5750826001600160a01b0316846001600160a01b0316148061155b575061155b8484610cf1565b8061157f5750826001600160a01b031661157483610e04565b6001600160a01b0316145b949350505050565b6001600160e01b031981168114610d7957600080fd5b6000602082840312156115af57600080fd5b81356115ba81611587565b9392505050565b60005b838110156115dc5781810151838201526020016115c4565b50506000910152565b600081518084526115fd8160208601602086016115c1565b601f01601f19169290920160200192915050565b6020815260006115ba60208301846115e5565b60006020828403121561163657600080fd5b5035919050565b6001600160a01b0381168114610d7957600080fd5b6000806040838503121561166557600080fd5b82356116708161163d565b946020939093013593505050565b60006020828403121561169057600080fd5b81356115ba8161163d565b60006020808301818452808551808352604092508286019150828160051b8701018488016000805b8481101561176757898403603f190186528251805185528881015189860152878101516001600160a01b039081168987015260608083015160a0918801829052805191880182905260c0880192908c019190865b8281101561173557835182168552938d0193928d0192600101611717565b505050506080808301519250868203818801525061175381836115e5565b978a019795505050918701916001016116c3565b50919998505050505050505050565b6020808252825182820181905260009190848201906040850190845b818110156117b75783516001600160a01b031683529284019291840191600101611792565b50909695505050505050565b6000806000606084860312156117d857600080fd5b83356117e38161163d565b925060208401356117f38161163d565b929592945050506040919091013590565b634e487b7160e01b600052604160045260246000fd5b60405160a081016001600160401b038111828210171561183c5761183c611804565b60405290565b604051601f8201601f191681016001600160401b038111828210171561186a5761186a611804565b604052919050565b60006001600160401b0382111561188b5761188b611804565b50601f01601f191660200190565b60006118ac6118a784611872565b611842565b90508281528383830111156118c057600080fd5b828260208301376000602084830101529392505050565b6000602082840312156118e957600080fd5b81356001600160401b038111156118ff57600080fd5b8201601f8101841361191057600080fd5b61157f84823560208401611899565b6000806040838503121561193257600080fd5b82356001600160401b0381111561194857600080fd5b83016080818603121561195a57600080fd5b9150602083013561196a8161163d565b809150509250929050565b6000806040838503121561198857600080fd5b82356119938161163d565b91506020830135801515811461196a57600080fd5b600080600080608085870312156119be57600080fd5b84356119c98161163d565b935060208501356119d98161163d565b92506040850135915060608501356001600160401b038111156119fb57600080fd5b8501601f81018713611a0c57600080fd5b611a1b87823560208401611899565b91505092959194509250565b60008060408385031215611a3a57600080fd5b823561195a8161163d565b600181811c90821680611a5957607f821691505b602082108103611a7957634e487b7160e01b600052602260045260246000fd5b50919050565b60006001600160401b03821115611a9857611a98611804565b5060051b60200190565b600082601f830112611ab357600080fd5b8151611ac16118a782611872565b818152846020838601011115611ad657600080fd5b61157f8260208301602087016115c1565b60006020808385031215611afa57600080fd5b82516001600160401b0380821115611b1157600080fd5b818501915085601f830112611b2557600080fd5b8151611b336118a782611a7f565b81815260059190911b83018401908481019088831115611b5257600080fd5b8585015b83811015611c6557805185811115611b6d57600080fd5b860160a0818c03601f19011215611b8357600080fd5b611b8b61181a565b8882015181526040820151898201526060820151611ba88161163d565b6040820152608082015187811115611bbf57600080fd5b8201603f81018d13611bd057600080fd5b89810151611be06118a782611a7f565b81815260059190911b8201604001908b8101908f831115611c0057600080fd5b6040840193505b82841015611c29578351611c1a8161163d565b8252928c0192908c0190611c07565b606085015250505060a082015187811115611c4357600080fd5b611c518d8b83860101611aa2565b608083015250845250918601918601611b56565b5098975050505050505050565b634e487b7160e01b600052603260045260246000fd5b634e487b7160e01b600052601160045260246000fd5b600060018201611cb057611cb0611c88565b5060010190565b601f82111561089957600081815260208120601f850160051c81016020861015611cde5750805b601f850160051c820191505b81811015611cfd57828155600101611cea565b505050505050565b81516001600160401b03811115611d1e57611d1e611804565b611d3281611d2c8454611a45565b84611cb7565b602080601f831160018114611d675760008415611d4f5750858301515b600019600386901b1c1916600185901b178555611cfd565b600085815260208120601f198616915b82811015611d9657888601518255948401946001909101908401611d77565b5085821015611db45787850151600019600388901b60f8161c191681555b5050505050600190811b01905550565b600060208284031215611dd657600080fd5b813561ffff811681146115ba57600080fd5b6000808335601e19843603018112611dff57600080fd5b8301803591506001600160401b03821115611e1957600080fd5b602001915036819003821315611e2e57600080fd5b9250929050565b6001600160401b03831115611e4c57611e4c611804565b611e6083611e5a8354611a45565b83611cb7565b6000601f841160018114611e945760008515611e7c5750838201355b600019600387901b1c1916600186901b17835561115e565b600083815260209020601f19861690835b82811015611ec55786850135825560209485019460019092019101611ea5565b5086821015611ee25760001960f88860031b161c19848701351681555b505060018560011b0183555050505050565b600081611f0357611f03611c88565b506000190190565b6001600160a01b0385811682528416602082015260408101839052608060608201819052600090611f3e908301846115e5565b9695505050505050565b600060208284031215611f5a57600080fd5b81516115ba8161158756fe80bb2b638cc20bc4d0a60d66940f3ab4a00c1d7b313497ca82fb0b4ab0079300a264697066735822122022ff9ee96ccda28a3a0c04bc3a313154d9476257af435ad1eec6b3162c89650b64736f6c63430008140033","linkReferences":{}},"methodIdentifiers":{"CAP()":"ec81b483","approve(address,uint256)":"095ea7b3","balanceOf(address)":"70a08231","burn(address,uint256)":"9dc29fac","getAllOwners()":"16c12746","getApproved(uint256)":"081812fc","getAvailablePromotions(address)":"0be270fe","initialize((string,string,string,uint16),address)":"49b9a7a6","isApprovedForAll(address,address)":"e985e9c5","name()":"06fdde03","owner()":"8da5cb5b","ownerOf(uint256)":"6352211e","renounceOwnership()":"715018a6","safeMint(address)":"40d097c3","safeTransferFrom(address,address,uint256)":"42842e0e","safeTransferFrom(address,address,uint256,bytes)":"b88d4fde","setApprovalForAll(address,bool)":"a22cb465","setBaseTokenURI(string)":"30176e13","supportsInterface(bytes4)":"01ffc9a7","symbol()":"95d89b41","tokenURI(uint256)":"c87b56dd","totalSupply()":"18160ddd","transferFrom(address,address,uint256)":"23b872dd","transferOwnership(address)":"f2fde38b"},"id":65}