{
  "abi": [
    {
      "inputs": [],
      "stateMutability": "nonpayable",
      "type": "constructor"
    },
    {
      "inputs": [
        {
          "internalType": "address",
          "name": "sender",
          "type": "address"
        },
        {
          "internalType": "uint256",
          "name": "tokenId",
          "type": "uint256"
        },
        {
          "internalType": "address",
          "name": "owner",
          "type": "address"
        }
      ],
      "name": "ERC721IncorrectOwner",
      "type": "error"
    },
    {
      "inputs": [
        {
          "internalType": "address",
          "name": "operator",
          "type": "address"
        },
        {
          "internalType": "uint256",
          "name": "tokenId",
          "type": "uint256"
        }
      ],
      "name": "ERC721InsufficientApproval",
      "type": "error"
    },
    {
      "inputs": [
        {
          "internalType": "address",
          "name": "approver",
          "type": "address"
        }
      ],
      "name": "ERC721InvalidApprover",
      "type": "error"
    },
    {
      "inputs": [
        {
          "internalType": "address",
          "name": "operator",
          "type": "address"
        }
      ],
      "name": "ERC721InvalidOperator",
      "type": "error"
    },
    {
      "inputs": [
        {
          "internalType": "address",
          "name": "owner",
          "type": "address"
        }
      ],
      "name": "ERC721InvalidOwner",
      "type": "error"
    },
    {
      "inputs": [
        {
          "internalType": "address",
          "name": "receiver",
          "type": "address"
        }
      ],
      "name": "ERC721InvalidReceiver",
      "type": "error"
    },
    {
      "inputs": [
        {
          "internalType": "address",
          "name": "sender",
          "type": "address"
        }
      ],
      "name": "ERC721InvalidSender",
      "type": "error"
    },
    {
      "inputs": [
        {
          "internalType": "uint256",
          "name": "tokenId",
          "type": "uint256"
        }
      ],
      "name": "ERC721NonexistentToken",
      "type": "error"
    },
    {
      "inputs": [],
      "name": "InvalidInitialization",
      "type": "error"
    },
    {
      "inputs": [
        {
          "internalType": "uint16",
          "name": "cap",
          "type": "uint16"
        }
      ],
      "name": "MaxCollectionSizeExceeded",
      "type": "error"
    },
    {
      "inputs": [],
      "name": "NotInitializing",
      "type": "error"
    },
    {
      "inputs": [
        {
          "internalType": "address",
          "name": "owner",
          "type": "address"
        }
      ],
      "name": "OwnableInvalidOwner",
      "type": "error"
    },
    {
      "inputs": [
        {
          "internalType": "address",
          "name": "account",
          "type": "address"
        }
      ],
      "name": "OwnableUnauthorizedAccount",
      "type": "error"
    },
    {
      "inputs": [],
      "name": "TransfersAreNotAllowed",
      "type": "error"
    },
    {
      "inputs": [],
      "name": "ZeroAddress",
      "type": "error"
    },
    {
      "inputs": [],
      "name": "ZeroCap",
      "type": "error"
    },
    {
      "anonymous": false,
      "inputs": [
        {
          "indexed": true,
          "internalType": "address",
          "name": "owner",
          "type": "address"
        },
        {
          "indexed": true,
          "internalType": "address",
          "name": "approved",
          "type": "address"
        },
        {
          "indexed": true,
          "internalType": "uint256",
          "name": "tokenId",
          "type": "uint256"
        }
      ],
      "name": "Approval",
      "type": "event"
    },
    {
      "anonymous": false,
      "inputs": [
        {
          "indexed": true,
          "internalType": "address",
          "name": "owner",
          "type": "address"
        },
        {
          "indexed": true,
          "internalType": "address",
          "name": "operator",
          "type": "address"
        },
        {
          "indexed": false,
          "internalType": "bool",
          "name": "approved",
          "type": "bool"
        }
      ],
      "name": "ApprovalForAll",
      "type": "event"
    },
    {
      "anonymous": false,
      "inputs": [
        {
          "indexed": false,
          "internalType": "string",
          "name": "baseURI",
          "type": "string"
        }
      ],
      "name": "BaseTokenURIChanged",
      "type": "event"
    },
    {
      "anonymous": false,
      "inputs": [
        {
          "indexed": false,
          "internalType": "string",
          "name": "contractURI",
          "type": "string"
        }
      ],
      "name": "ContractURIChanged",
      "type": "event"
    },
    {
      "anonymous": false,
      "inputs": [
        {
          "indexed": false,
          "internalType": "uint64",
          "name": "version",
          "type": "uint64"
        }
      ],
      "name": "Initialized",
      "type": "event"
    },
    {
      "anonymous": false,
      "inputs": [
        {
          "indexed": true,
          "internalType": "address",
          "name": "owner",
          "type": "address"
        },
        {
          "indexed": true,
          "internalType": "uint256",
          "name": "tokenId",
          "type": "uint256"
        }
      ],
      "name": "MintNft",
      "type": "event"
    },
    {
      "anonymous": false,
      "inputs": [
        {
          "indexed": true,
          "internalType": "address",
          "name": "previousOwner",
          "type": "address"
        },
        {
          "indexed": true,
          "internalType": "address",
          "name": "newOwner",
          "type": "address"
        }
      ],
      "name": "OwnershipTransferred",
      "type": "event"
    },
    {
      "anonymous": false,
      "inputs": [
        {
          "indexed": true,
          "internalType": "address",
          "name": "from",
          "type": "address"
        },
        {
          "indexed": true,
          "internalType": "address",
          "name": "to",
          "type": "address"
        },
        {
          "indexed": true,
          "internalType": "uint256",
          "name": "tokenId",
          "type": "uint256"
        }
      ],
      "name": "Transfer",
      "type": "event"
    },
    {
      "inputs": [],
      "name": "CAP",
      "outputs": [
        {
          "internalType": "uint16",
          "name": "",
          "type": "uint16"
        }
      ],
      "stateMutability": "view",
      "type": "function"
    },
    {
      "inputs": [
        {
          "internalType": "address",
          "name": "to",
          "type": "address"
        },
        {
          "internalType": "uint256",
          "name": "tokenId",
          "type": "uint256"
        }
      ],
      "name": "approve",
      "outputs": [],
      "stateMutability": "nonpayable",
      "type": "function"
    },
    {
      "inputs": [
        {
          "internalType": "address",
          "name": "owner",
          "type": "address"
        }
      ],
      "name": "balanceOf",
      "outputs": [
        {
          "internalType": "uint256",
          "name": "",
          "type": "uint256"
        }
      ],
      "stateMutability": "view",
      "type": "function"
    },
    {
      "inputs": [
        {
          "internalType": "address",
          "name": "auth",
          "type": "address"
        },
        {
          "internalType": "uint256",
          "name": "tokenId",
          "type": "uint256"
        }
      ],
      "name": "burn",
      "outputs": [],
      "stateMutability": "nonpayable",
      "type": "function"
    },
    {
      "inputs": [],
      "name": "contractURI",
      "outputs": [
        {
          "internalType": "string",
          "name": "",
          "type": "string"
        }
      ],
      "stateMutability": "view",
      "type": "function"
    },
    {
      "inputs": [],
      "name": "getAllOwners",
      "outputs": [
        {
          "internalType": "address[]",
          "name": "",
          "type": "address[]"
        }
      ],
      "stateMutability": "view",
      "type": "function"
    },
    {
      "inputs": [
        {
          "internalType": "uint256",
          "name": "tokenId",
          "type": "uint256"
        }
      ],
      "name": "getApproved",
      "outputs": [
        {
          "internalType": "address",
          "name": "",
          "type": "address"
        }
      ],
      "stateMutability": "view",
      "type": "function"
    },
    {
      "inputs": [
        {
          "internalType": "address",
          "name": "promoFactory",
          "type": "address"
        }
      ],
      "name": "getAvailablePromotions",
      "outputs": [
        {
          "components": [
            {
              "internalType": "uint256",
              "name": "startTime",
              "type": "uint256"
            },
            {
              "internalType": "uint256",
              "name": "endTime",
              "type": "uint256"
            },
            {
              "internalType": "address",
              "name": "promoAddr",
              "type": "address"
            },
            {
              "internalType": "address[]",
              "name": "streams",
              "type": "address[]"
            },
            {
              "internalType": "string",
              "name": "description",
              "type": "string"
            }
          ],
          "internalType": "struct Promotion[]",
          "name": "",
          "type": "tuple[]"
        }
      ],
      "stateMutability": "view",
      "type": "function"
    },
    {
      "inputs": [
        {
          "components": [
            {
              "internalType": "string",
              "name": "name",
              "type": "string"
            },
            {
              "internalType": "string",
              "name": "symbol",
              "type": "string"
            },
            {
              "internalType": "string",
              "name": "baseUri",
              "type": "string"
            },
            {
              "internalType": "string",
              "name": "contractUri",
              "type": "string"
            },
            {
              "internalType": "uint16",
              "name": "cap",
              "type": "uint16"
            }
          ],
          "internalType": "struct TicketParams",
          "name": "ticket",
          "type": "tuple"
        },
        {
          "internalType": "address",
          "name": "creator",
          "type": "address"
        }
      ],
      "name": "initialize",
      "outputs": [],
      "stateMutability": "nonpayable",
      "type": "function"
    },
    {
      "inputs": [
        {
          "internalType": "address",
          "name": "owner",
          "type": "address"
        },
        {
          "internalType": "address",
          "name": "operator",
          "type": "address"
        }
      ],
      "name": "isApprovedForAll",
      "outputs": [
        {
          "internalType": "bool",
          "name": "",
          "type": "bool"
        }
      ],
      "stateMutability": "view",
      "type": "function"
    },
    {
      "inputs": [],
      "name": "name",
      "outputs": [
        {
          "internalType": "string",
          "name": "",
          "type": "string"
        }
      ],
      "stateMutability": "view",
      "type": "function"
    },
    {
      "inputs": [],
      "name": "owner",
      "outputs": [
        {
          "internalType": "address",
          "name": "",
          "type": "address"
        }
      ],
      "stateMutability": "view",
      "type": "function"
    },
    {
      "inputs": [
        {
          "internalType": "uint256",
          "name": "tokenId",
          "type": "uint256"
        }
      ],
      "name": "ownerOf",
      "outputs": [
        {
          "internalType": "address",
          "name": "",
          "type": "address"
        }
      ],
      "stateMutability": "view",
      "type": "function"
    },
    {
      "inputs": [],
      "name": "renounceOwnership",
      "outputs": [],
      "stateMutability": "nonpayable",
      "type": "function"
    },
    {
      "inputs": [
        {
          "internalType": "address",
          "name": "to",
          "type": "address"
        }
      ],
      "name": "safeMint",
      "outputs": [
        {
          "internalType": "uint256",
          "name": "tokenId",
          "type": "uint256"
        }
      ],
      "stateMutability": "nonpayable",
      "type": "function"
    },
    {
      "inputs": [
        {
          "internalType": "address",
          "name": "from",
          "type": "address"
        },
        {
          "internalType": "address",
          "name": "to",
          "type": "address"
        },
        {
          "internalType": "uint256",
          "name": "tokenId",
          "type": "uint256"
        }
      ],
      "name": "safeTransferFrom",
      "outputs": [],
      "stateMutability": "nonpayable",
      "type": "function"
    },
    {
      "inputs": [
        {
          "internalType": "address",
          "name": "from",
          "type": "address"
        },
        {
          "internalType": "address",
          "name": "to",
          "type": "address"
        },
        {
          "internalType": "uint256",
          "name": "tokenId",
          "type": "uint256"
        },
        {
          "internalType": "bytes",
          "name": "data",
          "type": "bytes"
        }
      ],
      "name": "safeTransferFrom",
      "outputs": [],
      "stateMutability": "nonpayable",
      "type": "function"
    },
    {
      "inputs": [
        {
          "internalType": "address",
          "name": "operator",
          "type": "address"
        },
        {
          "internalType": "bool",
          "name": "approved",
          "type": "bool"
        }
      ],
      "name": "setApprovalForAll",
      "outputs": [],
      "stateMutability": "nonpayable",
      "type": "function"
    },
    {
      "inputs": [
        {
          "internalType": "string",
          "name": "baseTokenURI",
          "type": "string"
        }
      ],
      "name": "setBaseTokenURI",
      "outputs": [],
      "stateMutability": "nonpayable",
      "type": "function"
    },
    {
      "inputs": [
        {
          "internalType": "string",
          "name": "newContractURI",
          "type": "string"
        }
      ],
      "name": "setContractURI",
      "outputs": [],
      "stateMutability": "nonpayable",
      "type": "function"
    },
    {
      "inputs": [
        {
          "internalType": "bytes4",
          "name": "interfaceId",
          "type": "bytes4"
        }
      ],
      "name": "supportsInterface",
      "outputs": [
        {
          "internalType": "bool",
          "name": "",
          "type": "bool"
        }
      ],
      "stateMutability": "view",
      "type": "function"
    },
    {
      "inputs": [],
      "name": "symbol",
      "outputs": [
        {
          "internalType": "string",
          "name": "",
          "type": "string"
        }
      ],
      "stateMutability": "view",
      "type": "function"
    },
    {
      "inputs": [
        {
          "internalType": "uint256",
          "name": "tokenId",
          "type": "uint256"
        }
      ],
      "name": "tokenURI",
      "outputs": [
        {
          "internalType": "string",
          "name": "",
          "type": "string"
        }
      ],
      "stateMutability": "view",
      "type": "function"
    },
    {
      "inputs": [],
      "name": "totalSupply",
      "outputs": [
        {
          "internalType": "uint256",
          "name": "",
          "type": "uint256"
        }
      ],
      "stateMutability": "view",
      "type": "function"
    },
    {
      "inputs": [
        {
          "internalType": "address",
          "name": "from",
          "type": "address"
        },
        {
          "internalType": "address",
          "name": "to",
          "type": "address"
        },
        {
          "internalType": "uint256",
          "name": "tokenId",
          "type": "uint256"
        }
      ],
      "name": "transferFrom",
      "outputs": [],
      "stateMutability": "nonpayable",
      "type": "function"
    },
    {
      "inputs": [
        {
          "internalType": "address",
          "name": "newOwner",
          "type": "address"
        }
      ],
      "name": "transferOwnership",
      "outputs": [],
      "stateMutability": "nonpayable",
      "type": "function"
    }
  ],
  "bytecode": {
    "object": "0x608060405234801561001057600080fd5b5061001961001e565b6100d0565b7ff0c57e16840df040f15088dc2f81fe391c3923bec73e23a9662efc9c229c6a00805468010000000000000000900460ff161561006e5760405163f92ee8a960e01b815260040160405180910390fd5b80546001600160401b03908116146100cd5780546001600160401b0319166001600160401b0390811782556040519081527fc7f505b2f371ae2175ee4913f4499e1f2633a7b5936321eed1cdaeb6115181d29060200160405180910390a15b50565b61205680620000e06000396000f3fe608060405234801561001057600080fd5b506004361061018e5760003560e01c806370a08231116100de578063a22cb46511610097578063e8a3d48511610071578063e8a3d4851461037b578063e985e9c514610383578063ec81b48314610396578063f2fde38b146103b757600080fd5b8063a22cb46514610342578063b88d4fde14610355578063c87b56dd1461036857600080fd5b806370a08231146102c9578063715018a6146102dc5780638da5cb5b146102e4578063938e3d7b1461031457806395d89b41146103275780639dc29fac1461032f57600080fd5b806316c127461161014b57806330176e131161012557806330176e131461027d57806340d097c31461029057806342842e0e146102a35780636352211e146102b657600080fd5b806316c127461461024357806318160ddd1461025857806323b872dd1461026a57600080fd5b806301ffc9a71461019357806306fdde03146101bb578063081812fc146101d057806308579cec146101fb578063095ea7b3146102105780630be270fe14610223575b600080fd5b6101a66101a1366004611626565b6103ca565b60405190151581526020015b60405180910390f35b6101c361041c565b6040516101b29190611693565b6101e36101de3660046116a6565b6104c0565b6040516001600160a01b0390911681526020016101b2565b61020e6102093660046116d4565b6104d5565b005b61020e61021e36600461172a565b610726565b610236610231366004611756565b610735565b6040516101b29190611773565b61024b6107a4565b6040516101b2919061184e565b6004545b6040519081526020016101b2565b61020e61027836600461189b565b610806565b61020e61028b3660046119af565b610896565b61025c61029e366004611756565b6108e5565b61020e6102b136600461189b565b6109d6565b6101e36102c43660046116a6565b6109f6565b61025c6102d7366004611756565b610a01565b61020e610a5d565b7f9016d09d72d40fdae2fd8ceac6b6234c7706214fd39c1cd1e609a0528c199300546001600160a01b03166101e3565b61020e6103223660046119af565b610a71565b6101c3610ab5565b61020e61033d36600461172a565b610af4565b61020e6103503660046119f7565b610b15565b61020e610363366004611a2a565b610b20565b6101c36103763660046116a6565b610b37565b6101c3610b9f565b6101a6610391366004611aa9565b610c28565b6000546103a49061ffff1681565b60405161ffff90911681526020016101b2565b61020e6103c5366004611756565b610c75565b60006001600160e01b031982166380ac58cd60e01b14806103fb57506001600160e01b03198216635b5e139f60e01b145b8061041657506301ffc9a760e01b6001600160e01b03198316145b92915050565b600080516020612001833981519152805460609190819061043c90611ac7565b80601f016020809104026020016040519081016040528092919081815260200182805461046890611ac7565b80156104b55780601f1061048a576101008083540402835291602001916104b5565b820191906000526020600020905b81548152906001019060200180831161049857829003601f168201915b505050505091505090565b60006104cb82610cb3565b5061041682610ceb565b7ff0c57e16840df040f15088dc2f81fe391c3923bec73e23a9662efc9c229c6a008054600160401b810460ff1615906001600160401b031660008115801561051a5750825b90506000826001600160401b031660011480156105365750303b155b905081158015610544575080155b156105625760405163f92ee8a960e01b815260040160405180910390fd5b845467ffffffffffffffff19166001178555831561058c57845460ff60401b1916600160401b1785555b6001600160a01b0386166105b35760405163d92e233d60e01b815260040160405180910390fd5b6105c360a0880160808901611b01565b61ffff166000036105e75760405163dd616a4560e01b815260040160405180910390fd5b6106706105f48880611b25565b8080601f0160208091040260200160405190810160405280939291908181526020018383808284376000920191909152506106369250505060208a018a611b25565b8080601f016020809104026020016040519081016040528093929190818152602001838380828437600092019190915250610d2592505050565b61067986610d37565b6106866060880188611b25565b600291610694919083611bc0565b506106a26040880188611b25565b6001916106b0919083611bc0565b506106c160a0880160808901611b01565b6000805461ffff191661ffff92909216919091179055831561071d57845460ff60401b19168555604051600181527fc7f505b2f371ae2175ee4913f4499e1f2633a7b5936321eed1cdaeb6115181d29060200160405180910390a15b50505050505050565b610731828233610d48565b5050565b6040516305f1387f60e11b81523060048201526060906001600160a01b03831690630be270fe90602401600060405180830381865afa15801561077c573d6000803e3d6000fd5b505050506040513d6000823e601f3d908101601f191682016040526104169190810190611ce7565b606060058054806020026020016040519081016040528092919081815260200182805480156107fc57602002820191906000526020600020905b81546001600160a01b031681526001909101906020018083116107de575b5050505050905090565b6001600160a01b03821661083557604051633250574960e11b8152600060048201526024015b60405180910390fd5b6000610842838333610d55565b9050836001600160a01b0316816001600160a01b031614610890576040516364283d7b60e01b81526001600160a01b038086166004830152602482018490528216604482015260640161082c565b50505050565b61089e610db5565b60016108aa8282611e72565b507f228a3ac0675af69daeaaa5b8d369fe2faae665e7f340f0b78ccbb84e17b4f694816040516108da9190611693565b60405180910390a150565b60006108ef610db5565b600380549060006108ff83611f47565b90915550506004805490600061091483611f47565b909155505060035460005460045491925061ffff161015610952576000546040516318f6c39d60e11b815261ffff909116600482015260240161082c565b61095c8282610e10565b6005805460018101825560009182527f036b6384b5eca791c62761152d0c79bb0604c104a5fb6f4eb0703f3154bb3db00180546001600160a01b0319166001600160a01b03851690811790915560405183927f2fdf319518046f7b4ebc04a5ca363b42da5e87f5e8150935b3e4ef1ee4509e1a91a3919050565b6109f183838360405180602001604052806000815250610b20565b505050565b600061041682610cb3565b60006000805160206120018339815191526001600160a01b038316610a3c576040516322718ad960e21b81526000600482015260240161082c565b6001600160a01b039092166000908152600390920160205250604090205490565b610a65610db5565b610a6f6000610e2a565b565b610a79610db5565b6002610a858282611e72565b507fd5ee5eaf65263bab5d569890714d123ad48a9e54409d35e71d374f3dd300bba0816040516108da9190611693565b7f80bb2b638cc20bc4d0a60d66940f3ab4a00c1d7b313497ca82fb0b4ab007930180546060916000805160206120018339815191529161043c90611ac7565b60048054906000610b0483611f60565b91905055506109f160008284610d55565b610731338383610e9b565b610b2b848484610806565b61089084848484610f4c565b6060610b4282610cb3565b506000610b4d611075565b90506000815111610b6d5760405180602001604052806000815250610b98565b80610b7784611084565b604051602001610b88929190611f77565b6040516020818303038152906040525b9392505050565b606060028054610bae90611ac7565b80601f0160208091040260200160405190810160405280929190818152602001828054610bda90611ac7565b80156107fc5780601f10610bfc576101008083540402835291602001916107fc565b820191906000526020600020905b815481529060010190602001808311610c0a57509395945050505050565b6001600160a01b0391821660009081527f80bb2b638cc20bc4d0a60d66940f3ab4a00c1d7b313497ca82fb0b4ab00793056020908152604080832093909416825291909152205460ff1690565b610c7d610db5565b6001600160a01b038116610ca757604051631e4fbdf760e01b81526000600482015260240161082c565b610cb081610e2a565b50565b600080610cbf83611116565b90506001600160a01b03811661041657604051637e27328960e01b81526004810184905260240161082c565b60009081527f80bb2b638cc20bc4d0a60d66940f3ab4a00c1d7b313497ca82fb0b4ab007930460205260409020546001600160a01b031690565b610d2d611150565b6107318282611199565b610d3f611150565b610cb0816111ca565b6109f183838360016111d2565b600080610d6184611116565b90506001600160a01b03811615801590610d8357506001600160a01b03851615155b15610da15760405163813fdc2560e01b815260040160405180910390fd5b610dac8585856112e8565b95945050505050565b33610de77f9016d09d72d40fdae2fd8ceac6b6234c7706214fd39c1cd1e609a0528c199300546001600160a01b031690565b6001600160a01b031614610a6f5760405163118cdaa760e01b815233600482015260240161082c565b6107318282604051806020016040528060008152506113f2565b7f9016d09d72d40fdae2fd8ceac6b6234c7706214fd39c1cd1e609a0528c19930080546001600160a01b031981166001600160a01b03848116918217845560405192169182907f8be0079c531659141344cd1fd0a4f28419497f9722a3daafe3b4186f6b6457e090600090a3505050565b6000805160206120018339815191526001600160a01b038316610edc57604051630b61174360e31b81526001600160a01b038416600482015260240161082c565b6001600160a01b038481166000818152600584016020908152604080832094881680845294825291829020805460ff191687151590811790915591519182527f17307eab39ab6107e8899845ad3d59bd9653f200f220920489ca2b5937696c31910160405180910390a350505050565b6001600160a01b0383163b1561089057604051630a85bd0160e11b81526001600160a01b0384169063150b7a0290610f8e903390889087908790600401611fa6565b6020604051808303816000875af1925050508015610fc9575060408051601f3d908101601f19168201909252610fc691810190611fe3565b60015b611032573d808015610ff7576040519150601f19603f3d011682016040523d82523d6000602084013e610ffc565b606091505b50805160000361102a57604051633250574960e11b81526001600160a01b038516600482015260240161082c565b805181602001fd5b6001600160e01b03198116630a85bd0160e11b1461106e57604051633250574960e11b81526001600160a01b038516600482015260240161082c565b5050505050565b606060018054610bae90611ac7565b6060600061109183611409565b60010190506000816001600160401b038111156110b0576110b06118dc565b6040519080825280601f01601f1916602001820160405280156110da576020820181803683370190505b5090508181016020015b600019016f181899199a1a9b1b9c1cb0b131b232b360811b600a86061a8153600a85049450846110e457509392505050565b60009081527f80bb2b638cc20bc4d0a60d66940f3ab4a00c1d7b313497ca82fb0b4ab007930260205260409020546001600160a01b031690565b7ff0c57e16840df040f15088dc2f81fe391c3923bec73e23a9662efc9c229c6a0054600160401b900460ff16610a6f57604051631afcd79f60e31b815260040160405180910390fd5b6111a1611150565b600080516020612001833981519152806111bb8482611e72565b50600181016108908382611e72565b610c7d611150565b60008051602061200183398151915281806111f557506001600160a01b03831615155b156112b757600061120585610cb3565b90506001600160a01b038416158015906112315750836001600160a01b0316816001600160a01b031614155b801561124457506112428185610c28565b155b1561126d5760405163a9fbf51f60e01b81526001600160a01b038516600482015260240161082c565b82156112b55784866001600160a01b0316826001600160a01b03167f8c5be1e5ebec7d5bd14f71427d1e84f3dd0314c0f7b2291e5b200ac8c7c3b92560405160405180910390a45b505b600093845260040160205250506040902080546001600160a01b0319166001600160a01b0392909216919091179055565b60006000805160206120018339815191528161130385611116565b90506001600160a01b0384161561131f5761131f8185876114e1565b6001600160a01b0381161561135f5761133c6000866000806111d2565b6001600160a01b0381166000908152600383016020526040902080546000190190555b6001600160a01b03861615611390576001600160a01b03861660009081526003830160205260409020805460010190555b600085815260028301602052604080822080546001600160a01b0319166001600160a01b038a811691821790925591518893918516917fddf252ad1be2c89b69c2b068fc378daa952ba7f163c4a11628f55a4df523b3ef91a495945050505050565b6113fc8383611545565b6109f16000848484610f4c565b60008072184f03e93ff9f4daa797ed6e38ed64bf6a1f0160401b83106114485772184f03e93ff9f4daa797ed6e38ed64bf6a1f0160401b830492506040015b6d04ee2d6d415b85acef81000000008310611474576d04ee2d6d415b85acef8100000000830492506020015b662386f26fc10000831061149257662386f26fc10000830492506010015b6305f5e10083106114aa576305f5e100830492506008015b61271083106114be57612710830492506004015b606483106114d0576064830492506002015b600a83106104165760010192915050565b6114ec8383836115aa565b6109f1576001600160a01b03831661151a57604051637e27328960e01b81526004810182905260240161082c565b60405163177e802f60e01b81526001600160a01b03831660048201526024810182905260440161082c565b6001600160a01b03821661156f57604051633250574960e11b81526000600482015260240161082c565b600061157d83836000610d55565b90506001600160a01b038116156109f1576040516339e3563760e11b81526000600482015260240161082c565b60006001600160a01b038316158015906116085750826001600160a01b0316846001600160a01b031614806115e457506115e48484610c28565b806116085750826001600160a01b03166115fd83610ceb565b6001600160a01b0316145b949350505050565b6001600160e01b031981168114610cb057600080fd5b60006020828403121561163857600080fd5b8135610b9881611610565b60005b8381101561165e578181015183820152602001611646565b50506000910152565b6000815180845261167f816020860160208601611643565b601f01601f19169290920160200192915050565b602081526000610b986020830184611667565b6000602082840312156116b857600080fd5b5035919050565b6001600160a01b0381168114610cb057600080fd5b600080604083850312156116e757600080fd5b82356001600160401b038111156116fd57600080fd5b830160a0818603121561170f57600080fd5b9150602083013561171f816116bf565b809150509250929050565b6000806040838503121561173d57600080fd5b8235611748816116bf565b946020939093013593505050565b60006020828403121561176857600080fd5b8135610b98816116bf565b60006020808301818452808551808352604092508286019150828160051b8701018488016000805b8481101561183f57898403603f190186528251805185528881015189860152878101516001600160a01b039081168987015260608083015160a0918801829052805191880182905260c0880192908c019190865b8281101561180d57835182168552938d0193928d01926001016117ef565b505050506080808301519250868203818801525061182b8183611667565b978a0197955050509187019160010161179b565b50919998505050505050505050565b6020808252825182820181905260009190848201906040850190845b8181101561188f5783516001600160a01b03168352928401929184019160010161186a565b50909695505050505050565b6000806000606084860312156118b057600080fd5b83356118bb816116bf565b925060208401356118cb816116bf565b929592945050506040919091013590565b634e487b7160e01b600052604160045260246000fd5b60405160a081016001600160401b0381118282101715611914576119146118dc565b60405290565b604051601f8201601f191681016001600160401b0381118282101715611942576119426118dc565b604052919050565b60006001600160401b03821115611963576119636118dc565b50601f01601f191660200190565b600061198461197f8461194a565b61191a565b905082815283838301111561199857600080fd5b828260208301376000602084830101529392505050565b6000602082840312156119c157600080fd5b81356001600160401b038111156119d757600080fd5b8201601f810184136119e857600080fd5b61160884823560208401611971565b60008060408385031215611a0a57600080fd5b8235611a15816116bf565b91506020830135801515811461171f57600080fd5b60008060008060808587031215611a4057600080fd5b8435611a4b816116bf565b93506020850135611a5b816116bf565b92506040850135915060608501356001600160401b03811115611a7d57600080fd5b8501601f81018713611a8e57600080fd5b611a9d87823560208401611971565b91505092959194509250565b60008060408385031215611abc57600080fd5b823561170f816116bf565b600181811c90821680611adb57607f821691505b602082108103611afb57634e487b7160e01b600052602260045260246000fd5b50919050565b600060208284031215611b1357600080fd5b813561ffff81168114610b9857600080fd5b6000808335601e19843603018112611b3c57600080fd5b8301803591506001600160401b03821115611b5657600080fd5b602001915036819003821315611b6b57600080fd5b9250929050565b601f8211156109f157600081815260208120601f850160051c81016020861015611b995750805b601f850160051c820191505b81811015611bb857828155600101611ba5565b505050505050565b6001600160401b03831115611bd757611bd76118dc565b611beb83611be58354611ac7565b83611b72565b6000601f841160018114611c1f5760008515611c075750838201355b600019600387901b1c1916600186901b17835561106e565b600083815260209020601f19861690835b82811015611c505786850135825560209485019460019092019101611c30565b5086821015611c6d5760001960f88860031b161c19848701351681555b505060018560011b0183555050505050565b60006001600160401b03821115611c9857611c986118dc565b5060051b60200190565b600082601f830112611cb357600080fd5b8151611cc161197f8261194a565b818152846020838601011115611cd657600080fd5b611608826020830160208701611643565b60006020808385031215611cfa57600080fd5b82516001600160401b0380821115611d1157600080fd5b818501915085601f830112611d2557600080fd5b8151611d3361197f82611c7f565b81815260059190911b83018401908481019088831115611d5257600080fd5b8585015b83811015611e6557805185811115611d6d57600080fd5b860160a0818c03601f19011215611d8357600080fd5b611d8b6118f2565b8882015181526040820151898201526060820151611da8816116bf565b6040820152608082015187811115611dbf57600080fd5b8201603f81018d13611dd057600080fd5b89810151611de061197f82611c7f565b81815260059190911b8201604001908b8101908f831115611e0057600080fd5b6040840193505b82841015611e29578351611e1a816116bf565b8252928c0192908c0190611e07565b606085015250505060a082015187811115611e4357600080fd5b611e518d8b83860101611ca2565b608083015250845250918601918601611d56565b5098975050505050505050565b81516001600160401b03811115611e8b57611e8b6118dc565b611e9f81611e998454611ac7565b84611b72565b602080601f831160018114611ed45760008415611ebc5750858301515b600019600386901b1c1916600185901b178555611bb8565b600085815260208120601f198616915b82811015611f0357888601518255948401946001909101908401611ee4565b5085821015611f215787850151600019600388901b60f8161c191681555b5050505050600190811b01905550565b634e487b7160e01b600052601160045260246000fd5b600060018201611f5957611f59611f31565b5060010190565b600081611f6f57611f6f611f31565b506000190190565b60008351611f89818460208801611643565b835190830190611f9d818360208801611643565b01949350505050565b6001600160a01b0385811682528416602082015260408101839052608060608201819052600090611fd990830184611667565b9695505050505050565b600060208284031215611ff557600080fd5b8151610b988161161056fe80bb2b638cc20bc4d0a60d66940f3ab4a00c1d7b313497ca82fb0b4ab0079300a264697066735822122061d79c77bb9f0aadf89e9583e2cb40c8ab4047166e2962de9087f90b311a06f064736f6c63430008140033",
    "linkReferences": {}
  },
  "methodIdentifiers": {
    "CAP()": "ec81b483",
    "approve(address,uint256)": "095ea7b3",
    "balanceOf(address)": "70a08231",
    "burn(address,uint256)": "9dc29fac",
    "contractURI()": "e8a3d485",
    "getAllOwners()": "16c12746",
    "getApproved(uint256)": "081812fc",
    "getAvailablePromotions(address)": "0be270fe",
    "initialize((string,string,string,string,uint16),address)": "08579cec",
    "isApprovedForAll(address,address)": "e985e9c5",
    "name()": "06fdde03",
    "owner()": "8da5cb5b",
    "ownerOf(uint256)": "6352211e",
    "renounceOwnership()": "715018a6",
    "safeMint(address)": "40d097c3",
    "safeTransferFrom(address,address,uint256)": "42842e0e",
    "safeTransferFrom(address,address,uint256,bytes)": "b88d4fde",
    "setApprovalForAll(address,bool)": "a22cb465",
    "setBaseTokenURI(string)": "30176e13",
    "setContractURI(string)": "938e3d7b",
    "supportsInterface(bytes4)": "01ffc9a7",
    "symbol()": "95d89b41",
    "tokenURI(uint256)": "c87b56dd",
    "totalSupply()": "18160ddd",
    "transferFrom(address,address,uint256)": "23b872dd",
    "transferOwnership(address)": "f2fde38b"
  },
  "id": 58
}