{"abi":[{"type":"constructor","inputs":[],"stateMutability":"nonpayable"},{"type":"function","name":"DEFAULT_ADMIN_ROLE","inputs":[],"outputs":[{"name":"","type":"bytes32","internalType":"bytes32"}],"stateMutability":"view"},{"type":"function","name":"MINTER_ROLE","inputs":[],"outputs":[{"name":"","type":"bytes32","internalType":"bytes32"}],"stateMutability":"view"},{"type":"function","name":"approve","inputs":[{"name":"to","type":"address","internalType":"address"},{"name":"tokenId","type":"uint256","internalType":"uint256"}],"outputs":[],"stateMutability":"nonpayable"},{"type":"function","name":"balanceOf","inputs":[{"name":"owner","type":"address","internalType":"address"}],"outputs":[{"name":"","type":"uint256","internalType":"uint256"}],"stateMutability":"view"},{"type":"function","name":"contractURI","inputs":[],"outputs":[{"name":"","type":"string","internalType":"string"}],"stateMutability":"view"},{"type":"function","name":"getApproved","inputs":[{"name":"tokenId","type":"uint256","internalType":"uint256"}],"outputs":[{"name":"","type":"address","internalType":"address"}],"stateMutability":"view"},{"type":"function","name":"getPromotion","inputs":[{"name":"tokenId","type":"uint256","internalType":"uint256"}],"outputs":[{"name":"","type":"tuple","internalType":"struct Promotion","components":[{"name":"startTime","type":"uint256","internalType":"uint256"},{"name":"endTime","type":"uint256","internalType":"uint256"},{"name":"promoAddr","type":"address","internalType":"address"},{"name":"streams","type":"address[]","internalType":"address[]"},{"name":"description","type":"string","internalType":"string"}]}],"stateMutability":"view"},{"type":"function","name":"getRoleAdmin","inputs":[{"name":"role","type":"bytes32","internalType":"bytes32"}],"outputs":[{"name":"","type":"bytes32","internalType":"bytes32"}],"stateMutability":"view"},{"type":"function","name":"getTicketsAmount","inputs":[{"name":"tokenId","type":"uint256","internalType":"uint256"}],"outputs":[{"name":"totalTicketsAmount","type":"uint256","internalType":"uint256"}],"stateMutability":"view"},{"type":"function","name":"grantRole","inputs":[{"name":"role","type":"bytes32","internalType":"bytes32"},{"name":"account","type":"address","internalType":"address"}],"outputs":[],"stateMutability":"nonpayable"},{"type":"function","name":"hasRole","inputs":[{"name":"role","type":"bytes32","internalType":"bytes32"},{"name":"account","type":"address","internalType":"address"}],"outputs":[{"name":"","type":"bool","internalType":"bool"}],"stateMutability":"view"},{"type":"function","name":"initialize","inputs":[{"name":"promoFactory","type":"address","internalType":"address"},{"name":"contractUri","type":"string","internalType":"string"}],"outputs":[],"stateMutability":"nonpayable"},{"type":"function","name":"isApprovedForAll","inputs":[{"name":"owner","type":"address","internalType":"address"},{"name":"operator","type":"address","internalType":"address"}],"outputs":[{"name":"","type":"bool","internalType":"bool"}],"stateMutability":"view"},{"type":"function","name":"name","inputs":[],"outputs":[{"name":"","type":"string","internalType":"string"}],"stateMutability":"view"},{"type":"function","name":"ownerOf","inputs":[{"name":"tokenId","type":"uint256","internalType":"uint256"}],"outputs":[{"name":"","type":"address","internalType":"address"}],"stateMutability":"view"},{"type":"function","name":"renounceRole","inputs":[{"name":"role","type":"bytes32","internalType":"bytes32"},{"name":"callerConfirmation","type":"address","internalType":"address"}],"outputs":[],"stateMutability":"nonpayable"},{"type":"function","name":"revokeRole","inputs":[{"name":"role","type":"bytes32","internalType":"bytes32"},{"name":"account","type":"address","internalType":"address"}],"outputs":[],"stateMutability":"nonpayable"},{"type":"function","name":"safeMint","inputs":[{"name":"to","type":"address","internalType":"address"},{"name":"uri","type":"string","internalType":"string"},{"name":"promotion","type":"tuple","internalType":"struct Promotion","components":[{"name":"startTime","type":"uint256","internalType":"uint256"},{"name":"endTime","type":"uint256","internalType":"uint256"},{"name":"promoAddr","type":"address","internalType":"address"},{"name":"streams","type":"address[]","internalType":"address[]"},{"name":"description","type":"string","internalType":"string"}]}],"outputs":[],"stateMutability":"nonpayable"},{"type":"function","name":"safeTransferFrom","inputs":[{"name":"from","type":"address","internalType":"address"},{"name":"to","type":"address","internalType":"address"},{"name":"tokenId","type":"uint256","internalType":"uint256"}],"outputs":[],"stateMutability":"nonpayable"},{"type":"function","name":"safeTransferFrom","inputs":[{"name":"from","type":"address","internalType":"address"},{"name":"to","type":"address","internalType":"address"},{"name":"tokenId","type":"uint256","internalType":"uint256"},{"name":"data","type":"bytes","internalType":"bytes"}],"outputs":[],"stateMutability":"nonpayable"},{"type":"function","name":"setApprovalForAll","inputs":[{"name":"operator","type":"address","internalType":"address"},{"name":"approved","type":"bool","internalType":"bool"}],"outputs":[],"stateMutability":"nonpayable"},{"type":"function","name":"setContractURI","inputs":[{"name":"newContractURI","type":"string","internalType":"string"}],"outputs":[],"stateMutability":"nonpayable"},{"type":"function","name":"setTokenUri","inputs":[{"name":"tokenId","type":"uint256","internalType":"uint256"},{"name":"uri","type":"string","internalType":"string"}],"outputs":[],"stateMutability":"nonpayable"},{"type":"function","name":"supportsInterface","inputs":[{"name":"interfaceId","type":"bytes4","internalType":"bytes4"}],"outputs":[{"name":"","type":"bool","internalType":"bool"}],"stateMutability":"view"},{"type":"function","name":"symbol","inputs":[],"outputs":[{"name":"","type":"string","internalType":"string"}],"stateMutability":"view"},{"type":"function","name":"tokenURI","inputs":[{"name":"tokenId","type":"uint256","internalType":"uint256"}],"outputs":[{"name":"","type":"string","internalType":"string"}],"stateMutability":"view"},{"type":"function","name":"totalSupply","inputs":[],"outputs":[{"name":"","type":"uint256","internalType":"uint256"}],"stateMutability":"view"},{"type":"function","name":"transferFrom","inputs":[{"name":"from","type":"address","internalType":"address"},{"name":"to","type":"address","internalType":"address"},{"name":"tokenId","type":"uint256","internalType":"uint256"}],"outputs":[],"stateMutability":"nonpayable"},{"type":"event","name":"Approval","inputs":[{"name":"owner","type":"address","indexed":true,"internalType":"address"},{"name":"approved","type":"address","indexed":true,"internalType":"address"},{"name":"tokenId","type":"uint256","indexed":true,"internalType":"uint256"}],"anonymous":false},{"type":"event","name":"ApprovalForAll","inputs":[{"name":"owner","type":"address","indexed":true,"internalType":"address"},{"name":"operator","type":"address","indexed":true,"internalType":"address"},{"name":"approved","type":"bool","indexed":false,"internalType":"bool"}],"anonymous":false},{"type":"event","name":"BatchMetadataUpdate","inputs":[{"name":"_fromTokenId","type":"uint256","indexed":false,"internalType":"uint256"},{"name":"_toTokenId","type":"uint256","indexed":false,"internalType":"uint256"}],"anonymous":false},{"type":"event","name":"ContractURIChanged","inputs":[{"name":"contractURI","type":"string","indexed":false,"internalType":"string"}],"anonymous":false},{"type":"event","name":"Initialized","inputs":[{"name":"version","type":"uint64","indexed":false,"internalType":"uint64"}],"anonymous":false},{"type":"event","name":"MetadataUpdate","inputs":[{"name":"_tokenId","type":"uint256","indexed":false,"internalType":"uint256"}],"anonymous":false},{"type":"event","name":"MintPromo","inputs":[{"name":"owner","type":"address","indexed":true,"internalType":"address"},{"name":"tokenId","type":"uint256","indexed":false,"internalType":"uint256"},{"name":"promotion","type":"tuple","indexed":false,"internalType":"struct Promotion","components":[{"name":"startTime","type":"uint256","internalType":"uint256"},{"name":"endTime","type":"uint256","internalType":"uint256"},{"name":"promoAddr","type":"address","internalType":"address"},{"name":"streams","type":"address[]","internalType":"address[]"},{"name":"description","type":"string","internalType":"string"}]}],"anonymous":false},{"type":"event","name":"RoleAdminChanged","inputs":[{"name":"role","type":"bytes32","indexed":true,"internalType":"bytes32"},{"name":"previousAdminRole","type":"bytes32","indexed":true,"internalType":"bytes32"},{"name":"newAdminRole","type":"bytes32","indexed":true,"internalType":"bytes32"}],"anonymous":false},{"type":"event","name":"RoleGranted","inputs":[{"name":"role","type":"bytes32","indexed":true,"internalType":"bytes32"},{"name":"account","type":"address","indexed":true,"internalType":"address"},{"name":"sender","type":"address","indexed":true,"internalType":"address"}],"anonymous":false},{"type":"event","name":"RoleRevoked","inputs":[{"name":"role","type":"bytes32","indexed":true,"internalType":"bytes32"},{"name":"account","type":"address","indexed":true,"internalType":"address"},{"name":"sender","type":"address","indexed":true,"internalType":"address"}],"anonymous":false},{"type":"event","name":"TokenUriChanged","inputs":[{"name":"owner","type":"address","indexed":true,"internalType":"address"},{"name":"tokenId","type":"uint256","indexed":false,"internalType":"uint256"},{"name":"tokenUri","type":"string","indexed":false,"internalType":"string"}],"anonymous":false},{"type":"event","name":"Transfer","inputs":[{"name":"from","type":"address","indexed":true,"internalType":"address"},{"name":"to","type":"address","indexed":true,"internalType":"address"},{"name":"tokenId","type":"uint256","indexed":true,"internalType":"uint256"}],"anonymous":false},{"type":"error","name":"AccessControlBadConfirmation","inputs":[]},{"type":"error","name":"AccessControlUnauthorizedAccount","inputs":[{"name":"account","type":"address","internalType":"address"},{"name":"neededRole","type":"bytes32","internalType":"bytes32"}]},{"type":"error","name":"ERC721IncorrectOwner","inputs":[{"name":"sender","type":"address","internalType":"address"},{"name":"tokenId","type":"uint256","internalType":"uint256"},{"name":"owner","type":"address","internalType":"address"}]},{"type":"error","name":"ERC721InsufficientApproval","inputs":[{"name":"operator","type":"address","internalType":"address"},{"name":"tokenId","type":"uint256","internalType":"uint256"}]},{"type":"error","name":"ERC721InvalidApprover","inputs":[{"name":"approver","type":"address","internalType":"address"}]},{"type":"error","name":"ERC721InvalidOperator","inputs":[{"name":"operator","type":"address","internalType":"address"}]},{"type":"error","name":"ERC721InvalidOwner","inputs":[{"name":"owner","type":"address","internalType":"address"}]},{"type":"error","name":"ERC721InvalidReceiver","inputs":[{"name":"receiver","type":"address","internalType":"address"}]},{"type":"error","name":"ERC721InvalidSender","inputs":[{"name":"sender","type":"address","internalType":"address"}]},{"type":"error","name":"ERC721NonexistentToken","inputs":[{"name":"tokenId","type":"uint256","internalType":"uint256"}]},{"type":"error","name":"IncorrectStreamAddress","inputs":[{"name":"stream","type":"address","internalType":"address"}]},{"type":"error","name":"InvalidInitialization","inputs":[]},{"type":"error","name":"InvalidTimeSettings","inputs":[]},{"type":"error","name":"NotInitializing","inputs":[]},{"type":"error","name":"NotTokenOwner","inputs":[]},{"type":"error","name":"ZeroAddress","inputs":[]}],"bytecode":{"object":"0x60806040523480156200001157600080fd5b506200001c62000022565b620000d6565b7ff0c57e16840df040f15088dc2f81fe391c3923bec73e23a9662efc9c229c6a00805468010000000000000000900460ff1615620000735760405163f92ee8a960e01b815260040160405180910390fd5b80546001600160401b0390811614620000d35780546001600160401b0319166001600160401b0390811782556040519081527fc7f505b2f371ae2175ee4913f4499e1f2633a7b5936321eed1cdaeb6115181d29060200160405180910390a15b50565b61290380620000e66000396000f3fe608060405234801561001057600080fd5b50600436106101c45760003560e01c806391d14854116100f9578063c87b56dd11610097578063d547741f11610071578063d547741f146103cc578063e8a3d485146103df578063e985e9c5146103e7578063f399e22e146103fa57600080fd5b8063c87b56dd1461037f578063cada108914610392578063d5391393146103a557600080fd5b80639de0206c116100d35780639de0206c1461033e578063a217fddf14610351578063a22cb46514610359578063b88d4fde1461036c57600080fd5b806391d1485414610310578063938e3d7b1461032357806395d89b411461033657600080fd5b8063248a9ca31161016657806342842e0e1161014057806342842e0e146102c457806357f7789e146102d75780636352211e146102ea57806370a08231146102fd57600080fd5b8063248a9ca31461028b5780632f2ff15d1461029e57806336568abe146102b157600080fd5b8063095ea7b3116101a2578063095ea7b31461023157806314fdecca1461024657806318160ddd1461026657806323b872dd1461027857600080fd5b806301ffc9a7146101c957806306fdde03146101f1578063081812fc14610206575b600080fd5b6101dc6101d7366004611cde565b61040d565b60405190151581526020015b60405180910390f35b6101f961041e565b6040516101e89190611d4b565b610219610214366004611d5e565b6104c2565b6040516001600160a01b0390911681526020016101e8565b61024461023f366004611d8c565b6104d7565b005b610259610254366004611d5e565b6104e6565b6040516101e89190611db8565b6001545b6040519081526020016101e8565b610244610286366004611e56565b610652565b61026a610299366004611d5e565b6106e2565b6102446102ac366004611e97565b610704565b6102446102bf366004611e97565b610720565b6102446102d2366004611e56565b610758565b6102446102e5366004611f72565b610773565b6102196102f8366004611d5e565b6107f7565b61026a61030b366004611fb8565b610802565b6101dc61031e366004611e97565b61085e565b610244610331366004611fd5565b610896565b6101f96108e9565b61026a61034c366004611d5e565b610928565b61026a600081565b610244610367366004612017565b610b10565b61024461037a366004612045565b610b1b565b6101f961038d366004611d5e565b610b32565b6102446103a036600461210c565b610b3d565b61026a7f9f2df0fed2c77648de5860a4cc508cd0818c85b8b8a1ab4ceeef8d981c8956a681565b6102446103da366004611e97565b610c3a565b6101f9610c56565b6101dc6103f536600461218c565b610ce8565b6102446104083660046121ba565b610d35565b600061041882610ec6565b92915050565b60008051602061288e833981519152805460609190819061043e9061220e565b80601f016020809104026020016040519081016040528092919081815260200182805461046a9061220e565b80156104b75780601f1061048c576101008083540402835291602001916104b7565b820191906000526020600020905b81548152906001019060200180831161049a57829003601f168201915b505050505091505090565b60006104cd82610eeb565b5061041882610f23565b6104e2828233610f5d565b5050565b6105216040518060a00160405280600081526020016000815260200160006001600160a01b0316815260200160608152602001606081525090565b600082815260026020818152604092839020835160a08101855281548152600182015481840152928101546001600160a01b0316838501526003810180548551818502810185019096528086529394919360608601938301828280156105b057602002820191906000526020600020905b81546001600160a01b03168152600190910190602001808311610592575b505050505081526020016004820180546105c99061220e565b80601f01602080910402602001604051908101604052809291908181526020018280546105f59061220e565b80156106425780601f1061061757610100808354040283529160200191610642565b820191906000526020600020905b81548152906001019060200180831161062557829003601f168201915b5050505050815250509050919050565b6001600160a01b03821661068157604051633250574960e11b8152600060048201526024015b60405180910390fd5b600061068e838333610f6a565b9050836001600160a01b0316816001600160a01b0316146106dc576040516364283d7b60e01b81526001600160a01b0380861660048301526024820184905282166044820152606401610678565b50505050565b60009081526000805160206128ae833981519152602052604090206001015490565b61070d826106e2565b61071681611074565b6106dc8383611081565b6001600160a01b03811633146107495760405163334bd91960e11b815260040160405180910390fd5b6107538282611126565b505050565b61075383838360405180602001604052806000815250610b1b565b813361077e826107f7565b6001600160a01b0316146107a5576040516359dc379f60e01b815260040160405180910390fd5b6107af83836111a2565b336001600160a01b03167fc7868dbe1cad60d57d886befc1900d24ad0479e09f729e67507abfdb4332cd1e84846040516107ea929190612248565b60405180910390a2505050565b600061041882610eeb565b600060008051602061288e8339815191526001600160a01b03831661083d576040516322718ad960e21b815260006004820152602401610678565b6001600160a01b039092166000908152600390920160205250604090205490565b60009182526000805160206128ae833981519152602090815260408084206001600160a01b0393909316845291905290205460ff1690565b60006108a181611074565b60006108ad83826122af565b507fd5ee5eaf65263bab5d569890714d123ad48a9e54409d35e71d374f3dd300bba0826040516108dd9190611d4b565b60405180910390a15050565b7f80bb2b638cc20bc4d0a60d66940f3ab4a00c1d7b313497ca82fb0b4ab0079301805460609160008051602061288e8339815191529161043e9061220e565b6000818152600260208181526040808420815160a08101835281548152600182015481850152938101546001600160a01b03168483015260038101805483518186028101860190945280845286959492936060860193909291908301828280156109bb57602002820191906000526020600020905b81546001600160a01b0316815260019091019060200180831161099d575b505050505081526020016004820180546109d49061220e565b80601f0160208091040260200160405190810160405280929190818152602001828054610a009061220e565b8015610a4d5780601f10610a2257610100808354040283529160200191610a4d565b820191906000526020600020905b815481529060010190602001808311610a3057829003601f168201915b5050509190925250505060608101515190915060005b81811015610b085782606001518181518110610a8157610a81612372565b60200260200101516001600160a01b03166318160ddd6040518163ffffffff1660e01b8152600401602060405180830381865afa158015610ac6573d6000803e3d6000fd5b505050506040513d601f19601f82011682018060405250810190610aea9190612388565b610af490856123b7565b935080610b00816123ca565b915050610a63565b505050919050565b6104e2338383611215565b610b26848484610652565b6106dc848484846112c6565b6060610418826113ef565b7f9f2df0fed2c77648de5860a4cc508cd0818c85b8b8a1ab4ceeef8d981c8956a6610b6781611074565b60018054906000610b77836123ca565b9091555050600154610b898682611524565b610bc98186868080601f0160208091040260200160405190810160405280939291908181526020018383808284376000920191909152506111a292505050565b610bd28361153e565b60008181526002602052604090208390610bec82826125bd565b905050856001600160a01b03167fe20902879f47c9f734b76d32be336010f7b3255d44e1564663803fac43d06cf58285604051610c2a929190612722565b60405180910390a2505050505050565b610c43826106e2565b610c4c81611074565b6106dc8383611126565b606060008054610c659061220e565b80601f0160208091040260200160405190810160405280929190818152602001828054610c919061220e565b8015610cde5780601f10610cb357610100808354040283529160200191610cde565b820191906000526020600020905b815481529060010190602001808311610cc157829003601f168201915b5050505050905090565b6001600160a01b0391821660009081527f80bb2b638cc20bc4d0a60d66940f3ab4a00c1d7b313497ca82fb0b4ab00793056020908152604080832093909416825291909152205460ff1690565b7ff0c57e16840df040f15088dc2f81fe391c3923bec73e23a9662efc9c229c6a008054600160401b810460ff1615906001600160401b0316600081158015610d7a5750825b90506000826001600160401b03166001148015610d965750303b155b905081158015610da4575080155b15610dc25760405163f92ee8a960e01b815260040160405180910390fd5b845467ffffffffffffffff191660011785558315610dec57845460ff60401b1916600160401b1785555b610e31604051806040016040528060098152602001684d65746150726f6d6f60b81b8152506040518060400160405280600281526020016104d560f41b815250611717565b610e3c600033611081565b50610e677f9f2df0fed2c77648de5860a4cc508cd0818c85b8b8a1ab4ceeef8d981c8956a689611081565b506000610e758789836124fe565b508315610ebc57845460ff60401b19168555604051600181527fc7f505b2f371ae2175ee4913f4499e1f2633a7b5936321eed1cdaeb6115181d29060200160405180910390a15b5050505050505050565b60006001600160e01b03198216637965db0b60e01b1480610418575061041882611729565b600080610ef78361174e565b90506001600160a01b03811661041857604051637e27328960e01b815260048101849052602401610678565b60009081527f80bb2b638cc20bc4d0a60d66940f3ab4a00c1d7b313497ca82fb0b4ab007930460205260409020546001600160a01b031690565b6107538383836001611788565b600060008051602061288e83398151915281610f858561174e565b90506001600160a01b03841615610fa157610fa181858761189e565b6001600160a01b03811615610fe157610fbe600086600080611788565b6001600160a01b0381166000908152600383016020526040902080546000190190555b6001600160a01b03861615611012576001600160a01b03861660009081526003830160205260409020805460010190555b600085815260028301602052604080822080546001600160a01b0319166001600160a01b038a811691821790925591518893918516917fddf252ad1be2c89b69c2b068fc378daa952ba7f163c4a11628f55a4df523b3ef91a495945050505050565b61107e8133611902565b50565b60006000805160206128ae83398151915261109c848461085e565b61111c576000848152602082815260408083206001600160a01b03871684529091529020805460ff191660011790556110d23390565b6001600160a01b0316836001600160a01b0316857f2f8788117e7eff1d82e926ec794901d17c78024a50270940304540a733656f0d60405160405180910390a46001915050610418565b6000915050610418565b60006000805160206128ae833981519152611141848461085e565b1561111c576000848152602082815260408083206001600160a01b0387168085529252808320805460ff1916905551339287917ff6391f5c32d9c69d2a47ea670b442974b53935d1edc7fd64eb21e047a839171b9190a46001915050610418565b60008281527f0542a41881ee128a365a727b282c86fa859579490b9bb45aab8503648c8e7900602081905260409091206111dc83826122af565b506040518381527ff8e1a15aba9398e019f0b49df1a4fde98ee17ae345cb5f6b5e2c27f5033e8ce79060200160405180910390a1505050565b60008051602061288e8339815191526001600160a01b03831661125657604051630b61174360e31b81526001600160a01b0384166004820152602401610678565b6001600160a01b038481166000818152600584016020908152604080832094881680845294825291829020805460ff191687151590811790915591519182527f17307eab39ab6107e8899845ad3d59bd9653f200f220920489ca2b5937696c31910160405180910390a350505050565b6001600160a01b0383163b156106dc57604051630a85bd0160e11b81526001600160a01b0384169063150b7a02906113089033908890879087906004016127e7565b6020604051808303816000875af1925050508015611343575060408051601f3d908101601f1916820190925261134091810190612824565b60015b6113ac573d808015611371576040519150601f19603f3d011682016040523d82523d6000602084013e611376565b606091505b5080516000036113a457604051633250574960e11b81526001600160a01b0385166004820152602401610678565b805181602001fd5b6001600160e01b03198116630a85bd0160e11b146113e857604051633250574960e11b81526001600160a01b0385166004820152602401610678565b5050505050565b60607f0542a41881ee128a365a727b282c86fa859579490b9bb45aab8503648c8e790061141b83610eeb565b50600083815260208290526040812080546114359061220e565b80601f01602080910402602001604051908101604052809291908181526020018280546114619061220e565b80156114ae5780601f10611483576101008083540402835291602001916114ae565b820191906000526020600020905b81548152906001019060200180831161149157829003601f168201915b5050505050905060006114cc60408051602081019091526000815290565b905080516000036114df57509392505050565b8151156115125780826040516020016114f9929190612841565b6040516020818303038152906040529350505050919050565b61151b8561193b565b95945050505050565b6104e28282604051806020016040528060008152506119b0565b428135108061155257508035602082013511155b156115705760405163afe905a360e01b815260040160405180910390fd5b60006115826060830160408401611fb8565b6001600160a01b0316036115a95760405163d92e233d60e01b815260040160405180910390fd5b60005b6115b960608301836123e3565b90508110156104e2576115cf60608301836123e3565b828181106115df576115df612372565b90506020020160208101906115f49190611fb8565b6001600160a01b03163b15806116a9575061161260608301836123e3565b8281811061162257611622612372565b90506020020160208101906116379190611fb8565b6040516301ffc9a760e01b815262c91d1360e41b60048201526001600160a01b0391909116906301ffc9a790602401602060405180830381865afa158015611683573d6000803e3d6000fd5b505050506040513d601f19601f820116820180604052508101906116a79190612870565b155b15611705576116bb60608301836123e3565b828181106116cb576116cb612372565b90506020020160208101906116e09190611fb8565b604051636b30f69d60e01b81526001600160a01b039091166004820152602401610678565b8061170f816123ca565b9150506115ac565b61171f6119c7565b6104e28282611a12565b60006001600160e01b03198216632483248360e11b1480610418575061041882611a43565b60009081527f80bb2b638cc20bc4d0a60d66940f3ab4a00c1d7b313497ca82fb0b4ab007930260205260409020546001600160a01b031690565b60008051602061288e83398151915281806117ab57506001600160a01b03831615155b1561186d5760006117bb85610eeb565b90506001600160a01b038416158015906117e75750836001600160a01b0316816001600160a01b031614155b80156117fa57506117f88185610ce8565b155b156118235760405163a9fbf51f60e01b81526001600160a01b0385166004820152602401610678565b821561186b5784866001600160a01b0316826001600160a01b03167f8c5be1e5ebec7d5bd14f71427d1e84f3dd0314c0f7b2291e5b200ac8c7c3b92560405160405180910390a45b505b600093845260040160205250506040902080546001600160a01b0319166001600160a01b0392909216919091179055565b6118a9838383611a93565b610753576001600160a01b0383166118d757604051637e27328960e01b815260048101829052602401610678565b60405163177e802f60e01b81526001600160a01b038316600482015260248101829052604401610678565b61190c828261085e565b6104e25760405163e2517d3f60e01b81526001600160a01b038216600482015260248101839052604401610678565b606061194682610eeb565b50600061195e60408051602081019091526000815290565b9050600081511161197e57604051806020016040528060008152506119a9565b8061198884611af9565b604051602001611999929190612841565b6040516020818303038152906040525b9392505050565b6119ba8383611b8b565b61075360008484846112c6565b7ff0c57e16840df040f15088dc2f81fe391c3923bec73e23a9662efc9c229c6a0054600160401b900460ff16611a1057604051631afcd79f60e31b815260040160405180910390fd5b565b611a1a6119c7565b60008051602061288e83398151915280611a3484826122af565b50600181016106dc83826122af565b60006001600160e01b031982166380ac58cd60e01b1480611a7457506001600160e01b03198216635b5e139f60e01b145b8061041857506301ffc9a760e01b6001600160e01b0319831614610418565b60006001600160a01b03831615801590611af15750826001600160a01b0316846001600160a01b03161480611acd5750611acd8484610ce8565b80611af15750826001600160a01b0316611ae683610f23565b6001600160a01b0316145b949350505050565b60606000611b0683611bf0565b60010190506000816001600160401b03811115611b2557611b25611ec7565b6040519080825280601f01601f191660200182016040528015611b4f576020820181803683370190505b5090508181016020015b600019016f181899199a1a9b1b9c1cb0b131b232b360811b600a86061a8153600a8504945084611b5957509392505050565b6001600160a01b038216611bb557604051633250574960e11b815260006004820152602401610678565b6000611bc383836000610f6a565b90506001600160a01b03811615610753576040516339e3563760e11b815260006004820152602401610678565b60008072184f03e93ff9f4daa797ed6e38ed64bf6a1f0160401b8310611c2f5772184f03e93ff9f4daa797ed6e38ed64bf6a1f0160401b830492506040015b6d04ee2d6d415b85acef81000000008310611c5b576d04ee2d6d415b85acef8100000000830492506020015b662386f26fc100008310611c7957662386f26fc10000830492506010015b6305f5e1008310611c91576305f5e100830492506008015b6127108310611ca557612710830492506004015b60648310611cb7576064830492506002015b600a83106104185760010192915050565b6001600160e01b03198116811461107e57600080fd5b600060208284031215611cf057600080fd5b81356119a981611cc8565b60005b83811015611d16578181015183820152602001611cfe565b50506000910152565b60008151808452611d37816020860160208601611cfb565b601f01601f19169290920160200192915050565b6020815260006119a96020830184611d1f565b600060208284031215611d7057600080fd5b5035919050565b6001600160a01b038116811461107e57600080fd5b60008060408385031215611d9f57600080fd5b8235611daa81611d77565b946020939093013593505050565b6020808252825182820152828101516040808401919091528301516001600160a01b0390811660608085019190915284015160a06080850152805160c085018190526000939291830191849160e08701905b80841015611e2c57845183168252938501936001939093019290850190611e0a565b506080880151878203601f190160a08901529450611e4a8186611d1f565b98975050505050505050565b600080600060608486031215611e6b57600080fd5b8335611e7681611d77565b92506020840135611e8681611d77565b929592945050506040919091013590565b60008060408385031215611eaa57600080fd5b823591506020830135611ebc81611d77565b809150509250929050565b634e487b7160e01b600052604160045260246000fd5b60006001600160401b0380841115611ef757611ef7611ec7565b604051601f8501601f19908116603f01168101908282118183101715611f1f57611f1f611ec7565b81604052809350858152868686011115611f3857600080fd5b858560208301376000602087830101525050509392505050565b600082601f830112611f6357600080fd5b6119a983833560208501611edd565b60008060408385031215611f8557600080fd5b8235915060208301356001600160401b03811115611fa257600080fd5b611fae85828601611f52565b9150509250929050565b600060208284031215611fca57600080fd5b81356119a981611d77565b600060208284031215611fe757600080fd5b81356001600160401b03811115611ffd57600080fd5b611af184828501611f52565b801515811461107e57600080fd5b6000806040838503121561202a57600080fd5b823561203581611d77565b91506020830135611ebc81612009565b6000806000806080858703121561205b57600080fd5b843561206681611d77565b9350602085013561207681611d77565b92506040850135915060608501356001600160401b0381111561209857600080fd5b8501601f810187136120a957600080fd5b6120b887823560208401611edd565b91505092959194509250565b60008083601f8401126120d657600080fd5b5081356001600160401b038111156120ed57600080fd5b60208301915083602082850101111561210557600080fd5b9250929050565b6000806000806060858703121561212257600080fd5b843561212d81611d77565b935060208501356001600160401b038082111561214957600080fd5b612155888389016120c4565b9095509350604087013591508082111561216e57600080fd5b50850160a0818803121561218157600080fd5b939692955090935050565b6000806040838503121561219f57600080fd5b82356121aa81611d77565b91506020830135611ebc81611d77565b6000806000604084860312156121cf57600080fd5b83356121da81611d77565b925060208401356001600160401b038111156121f557600080fd5b612201868287016120c4565b9497909650939450505050565b600181811c9082168061222257607f821691505b60208210810361224257634e487b7160e01b600052602260045260246000fd5b50919050565b828152604060208201526000611af16040830184611d1f565b5b818110156104e25760008155600101612262565b601f82111561075357806000526020600020601f840160051c8101602085101561229d5750805b6113e8601f850160051c830182612261565b81516001600160401b038111156122c8576122c8611ec7565b6122dc816122d6845461220e565b84612276565b602080601f83116001811461231157600084156122f95750858301515b600019600386901b1c1916600185901b17855561236a565b600085815260208120601f198616915b8281101561234057888601518255948401946001909101908401612321565b508582101561235e5787850151600019600388901b60f8161c191681555b505060018460011b0185555b505050505050565b634e487b7160e01b600052603260045260246000fd5b60006020828403121561239a57600080fd5b5051919050565b634e487b7160e01b600052601160045260246000fd5b80820180821115610418576104186123a1565b6000600182016123dc576123dc6123a1565b5060010190565b6000808335601e198436030181126123fa57600080fd5b8301803591506001600160401b0382111561241457600080fd5b6020019150600581901b360382131561210557600080fd5b6001600160401b0383111561244357612443611ec7565b600160401b83111561245757612457611ec7565b80548382558084101561247d5781600052602060002061247b828201868301612261565b505b50818160005260208060002060005b868110156124af57833561249f81611d77565b828201559282019260010161248c565b50505050505050565b6000808335601e198436030181126124cf57600080fd5b8301803591506001600160401b038211156124e957600080fd5b60200191503681900382131561210557600080fd5b6001600160401b0383111561251557612515611ec7565b61252983612523835461220e565b83612276565b6000601f84116001811461255d57600085156125455750838201355b600019600387901b1c1916600186901b1783556113e8565b600083815260209020601f19861690835b8281101561258e578685013582556020948501946001909201910161256e565b50868210156125ab5760001960f88860031b161c19848701351681555b505060018560011b0183555050505050565b81358155602082013560018201556002810160408301356125dd81611d77565b81546001600160a01b0319166001600160a01b0391909116179055606082013536839003601e1901811261261057600080fd5b820180356001600160401b0381111561262857600080fd5b6020820191508060051b360382131561264057600080fd5b61264e81836003860161242c565b505061265d60808301836124b8565b6106dc8183600486016124fe565b8183526000602080850194508260005b858110156126a957813561268e81611d77565b6001600160a01b03168752958201959082019060010161267b565b509495945050505050565b6000808335601e198436030181126126cb57600080fd5b83016020810192503590506001600160401b038111156126ea57600080fd5b80360382131561210557600080fd5b81835281816020850137506000828201602090810191909152601f909101601f19169091010190565b8281526040602082015281356040820152602082013560608201526000604083013561274d81611d77565b6001600160a01b03166080830152606083013536849003601e1901811261277357600080fd5b83016020810190356001600160401b0381111561278f57600080fd5b8060051b36038213156127a157600080fd5b60a0808501526127b560e08501828461266b565b9150506127c560808501856126b4565b848303603f190160c08601526127dc8382846126f9565b979650505050505050565b6001600160a01b038581168252841660208201526040810183905260806060820181905260009061281a90830184611d1f565b9695505050505050565b60006020828403121561283657600080fd5b81516119a981611cc8565b60008351612853818460208801611cfb565b835190830190612867818360208801611cfb565b01949350505050565b60006020828403121561288257600080fd5b81516119a98161200956fe80bb2b638cc20bc4d0a60d66940f3ab4a00c1d7b313497ca82fb0b4ab007930002dd7bc7dec4dceedda775e58dd541e08a116c6c53815c0bd028192f7b626800a26469706673582212204293827688a73c5fdc3313b063d916faed11a05a6bae36c522d3639333960aac64736f6c63430008140033","linkReferences":{}},"methodIdentifiers":{"DEFAULT_ADMIN_ROLE()":"a217fddf","MINTER_ROLE()":"d5391393","approve(address,uint256)":"095ea7b3","balanceOf(address)":"70a08231","contractURI()":"e8a3d485","getApproved(uint256)":"081812fc","getPromotion(uint256)":"14fdecca","getRoleAdmin(bytes32)":"248a9ca3","getTicketsAmount(uint256)":"9de0206c","grantRole(bytes32,address)":"2f2ff15d","hasRole(bytes32,address)":"91d14854","initialize(address,string)":"f399e22e","isApprovedForAll(address,address)":"e985e9c5","name()":"06fdde03","ownerOf(uint256)":"6352211e","renounceRole(bytes32,address)":"36568abe","revokeRole(bytes32,address)":"d547741f","safeMint(address,string,(uint256,uint256,address,address[],string))":"cada1089","safeTransferFrom(address,address,uint256)":"42842e0e","safeTransferFrom(address,address,uint256,bytes)":"b88d4fde","setApprovalForAll(address,bool)":"a22cb465","setContractURI(string)":"938e3d7b","setTokenUri(uint256,string)":"57f7789e","supportsInterface(bytes4)":"01ffc9a7","symbol()":"95d89b41","tokenURI(uint256)":"c87b56dd","totalSupply()":"18160ddd","transferFrom(address,address,uint256)":"23b872dd"},"id":67}