{
  "abi": [
    {
      "inputs": [],
      "stateMutability": "nonpayable",
      "type": "constructor"
    },
    {
      "inputs": [
        {
          "internalType": "address",
          "name": "sender",
          "type": "address"
        },
        {
          "internalType": "uint256",
          "name": "tokenId",
          "type": "uint256"
        },
        {
          "internalType": "address",
          "name": "owner",
          "type": "address"
        }
      ],
      "name": "ERC721IncorrectOwner",
      "type": "error"
    },
    {
      "inputs": [
        {
          "internalType": "address",
          "name": "operator",
          "type": "address"
        },
        {
          "internalType": "uint256",
          "name": "tokenId",
          "type": "uint256"
        }
      ],
      "name": "ERC721InsufficientApproval",
      "type": "error"
    },
    {
      "inputs": [
        {
          "internalType": "address",
          "name": "approver",
          "type": "address"
        }
      ],
      "name": "ERC721InvalidApprover",
      "type": "error"
    },
    {
      "inputs": [
        {
          "internalType": "address",
          "name": "operator",
          "type": "address"
        }
      ],
      "name": "ERC721InvalidOperator",
      "type": "error"
    },
    {
      "inputs": [
        {
          "internalType": "address",
          "name": "owner",
          "type": "address"
        }
      ],
      "name": "ERC721InvalidOwner",
      "type": "error"
    },
    {
      "inputs": [
        {
          "internalType": "address",
          "name": "receiver",
          "type": "address"
        }
      ],
      "name": "ERC721InvalidReceiver",
      "type": "error"
    },
    {
      "inputs": [
        {
          "internalType": "address",
          "name": "sender",
          "type": "address"
        }
      ],
      "name": "ERC721InvalidSender",
      "type": "error"
    },
    {
      "inputs": [
        {
          "internalType": "uint256",
          "name": "tokenId",
          "type": "uint256"
        }
      ],
      "name": "ERC721NonexistentToken",
      "type": "error"
    },
    {
      "inputs": [],
      "name": "InvalidInitialization",
      "type": "error"
    },
    {
      "inputs": [],
      "name": "NotInitializing",
      "type": "error"
    },
    {
      "inputs": [],
      "name": "NotTokenOwner",
      "type": "error"
    },
    {
      "inputs": [
        {
          "internalType": "address",
          "name": "owner",
          "type": "address"
        }
      ],
      "name": "OwnableInvalidOwner",
      "type": "error"
    },
    {
      "inputs": [
        {
          "internalType": "address",
          "name": "account",
          "type": "address"
        }
      ],
      "name": "OwnableUnauthorizedAccount",
      "type": "error"
    },
    {
      "anonymous": false,
      "inputs": [
        {
          "indexed": true,
          "internalType": "address",
          "name": "owner",
          "type": "address"
        },
        {
          "indexed": true,
          "internalType": "address",
          "name": "approved",
          "type": "address"
        },
        {
          "indexed": true,
          "internalType": "uint256",
          "name": "tokenId",
          "type": "uint256"
        }
      ],
      "name": "Approval",
      "type": "event"
    },
    {
      "anonymous": false,
      "inputs": [
        {
          "indexed": true,
          "internalType": "address",
          "name": "owner",
          "type": "address"
        },
        {
          "indexed": true,
          "internalType": "address",
          "name": "operator",
          "type": "address"
        },
        {
          "indexed": false,
          "internalType": "bool",
          "name": "approved",
          "type": "bool"
        }
      ],
      "name": "ApprovalForAll",
      "type": "event"
    },
    {
      "anonymous": false,
      "inputs": [
        {
          "indexed": false,
          "internalType": "uint256",
          "name": "_fromTokenId",
          "type": "uint256"
        },
        {
          "indexed": false,
          "internalType": "uint256",
          "name": "_toTokenId",
          "type": "uint256"
        }
      ],
      "name": "BatchMetadataUpdate",
      "type": "event"
    },
    {
      "anonymous": false,
      "inputs": [
        {
          "indexed": false,
          "internalType": "string",
          "name": "contractURI",
          "type": "string"
        }
      ],
      "name": "ContractURIChanged",
      "type": "event"
    },
    {
      "anonymous": false,
      "inputs": [
        {
          "indexed": false,
          "internalType": "uint64",
          "name": "version",
          "type": "uint64"
        }
      ],
      "name": "Initialized",
      "type": "event"
    },
    {
      "anonymous": false,
      "inputs": [
        {
          "indexed": false,
          "internalType": "uint256",
          "name": "_tokenId",
          "type": "uint256"
        }
      ],
      "name": "MetadataUpdate",
      "type": "event"
    },
    {
      "anonymous": false,
      "inputs": [
        {
          "indexed": true,
          "internalType": "address",
          "name": "owner",
          "type": "address"
        },
        {
          "indexed": true,
          "internalType": "uint256",
          "name": "tokenId",
          "type": "uint256"
        },
        {
          "components": [
            {
              "internalType": "uint256",
              "name": "startTime",
              "type": "uint256"
            },
            {
              "internalType": "uint256",
              "name": "endTime",
              "type": "uint256"
            },
            {
              "internalType": "address",
              "name": "promoAddr",
              "type": "address"
            },
            {
              "internalType": "address[]",
              "name": "streams",
              "type": "address[]"
            },
            {
              "internalType": "string",
              "name": "description",
              "type": "string"
            }
          ],
          "indexed": false,
          "internalType": "struct Promotion",
          "name": "promotion",
          "type": "tuple"
        }
      ],
      "name": "MintPromo",
      "type": "event"
    },
    {
      "anonymous": false,
      "inputs": [
        {
          "indexed": true,
          "internalType": "address",
          "name": "previousOwner",
          "type": "address"
        },
        {
          "indexed": true,
          "internalType": "address",
          "name": "newOwner",
          "type": "address"
        }
      ],
      "name": "OwnershipTransferred",
      "type": "event"
    },
    {
      "anonymous": false,
      "inputs": [
        {
          "indexed": true,
          "internalType": "address",
          "name": "owner",
          "type": "address"
        },
        {
          "indexed": true,
          "internalType": "uint256",
          "name": "tokenId",
          "type": "uint256"
        },
        {
          "indexed": false,
          "internalType": "string",
          "name": "tokenUri",
          "type": "string"
        }
      ],
      "name": "TokenUriChanged",
      "type": "event"
    },
    {
      "anonymous": false,
      "inputs": [
        {
          "indexed": true,
          "internalType": "address",
          "name": "from",
          "type": "address"
        },
        {
          "indexed": true,
          "internalType": "address",
          "name": "to",
          "type": "address"
        },
        {
          "indexed": true,
          "internalType": "uint256",
          "name": "tokenId",
          "type": "uint256"
        }
      ],
      "name": "Transfer",
      "type": "event"
    },
    {
      "inputs": [
        {
          "internalType": "address",
          "name": "to",
          "type": "address"
        },
        {
          "internalType": "uint256",
          "name": "tokenId",
          "type": "uint256"
        }
      ],
      "name": "approve",
      "outputs": [],
      "stateMutability": "nonpayable",
      "type": "function"
    },
    {
      "inputs": [
        {
          "internalType": "address",
          "name": "owner",
          "type": "address"
        }
      ],
      "name": "balanceOf",
      "outputs": [
        {
          "internalType": "uint256",
          "name": "",
          "type": "uint256"
        }
      ],
      "stateMutability": "view",
      "type": "function"
    },
    {
      "inputs": [],
      "name": "contractURI",
      "outputs": [
        {
          "internalType": "string",
          "name": "",
          "type": "string"
        }
      ],
      "stateMutability": "view",
      "type": "function"
    },
    {
      "inputs": [
        {
          "internalType": "uint256",
          "name": "tokenId",
          "type": "uint256"
        }
      ],
      "name": "getApproved",
      "outputs": [
        {
          "internalType": "address",
          "name": "",
          "type": "address"
        }
      ],
      "stateMutability": "view",
      "type": "function"
    },
    {
      "inputs": [
        {
          "internalType": "uint256",
          "name": "tokenId",
          "type": "uint256"
        }
      ],
      "name": "getPromotion",
      "outputs": [
        {
          "components": [
            {
              "internalType": "uint256",
              "name": "startTime",
              "type": "uint256"
            },
            {
              "internalType": "uint256",
              "name": "endTime",
              "type": "uint256"
            },
            {
              "internalType": "address",
              "name": "promoAddr",
              "type": "address"
            },
            {
              "internalType": "address[]",
              "name": "streams",
              "type": "address[]"
            },
            {
              "internalType": "string",
              "name": "description",
              "type": "string"
            }
          ],
          "internalType": "struct Promotion",
          "name": "",
          "type": "tuple"
        }
      ],
      "stateMutability": "view",
      "type": "function"
    },
    {
      "inputs": [
        {
          "internalType": "uint256",
          "name": "tokenId",
          "type": "uint256"
        }
      ],
      "name": "getTicketsAmount",
      "outputs": [
        {
          "internalType": "uint256",
          "name": "totalTicketsAmount",
          "type": "uint256"
        }
      ],
      "stateMutability": "view",
      "type": "function"
    },
    {
      "inputs": [
        {
          "internalType": "address",
          "name": "promoFactory",
          "type": "address"
        },
        {
          "internalType": "string",
          "name": "contractUri",
          "type": "string"
        }
      ],
      "name": "initialize",
      "outputs": [],
      "stateMutability": "nonpayable",
      "type": "function"
    },
    {
      "inputs": [
        {
          "internalType": "address",
          "name": "owner",
          "type": "address"
        },
        {
          "internalType": "address",
          "name": "operator",
          "type": "address"
        }
      ],
      "name": "isApprovedForAll",
      "outputs": [
        {
          "internalType": "bool",
          "name": "",
          "type": "bool"
        }
      ],
      "stateMutability": "view",
      "type": "function"
    },
    {
      "inputs": [],
      "name": "name",
      "outputs": [
        {
          "internalType": "string",
          "name": "",
          "type": "string"
        }
      ],
      "stateMutability": "view",
      "type": "function"
    },
    {
      "inputs": [],
      "name": "owner",
      "outputs": [
        {
          "internalType": "address",
          "name": "",
          "type": "address"
        }
      ],
      "stateMutability": "view",
      "type": "function"
    },
    {
      "inputs": [
        {
          "internalType": "uint256",
          "name": "tokenId",
          "type": "uint256"
        }
      ],
      "name": "ownerOf",
      "outputs": [
        {
          "internalType": "address",
          "name": "",
          "type": "address"
        }
      ],
      "stateMutability": "view",
      "type": "function"
    },
    {
      "inputs": [],
      "name": "renounceOwnership",
      "outputs": [],
      "stateMutability": "nonpayable",
      "type": "function"
    },
    {
      "inputs": [
        {
          "internalType": "address",
          "name": "to",
          "type": "address"
        },
        {
          "internalType": "string",
          "name": "uri",
          "type": "string"
        },
        {
          "components": [
            {
              "internalType": "uint256",
              "name": "startTime",
              "type": "uint256"
            },
            {
              "internalType": "uint256",
              "name": "endTime",
              "type": "uint256"
            },
            {
              "internalType": "address",
              "name": "promoAddr",
              "type": "address"
            },
            {
              "internalType": "address[]",
              "name": "streams",
              "type": "address[]"
            },
            {
              "internalType": "string",
              "name": "description",
              "type": "string"
            }
          ],
          "internalType": "struct Promotion",
          "name": "promotion",
          "type": "tuple"
        }
      ],
      "name": "safeMint",
      "outputs": [],
      "stateMutability": "nonpayable",
      "type": "function"
    },
    {
      "inputs": [
        {
          "internalType": "address",
          "name": "from",
          "type": "address"
        },
        {
          "internalType": "address",
          "name": "to",
          "type": "address"
        },
        {
          "internalType": "uint256",
          "name": "tokenId",
          "type": "uint256"
        }
      ],
      "name": "safeTransferFrom",
      "outputs": [],
      "stateMutability": "nonpayable",
      "type": "function"
    },
    {
      "inputs": [
        {
          "internalType": "address",
          "name": "from",
          "type": "address"
        },
        {
          "internalType": "address",
          "name": "to",
          "type": "address"
        },
        {
          "internalType": "uint256",
          "name": "tokenId",
          "type": "uint256"
        },
        {
          "internalType": "bytes",
          "name": "data",
          "type": "bytes"
        }
      ],
      "name": "safeTransferFrom",
      "outputs": [],
      "stateMutability": "nonpayable",
      "type": "function"
    },
    {
      "inputs": [
        {
          "internalType": "address",
          "name": "operator",
          "type": "address"
        },
        {
          "internalType": "bool",
          "name": "approved",
          "type": "bool"
        }
      ],
      "name": "setApprovalForAll",
      "outputs": [],
      "stateMutability": "nonpayable",
      "type": "function"
    },
    {
      "inputs": [
        {
          "internalType": "string",
          "name": "newContractURI",
          "type": "string"
        }
      ],
      "name": "setContractURI",
      "outputs": [],
      "stateMutability": "nonpayable",
      "type": "function"
    },
    {
      "inputs": [
        {
          "internalType": "uint256",
          "name": "tokenId",
          "type": "uint256"
        },
        {
          "internalType": "string",
          "name": "uri",
          "type": "string"
        }
      ],
      "name": "setTokenUri",
      "outputs": [],
      "stateMutability": "nonpayable",
      "type": "function"
    },
    {
      "inputs": [
        {
          "internalType": "bytes4",
          "name": "interfaceId",
          "type": "bytes4"
        }
      ],
      "name": "supportsInterface",
      "outputs": [
        {
          "internalType": "bool",
          "name": "",
          "type": "bool"
        }
      ],
      "stateMutability": "view",
      "type": "function"
    },
    {
      "inputs": [],
      "name": "symbol",
      "outputs": [
        {
          "internalType": "string",
          "name": "",
          "type": "string"
        }
      ],
      "stateMutability": "view",
      "type": "function"
    },
    {
      "inputs": [
        {
          "internalType": "uint256",
          "name": "tokenId",
          "type": "uint256"
        }
      ],
      "name": "tokenURI",
      "outputs": [
        {
          "internalType": "string",
          "name": "",
          "type": "string"
        }
      ],
      "stateMutability": "view",
      "type": "function"
    },
    {
      "inputs": [],
      "name": "totalSupply",
      "outputs": [
        {
          "internalType": "uint256",
          "name": "",
          "type": "uint256"
        }
      ],
      "stateMutability": "view",
      "type": "function"
    },
    {
      "inputs": [
        {
          "internalType": "address",
          "name": "from",
          "type": "address"
        },
        {
          "internalType": "address",
          "name": "to",
          "type": "address"
        },
        {
          "internalType": "uint256",
          "name": "tokenId",
          "type": "uint256"
        }
      ],
      "name": "transferFrom",
      "outputs": [],
      "stateMutability": "nonpayable",
      "type": "function"
    },
    {
      "inputs": [
        {
          "internalType": "address",
          "name": "newOwner",
          "type": "address"
        }
      ],
      "name": "transferOwnership",
      "outputs": [],
      "stateMutability": "nonpayable",
      "type": "function"
    }
  ],
  "bytecode": {
    "object": "0x608060405234801561001057600080fd5b5061001961001e565b6100d0565b7ff0c57e16840df040f15088dc2f81fe391c3923bec73e23a9662efc9c229c6a00805468010000000000000000900460ff161561006e5760405163f92ee8a960e01b815260040160405180910390fd5b80546001600160401b03908116146100cd5780546001600160401b0319166001600160401b0390811782556040519081527fc7f505b2f371ae2175ee4913f4499e1f2633a7b5936321eed1cdaeb6115181d29060200160405180910390a15b50565b6123eb80620000e06000396000f3fe608060405234801561001057600080fd5b50600436106101585760003560e01c80638da5cb5b116100c3578063c87b56dd1161007c578063c87b56dd146102f7578063cada10891461030a578063e8a3d4851461031d578063e985e9c514610325578063f2fde38b14610338578063f399e22e1461034b57600080fd5b80638da5cb5b14610273578063938e3d7b146102a357806395d89b41146102b65780639de0206c146102be578063a22cb465146102d1578063b88d4fde146102e457600080fd5b806323b872dd1161011557806323b872dd1461020c57806342842e0e1461021f57806357f7789e146102325780636352211e1461024557806370a0823114610258578063715018a61461026b57600080fd5b806301ffc9a71461015d57806306fdde0314610185578063081812fc1461019a578063095ea7b3146101c557806314fdecca146101da57806318160ddd146101fa575b600080fd5b61017061016b3660046118d8565b61035e565b60405190151581526020015b60405180910390f35b61018d61036f565b60405161017c9190611945565b6101ad6101a8366004611958565b610413565b6040516001600160a01b03909116815260200161017c565b6101d86101d3366004611986565b610428565b005b6101ed6101e8366004611958565b610437565b60405161017c91906119b2565b6001545b60405190815260200161017c565b6101d861021a366004611a50565b6105a3565b6101d861022d366004611a50565b610633565b6101d8610240366004611b3c565b610653565b6101ad610253366004611958565b6106d6565b6101fe610266366004611b82565b6106e1565b6101d861073d565b7f9016d09d72d40fdae2fd8ceac6b6234c7706214fd39c1cd1e609a0528c199300546001600160a01b03166101ad565b6101d86102b1366004611b9f565b610751565b61018d6107a0565b6101fe6102cc366004611958565b6107df565b6101d86102df366004611bd3565b6109c7565b6101d86102f2366004611c11565b6109d2565b61018d610305366004611958565b6109e9565b6101d8610318366004611c90565b6109f4565b61018d610ac4565b610170610333366004611d3e565b610b56565b6101d8610346366004611b82565b610ba3565b6101d8610359366004611d6c565b610be1565b600061036982610d42565b92915050565b600080516020612396833981519152805460609190819061038f90611da5565b80601f01602080910402602001604051908101604052809291908181526020018280546103bb90611da5565b80156104085780601f106103dd57610100808354040283529160200191610408565b820191906000526020600020905b8154815290600101906020018083116103eb57829003601f168201915b505050505091505090565b600061041e82610d67565b5061036982610d9f565b610433828233610dd9565b5050565b6104726040518060a00160405280600081526020016000815260200160006001600160a01b0316815260200160608152602001606081525090565b600082815260026020818152604092839020835160a08101855281548152600182015481840152928101546001600160a01b03168385015260038101805485518185028101850190965280865293949193606086019383018282801561050157602002820191906000526020600020905b81546001600160a01b031681526001909101906020018083116104e3575b5050505050815260200160048201805461051a90611da5565b80601f016020809104026020016040519081016040528092919081815260200182805461054690611da5565b80156105935780601f1061056857610100808354040283529160200191610593565b820191906000526020600020905b81548152906001019060200180831161057657829003601f168201915b5050505050815250509050919050565b6001600160a01b0382166105d257604051633250574960e11b8152600060048201526024015b60405180910390fd5b60006105df838333610de6565b9050836001600160a01b0316816001600160a01b03161461062d576040516364283d7b60e01b81526001600160a01b03808616600483015260248201849052821660448201526064016105c9565b50505050565b61064e838383604051806020016040528060008152506109d2565b505050565b813361065e826106d6565b6001600160a01b031614610685576040516359dc379f60e01b815260040160405180910390fd5b61068f8383610ef0565b82336001600160a01b03167fc7868dbe1cad60d57d886befc1900d24ad0479e09f729e67507abfdb4332cd1e846040516106c99190611945565b60405180910390a3505050565b600061036982610d67565b60006000805160206123968339815191526001600160a01b03831661071c576040516322718ad960e21b8152600060048201526024016105c9565b6001600160a01b039092166000908152600390920160205250604090205490565b610745610f63565b61074f6000610fbe565b565b610759610f63565b60006107658282611e2d565b507fd5ee5eaf65263bab5d569890714d123ad48a9e54409d35e71d374f3dd300bba0816040516107959190611945565b60405180910390a150565b7f80bb2b638cc20bc4d0a60d66940f3ab4a00c1d7b313497ca82fb0b4ab007930180546060916000805160206123968339815191529161038f90611da5565b6000818152600260208181526040808420815160a08101835281548152600182015481850152938101546001600160a01b031684830152600381018054835181860281018601909452808452869594929360608601939092919083018282801561087257602002820191906000526020600020905b81546001600160a01b03168152600190910190602001808311610854575b5050505050815260200160048201805461088b90611da5565b80601f01602080910402602001604051908101604052809291908181526020018280546108b790611da5565b80156109045780601f106108d957610100808354040283529160200191610904565b820191906000526020600020905b8154815290600101906020018083116108e757829003601f168201915b5050509190925250505060608101515190915060005b818110156109bf578260600151818151811061093857610938611ef0565b60200260200101516001600160a01b03166318160ddd6040518163ffffffff1660e01b8152600401602060405180830381865afa15801561097d573d6000803e3d6000fd5b505050506040513d601f19601f820116820180604052508101906109a19190611f06565b6109ab9085611f35565b9350806109b781611f48565b91505061091a565b505050919050565b61043333838361102f565b6109dd8484846105a3565b61062d848484846110e0565b606061036982611209565b6109fc610f63565b60018054906000610a0c83611f48565b9091555050600154610a1e858261133e565b610a5e8185858080601f016020809104026020016040519081016040528093929190818152602001838380828437600092019190915250610ef092505050565b60008181526002602052604090208290610a7882826120f0565b90505080856001600160a01b03167fe20902879f47c9f734b76d32be336010f7b3255d44e1564663803fac43d06cf584604051610ab59190612255565b60405180910390a35050505050565b606060008054610ad390611da5565b80601f0160208091040260200160405190810160405280929190818152602001828054610aff90611da5565b8015610b4c5780601f10610b2157610100808354040283529160200191610b4c565b820191906000526020600020905b815481529060010190602001808311610b2f57829003601f168201915b5050505050905090565b6001600160a01b0391821660009081527f80bb2b638cc20bc4d0a60d66940f3ab4a00c1d7b313497ca82fb0b4ab00793056020908152604080832093909416825291909152205460ff1690565b610bab610f63565b6001600160a01b038116610bd557604051631e4fbdf760e01b8152600060048201526024016105c9565b610bde81610fbe565b50565b7ff0c57e16840df040f15088dc2f81fe391c3923bec73e23a9662efc9c229c6a008054600160401b810460ff1615906001600160401b0316600081158015610c265750825b90506000826001600160401b03166001148015610c425750303b155b905081158015610c50575080155b15610c6e5760405163f92ee8a960e01b815260040160405180910390fd5b845467ffffffffffffffff191660011785558315610c9857845460ff60401b1916600160401b1785555b610cdd604051806040016040528060098152602001684d65746150726f6d6f60b81b8152506040518060400160405280600281526020016104d560f41b815250611358565b610ce68761136a565b6000610cf28782611e2d565b508315610d3957845460ff60401b19168555604051600181527fc7f505b2f371ae2175ee4913f4499e1f2633a7b5936321eed1cdaeb6115181d29060200160405180910390a15b50505050505050565b60006001600160e01b03198216632483248360e11b148061036957506103698261137b565b600080610d73836113cb565b90506001600160a01b03811661036957604051637e27328960e01b8152600481018490526024016105c9565b60009081527f80bb2b638cc20bc4d0a60d66940f3ab4a00c1d7b313497ca82fb0b4ab007930460205260409020546001600160a01b031690565b61064e8383836001611405565b600060008051602061239683398151915281610e01856113cb565b90506001600160a01b03841615610e1d57610e1d81858761151b565b6001600160a01b03811615610e5d57610e3a600086600080611405565b6001600160a01b0381166000908152600383016020526040902080546000190190555b6001600160a01b03861615610e8e576001600160a01b03861660009081526003830160205260409020805460010190555b600085815260028301602052604080822080546001600160a01b0319166001600160a01b038a811691821790925591518893918516917fddf252ad1be2c89b69c2b068fc378daa952ba7f163c4a11628f55a4df523b3ef91a495945050505050565b60008281527f0542a41881ee128a365a727b282c86fa859579490b9bb45aab8503648c8e790060208190526040909120610f2a8382611e2d565b506040518381527ff8e1a15aba9398e019f0b49df1a4fde98ee17ae345cb5f6b5e2c27f5033e8ce79060200160405180910390a1505050565b33610f957f9016d09d72d40fdae2fd8ceac6b6234c7706214fd39c1cd1e609a0528c199300546001600160a01b031690565b6001600160a01b03161461074f5760405163118cdaa760e01b81523360048201526024016105c9565b7f9016d09d72d40fdae2fd8ceac6b6234c7706214fd39c1cd1e609a0528c19930080546001600160a01b031981166001600160a01b03848116918217845560405192169182907f8be0079c531659141344cd1fd0a4f28419497f9722a3daafe3b4186f6b6457e090600090a3505050565b6000805160206123968339815191526001600160a01b03831661107057604051630b61174360e31b81526001600160a01b03841660048201526024016105c9565b6001600160a01b038481166000818152600584016020908152604080832094881680845294825291829020805460ff191687151590811790915591519182527f17307eab39ab6107e8899845ad3d59bd9653f200f220920489ca2b5937696c31910160405180910390a350505050565b6001600160a01b0383163b1561062d57604051630a85bd0160e11b81526001600160a01b0384169063150b7a0290611122903390889087908790600401612316565b6020604051808303816000875af192505050801561115d575060408051601f3d908101601f1916820190925261115a91810190612349565b60015b6111c6573d80801561118b576040519150601f19603f3d011682016040523d82523d6000602084013e611190565b606091505b5080516000036111be57604051633250574960e11b81526001600160a01b03851660048201526024016105c9565b805181602001fd5b6001600160e01b03198116630a85bd0160e11b1461120257604051633250574960e11b81526001600160a01b03851660048201526024016105c9565b5050505050565b60607f0542a41881ee128a365a727b282c86fa859579490b9bb45aab8503648c8e790061123583610d67565b506000838152602082905260408120805461124f90611da5565b80601f016020809104026020016040519081016040528092919081815260200182805461127b90611da5565b80156112c85780601f1061129d576101008083540402835291602001916112c8565b820191906000526020600020905b8154815290600101906020018083116112ab57829003601f168201915b5050505050905060006112e660408051602081019091526000815290565b905080516000036112f957509392505050565b81511561132c578082604051602001611313929190612366565b6040516020818303038152906040529350505050919050565b6113358561157f565b95945050505050565b6104338282604051806020016040528060008152506115f4565b61136061160b565b6104338282611654565b61137261160b565b610bde81611685565b60006001600160e01b031982166380ac58cd60e01b14806113ac57506001600160e01b03198216635b5e139f60e01b145b8061036957506301ffc9a760e01b6001600160e01b0319831614610369565b60009081527f80bb2b638cc20bc4d0a60d66940f3ab4a00c1d7b313497ca82fb0b4ab007930260205260409020546001600160a01b031690565b600080516020612396833981519152818061142857506001600160a01b03831615155b156114ea57600061143885610d67565b90506001600160a01b038416158015906114645750836001600160a01b0316816001600160a01b031614155b801561147757506114758185610b56565b155b156114a05760405163a9fbf51f60e01b81526001600160a01b03851660048201526024016105c9565b82156114e85784866001600160a01b0316826001600160a01b03167f8c5be1e5ebec7d5bd14f71427d1e84f3dd0314c0f7b2291e5b200ac8c7c3b92560405160405180910390a45b505b600093845260040160205250506040902080546001600160a01b0319166001600160a01b0392909216919091179055565b61152683838361168d565b61064e576001600160a01b03831661155457604051637e27328960e01b8152600481018290526024016105c9565b60405163177e802f60e01b81526001600160a01b0383166004820152602481018290526044016105c9565b606061158a82610d67565b5060006115a260408051602081019091526000815290565b905060008151116115c257604051806020016040528060008152506115ed565b806115cc846116f3565b6040516020016115dd929190612366565b6040516020818303038152906040525b9392505050565b6115fe8383611785565b61064e60008484846110e0565b7ff0c57e16840df040f15088dc2f81fe391c3923bec73e23a9662efc9c229c6a0054600160401b900460ff1661074f57604051631afcd79f60e31b815260040160405180910390fd5b61165c61160b565b600080516020612396833981519152806116768482611e2d565b506001810161062d8382611e2d565b610bab61160b565b60006001600160a01b038316158015906116eb5750826001600160a01b0316846001600160a01b031614806116c757506116c78484610b56565b806116eb5750826001600160a01b03166116e083610d9f565b6001600160a01b0316145b949350505050565b60606000611700836117ea565b60010190506000816001600160401b0381111561171f5761171f611a91565b6040519080825280601f01601f191660200182016040528015611749576020820181803683370190505b5090508181016020015b600019016f181899199a1a9b1b9c1cb0b131b232b360811b600a86061a8153600a850494508461175357509392505050565b6001600160a01b0382166117af57604051633250574960e11b8152600060048201526024016105c9565b60006117bd83836000610de6565b90506001600160a01b0381161561064e576040516339e3563760e11b8152600060048201526024016105c9565b60008072184f03e93ff9f4daa797ed6e38ed64bf6a1f0160401b83106118295772184f03e93ff9f4daa797ed6e38ed64bf6a1f0160401b830492506040015b6d04ee2d6d415b85acef81000000008310611855576d04ee2d6d415b85acef8100000000830492506020015b662386f26fc10000831061187357662386f26fc10000830492506010015b6305f5e100831061188b576305f5e100830492506008015b612710831061189f57612710830492506004015b606483106118b1576064830492506002015b600a83106103695760010192915050565b6001600160e01b031981168114610bde57600080fd5b6000602082840312156118ea57600080fd5b81356115ed816118c2565b60005b838110156119105781810151838201526020016118f8565b50506000910152565b600081518084526119318160208601602086016118f5565b601f01601f19169290920160200192915050565b6020815260006115ed6020830184611919565b60006020828403121561196a57600080fd5b5035919050565b6001600160a01b0381168114610bde57600080fd5b6000806040838503121561199957600080fd5b82356119a481611971565b946020939093013593505050565b6020808252825182820152828101516040808401919091528301516001600160a01b0390811660608085019190915284015160a06080850152805160c085018190526000939291830191849160e08701905b80841015611a2657845183168252938501936001939093019290850190611a04565b506080880151878203601f190160a08901529450611a448186611919565b98975050505050505050565b600080600060608486031215611a6557600080fd5b8335611a7081611971565b92506020840135611a8081611971565b929592945050506040919091013590565b634e487b7160e01b600052604160045260246000fd5b60006001600160401b0380841115611ac157611ac1611a91565b604051601f8501601f19908116603f01168101908282118183101715611ae957611ae9611a91565b81604052809350858152868686011115611b0257600080fd5b858560208301376000602087830101525050509392505050565b600082601f830112611b2d57600080fd5b6115ed83833560208501611aa7565b60008060408385031215611b4f57600080fd5b8235915060208301356001600160401b03811115611b6c57600080fd5b611b7885828601611b1c565b9150509250929050565b600060208284031215611b9457600080fd5b81356115ed81611971565b600060208284031215611bb157600080fd5b81356001600160401b03811115611bc757600080fd5b6116eb84828501611b1c565b60008060408385031215611be657600080fd5b8235611bf181611971565b915060208301358015158114611c0657600080fd5b809150509250929050565b60008060008060808587031215611c2757600080fd5b8435611c3281611971565b93506020850135611c4281611971565b92506040850135915060608501356001600160401b03811115611c6457600080fd5b8501601f81018713611c7557600080fd5b611c8487823560208401611aa7565b91505092959194509250565b60008060008060608587031215611ca657600080fd5b8435611cb181611971565b935060208501356001600160401b0380821115611ccd57600080fd5b818701915087601f830112611ce157600080fd5b813581811115611cf057600080fd5b886020828501011115611d0257600080fd5b602083019550809450506040870135915080821115611d2057600080fd5b50850160a08188031215611d3357600080fd5b939692955090935050565b60008060408385031215611d5157600080fd5b8235611d5c81611971565b91506020830135611c0681611971565b60008060408385031215611d7f57600080fd5b8235611d8a81611971565b915060208301356001600160401b03811115611b6c57600080fd5b600181811c90821680611db957607f821691505b602082108103611dd957634e487b7160e01b600052602260045260246000fd5b50919050565b5b818110156104335760008155600101611de0565b601f82111561064e57806000526020600020601f840160051c81016020851015611e1b5750805b611202601f850160051c830182611ddf565b81516001600160401b03811115611e4657611e46611a91565b611e5a81611e548454611da5565b84611df4565b602080601f831160018114611e8f5760008415611e775750858301515b600019600386901b1c1916600185901b178555611ee8565b600085815260208120601f198616915b82811015611ebe57888601518255948401946001909101908401611e9f565b5085821015611edc5787850151600019600388901b60f8161c191681555b505060018460011b0185555b505050505050565b634e487b7160e01b600052603260045260246000fd5b600060208284031215611f1857600080fd5b5051919050565b634e487b7160e01b600052601160045260246000fd5b8082018082111561036957610369611f1f565b600060018201611f5a57611f5a611f1f565b5060010190565b6001600160401b03831115611f7857611f78611a91565b600160401b831115611f8c57611f8c611a91565b805483825580841015611fb257816000526020600020611fb0828201868301611ddf565b505b50818160005260208060002060005b86811015610d39578335611fd481611971565b8282015592820192600101611fc1565b6000808335601e19843603018112611ffb57600080fd5b8301803591506001600160401b0382111561201557600080fd5b60200191503681900382131561202a57600080fd5b9250929050565b6001600160401b0383111561204857612048611a91565b61205c836120568354611da5565b83611df4565b6000601f84116001811461209057600085156120785750838201355b600019600387901b1c1916600186901b178355611202565b600083815260209020601f19861690835b828110156120c157868501358255602094850194600190920191016120a1565b50868210156120de5760001960f88860031b161c19848701351681555b505060018560011b0183555050505050565b813581556020820135600182015560028101604083013561211081611971565b81546001600160a01b0319166001600160a01b0391909116179055606082013536839003601e1901811261214357600080fd5b820180356001600160401b0381111561215b57600080fd5b6020820191508060051b360382131561217357600080fd5b612181818360038601611f61565b50506121906080830183611fe4565b61062d818360048601612031565b8183526000602080850194508260005b858110156121dc5781356121c181611971565b6001600160a01b0316875295820195908201906001016121ae565b509495945050505050565b6000808335601e198436030181126121fe57600080fd5b83016020810192503590506001600160401b0381111561221d57600080fd5b80360382131561202a57600080fd5b81835281816020850137506000828201602090810191909152601f909101601f19169091010190565b6020815281356020820152602082013560408201526000604083013561227a81611971565b6001600160a01b031660608381019190915283013536849003601e190181126122a257600080fd5b83016020810190356001600160401b038111156122be57600080fd5b8060051b36038213156122d057600080fd5b60a060808501526122e560c08501828461219e565b9150506122f560808501856121e7565b848303601f190160a086015261230c83828461222c565b9695505050505050565b6001600160a01b038581168252841660208201526040810183905260806060820181905260009061230c90830184611919565b60006020828403121561235b57600080fd5b81516115ed816118c2565b600083516123788184602088016118f5565b83519083019061238c8183602088016118f5565b0194935050505056fe80bb2b638cc20bc4d0a60d66940f3ab4a00c1d7b313497ca82fb0b4ab0079300a26469706673582212200c464a21c19192aee35f5cbb2da47a5a0ee7a28a0f4875ecfae24d278ec7592f64736f6c63430008140033",
    "linkReferences": {}
  },
  "methodIdentifiers": {
    "approve(address,uint256)": "095ea7b3",
    "balanceOf(address)": "70a08231",
    "contractURI()": "e8a3d485",
    "getApproved(uint256)": "081812fc",
    "getPromotion(uint256)": "14fdecca",
    "getTicketsAmount(uint256)": "9de0206c",
    "initialize(address,string)": "f399e22e",
    "isApprovedForAll(address,address)": "e985e9c5",
    "name()": "06fdde03",
    "owner()": "8da5cb5b",
    "ownerOf(uint256)": "6352211e",
    "renounceOwnership()": "715018a6",
    "safeMint(address,string,(uint256,uint256,address,address[],string))": "cada1089",
    "safeTransferFrom(address,address,uint256)": "42842e0e",
    "safeTransferFrom(address,address,uint256,bytes)": "b88d4fde",
    "setApprovalForAll(address,bool)": "a22cb465",
    "setContractURI(string)": "938e3d7b",
    "setTokenUri(uint256,string)": "57f7789e",
    "supportsInterface(bytes4)": "01ffc9a7",
    "symbol()": "95d89b41",
    "tokenURI(uint256)": "c87b56dd",
    "totalSupply()": "18160ddd",
    "transferFrom(address,address,uint256)": "23b872dd",
    "transferOwnership(address)": "f2fde38b"
  },
  "id": 56
}